{
	"ERC20_flattened.sol": {
		"CAMESENNIN": {
			"abi": [
				{
					"inputs": [
						{
							"internalType": "uint256",
							"name": "initialSupply",
							"type": "uint256"
						}
					],
					"stateMutability": "nonpayable",
					"type": "constructor"
				},
				{
					"inputs": [
						{
							"internalType": "address",
							"name": "spender",
							"type": "address"
						},
						{
							"internalType": "uint256",
							"name": "allowance",
							"type": "uint256"
						},
						{
							"internalType": "uint256",
							"name": "needed",
							"type": "uint256"
						}
					],
					"name": "ERC20InsufficientAllowance",
					"type": "error"
				},
				{
					"inputs": [
						{
							"internalType": "address",
							"name": "sender",
							"type": "address"
						},
						{
							"internalType": "uint256",
							"name": "balance",
							"type": "uint256"
						},
						{
							"internalType": "uint256",
							"name": "needed",
							"type": "uint256"
						}
					],
					"name": "ERC20InsufficientBalance",
					"type": "error"
				},
				{
					"inputs": [
						{
							"internalType": "address",
							"name": "approver",
							"type": "address"
						}
					],
					"name": "ERC20InvalidApprover",
					"type": "error"
				},
				{
					"inputs": [
						{
							"internalType": "address",
							"name": "receiver",
							"type": "address"
						}
					],
					"name": "ERC20InvalidReceiver",
					"type": "error"
				},
				{
					"inputs": [
						{
							"internalType": "address",
							"name": "sender",
							"type": "address"
						}
					],
					"name": "ERC20InvalidSender",
					"type": "error"
				},
				{
					"inputs": [
						{
							"internalType": "address",
							"name": "spender",
							"type": "address"
						}
					],
					"name": "ERC20InvalidSpender",
					"type": "error"
				},
				{
					"anonymous": false,
					"inputs": [
						{
							"indexed": true,
							"internalType": "address",
							"name": "owner",
							"type": "address"
						},
						{
							"indexed": true,
							"internalType": "address",
							"name": "spender",
							"type": "address"
						},
						{
							"indexed": false,
							"internalType": "uint256",
							"name": "value",
							"type": "uint256"
						}
					],
					"name": "Approval",
					"type": "event"
				},
				{
					"anonymous": false,
					"inputs": [
						{
							"indexed": true,
							"internalType": "address",
							"name": "from",
							"type": "address"
						},
						{
							"indexed": true,
							"internalType": "address",
							"name": "to",
							"type": "address"
						},
						{
							"indexed": false,
							"internalType": "uint256",
							"name": "value",
							"type": "uint256"
						}
					],
					"name": "Transfer",
					"type": "event"
				},
				{
					"inputs": [
						{
							"internalType": "address",
							"name": "owner",
							"type": "address"
						},
						{
							"internalType": "address",
							"name": "spender",
							"type": "address"
						}
					],
					"name": "allowance",
					"outputs": [
						{
							"internalType": "uint256",
							"name": "",
							"type": "uint256"
						}
					],
					"stateMutability": "view",
					"type": "function"
				},
				{
					"inputs": [
						{
							"internalType": "address",
							"name": "spender",
							"type": "address"
						},
						{
							"internalType": "uint256",
							"name": "amount",
							"type": "uint256"
						}
					],
					"name": "approve",
					"outputs": [
						{
							"internalType": "bool",
							"name": "",
							"type": "bool"
						}
					],
					"stateMutability": "nonpayable",
					"type": "function"
				},
				{
					"inputs": [
						{
							"internalType": "address",
							"name": "account",
							"type": "address"
						}
					],
					"name": "balanceOf",
					"outputs": [
						{
							"internalType": "uint256",
							"name": "",
							"type": "uint256"
						}
					],
					"stateMutability": "view",
					"type": "function"
				},
				{
					"inputs": [
						{
							"internalType": "address",
							"name": "from",
							"type": "address"
						},
						{
							"internalType": "uint256",
							"name": "amount",
							"type": "uint256"
						}
					],
					"name": "burn",
					"outputs": [],
					"stateMutability": "nonpayable",
					"type": "function"
				},
				{
					"inputs": [],
					"name": "decimals",
					"outputs": [
						{
							"internalType": "uint8",
							"name": "",
							"type": "uint8"
						}
					],
					"stateMutability": "view",
					"type": "function"
				},
				{
					"inputs": [
						{
							"internalType": "address",
							"name": "account",
							"type": "address"
						}
					],
					"name": "getBalanceOf",
					"outputs": [
						{
							"internalType": "uint256",
							"name": "",
							"type": "uint256"
						}
					],
					"stateMutability": "view",
					"type": "function"
				},
				{
					"inputs": [
						{
							"internalType": "address",
							"name": "to",
							"type": "address"
						},
						{
							"internalType": "uint256",
							"name": "amount",
							"type": "uint256"
						}
					],
					"name": "mint",
					"outputs": [],
					"stateMutability": "nonpayable",
					"type": "function"
				},
				{
					"inputs": [],
					"name": "name",
					"outputs": [
						{
							"internalType": "string",
							"name": "",
							"type": "string"
						}
					],
					"stateMutability": "view",
					"type": "function"
				},
				{
					"inputs": [],
					"name": "symbol",
					"outputs": [
						{
							"internalType": "string",
							"name": "",
							"type": "string"
						}
					],
					"stateMutability": "view",
					"type": "function"
				},
				{
					"inputs": [],
					"name": "totalSupply",
					"outputs": [
						{
							"internalType": "uint256",
							"name": "",
							"type": "uint256"
						}
					],
					"stateMutability": "view",
					"type": "function"
				},
				{
					"inputs": [
						{
							"internalType": "address",
							"name": "to",
							"type": "address"
						},
						{
							"internalType": "uint256",
							"name": "amount",
							"type": "uint256"
						}
					],
					"name": "transfer",
					"outputs": [
						{
							"internalType": "bool",
							"name": "",
							"type": "bool"
						}
					],
					"stateMutability": "nonpayable",
					"type": "function"
				},
				{
					"inputs": [
						{
							"internalType": "address",
							"name": "from",
							"type": "address"
						},
						{
							"internalType": "address",
							"name": "to",
							"type": "address"
						},
						{
							"internalType": "uint256",
							"name": "amount",
							"type": "uint256"
						}
					],
					"name": "transferFrom",
					"outputs": [
						{
							"internalType": "bool",
							"name": "",
							"type": "bool"
						}
					],
					"stateMutability": "nonpayable",
					"type": "function"
				}
			],
			"devdoc": {
				"errors": {
					"ERC20InsufficientAllowance(address,uint256,uint256)": [
						{
							"details": "Indicates a failure with the `spender`’s `allowance`. Used in transfers.",
							"params": {
								"allowance": "Amount of tokens a `spender` is allowed to operate with.",
								"needed": "Minimum amount required to perform a transfer.",
								"spender": "Address that may be allowed to operate on tokens without being their owner."
							}
						}
					],
					"ERC20InsufficientBalance(address,uint256,uint256)": [
						{
							"details": "Indicates an error related to the current `balance` of a `sender`. Used in transfers.",
							"params": {
								"balance": "Current balance for the interacting account.",
								"needed": "Minimum amount required to perform a transfer.",
								"sender": "Address whose tokens are being transferred."
							}
						}
					],
					"ERC20InvalidApprover(address)": [
						{
							"details": "Indicates a failure with the `approver` of a token to be approved. Used in approvals.",
							"params": {
								"approver": "Address initiating an approval operation."
							}
						}
					],
					"ERC20InvalidReceiver(address)": [
						{
							"details": "Indicates a failure with the token `receiver`. Used in transfers.",
							"params": {
								"receiver": "Address to which tokens are being transferred."
							}
						}
					],
					"ERC20InvalidSender(address)": [
						{
							"details": "Indicates a failure with the token `sender`. Used in transfers.",
							"params": {
								"sender": "Address whose tokens are being transferred."
							}
						}
					],
					"ERC20InvalidSpender(address)": [
						{
							"details": "Indicates a failure with the `spender` to be approved. Used in approvals.",
							"params": {
								"spender": "Address that may be allowed to operate on tokens without being their owner."
							}
						}
					]
				},
				"events": {
					"Approval(address,address,uint256)": {
						"details": "Emitted when the allowance of a `spender` for an `owner` is set by a call to {approve}. `value` is the new allowance."
					},
					"Transfer(address,address,uint256)": {
						"details": "Emitted when `value` tokens are moved from one account (`from`) to another (`to`). Note that `value` may be zero."
					}
				},
				"kind": "dev",
				"methods": {
					"allowance(address,address)": {
						"details": "See {IERC20-allowance}."
					},
					"balanceOf(address)": {
						"details": "See {IERC20-balanceOf}."
					},
					"decimals()": {
						"details": "Returns the number of decimals used to get its user representation. For example, if `decimals` equals `2`, a balance of `505` tokens should be displayed to a user as `5.05` (`505 / 10 ** 2`). Tokens usually opt for a value of 18, imitating the relationship between Ether and Wei. This is the default value returned by this function, unless it's overridden. NOTE: This information is only used for _display_ purposes: it in no way affects any of the arithmetic of the contract, including {IERC20-balanceOf} and {IERC20-transfer}."
					},
					"name()": {
						"details": "Returns the name of the token."
					},
					"symbol()": {
						"details": "Returns the symbol of the token, usually a shorter version of the name."
					},
					"totalSupply()": {
						"details": "See {IERC20-totalSupply}."
					}
				},
				"version": 1
			},
			"evm": {
				"assembly": "    /* \"ERC20_flattened.sol\":22121:24163  contract CAMESENNIN is ERC20 {... */\n  mstore(0x40, 0x80)\n    /* \"ERC20_flattened.sol\":22233:22407  constructor(uint256 initialSupply) ERC20(\"CAMESENNIN\", \"CAM\") {... */\n  callvalue\n  dup1\n  iszero\n  tag_1\n  jumpi\n  0x00\n  dup1\n  revert\ntag_1:\n  pop\n  mload(0x40)\n  sub(codesize, bytecodeSize)\n  dup1\n  bytecodeSize\n  dup4\n  codecopy\n  dup2\n  dup2\n  add\n  0x40\n  mstore\n  dup2\n  add\n  swap1\n  tag_2\n  swap2\n  swap1\n  tag_3\n  jump\t// in\ntag_2:\n    /* \"ERC20_flattened.sol\":12789:12902  constructor(string memory name_, string memory symbol_) {... */\n  mload(0x40)\n  dup1\n  0x40\n  add\n  0x40\n  mstore\n  dup1\n  0x0a\n  dup2\n  mstore\n  0x20\n  add\n  0x43414d4553454e4e494e00000000000000000000000000000000000000000000\n  dup2\n  mstore\n  pop\n  mload(0x40)\n  dup1\n  0x40\n  add\n  0x40\n  mstore\n  dup1\n  0x03\n  dup2\n  mstore\n  0x20\n  add\n  0x43414d0000000000000000000000000000000000000000000000000000000000\n  dup2\n  mstore\n  pop\n    /* \"ERC20_flattened.sol\":12863:12868  name_ */\n  dup2\n    /* \"ERC20_flattened.sol\":12855:12860  _name */\n  0x03\n    /* \"ERC20_flattened.sol\":12855:12868  _name = name_ */\n  swap1\n  dup2\n  tag_7\n  swap2\n  swap1\n  tag_8\n  jump\t// in\ntag_7:\n  pop\n    /* \"ERC20_flattened.sol\":12888:12895  symbol_ */\n  dup1\n    /* \"ERC20_flattened.sol\":12878:12885  _symbol */\n  0x04\n    /* \"ERC20_flattened.sol\":12878:12895  _symbol = symbol_ */\n  swap1\n  dup2\n  tag_9\n  swap2\n  swap1\n  tag_8\n  jump\t// in\ntag_9:\n  pop\n    /* \"ERC20_flattened.sol\":12789:12902  constructor(string memory name_, string memory symbol_) {... */\n  pop\n  pop\n    /* \"ERC20_flattened.sol\":22305:22337  _mint(msg.sender, initialSupply) */\n  tag_11\n    /* \"ERC20_flattened.sol\":22311:22321  msg.sender */\n  caller\n    /* \"ERC20_flattened.sol\":22323:22336  initialSupply */\n  dup3\n    /* \"ERC20_flattened.sol\":22305:22310  _mint */\n  shl(0x20, tag_12)\n    /* \"ERC20_flattened.sol\":22305:22337  _mint(msg.sender, initialSupply) */\n  0x20\n  shr\n  jump\t// in\ntag_11:\n    /* \"ERC20_flattened.sol\":22233:22407  constructor(uint256 initialSupply) ERC20(\"CAMESENNIN\", \"CAM\") {... */\n  pop\n    /* \"ERC20_flattened.sol\":22121:24163  contract CAMESENNIN is ERC20 {... */\n  jump(tag_13)\n    /* \"ERC20_flattened.sol\":18614:18822  function _mint(address account, uint256 value) internal {... */\ntag_12:\n    /* \"ERC20_flattened.sol\":18703:18704  0 */\n  0x00\n    /* \"ERC20_flattened.sol\":18684:18705  account == address(0) */\n  0xffffffffffffffffffffffffffffffffffffffff\n  and\n    /* \"ERC20_flattened.sol\":18684:18691  account */\n  dup3\n    /* \"ERC20_flattened.sol\":18684:18705  account == address(0) */\n  0xffffffffffffffffffffffffffffffffffffffff\n  and\n  sub\n    /* \"ERC20_flattened.sol\":18680:18771  if (account == address(0)) {... */\n  tag_15\n  jumpi\n    /* \"ERC20_flattened.sol\":18757:18758  0 */\n  0x00\n    /* \"ERC20_flattened.sol\":18728:18760  ERC20InvalidReceiver(address(0)) */\n  mload(0x40)\n  0xec442f0500000000000000000000000000000000000000000000000000000000\n  dup2\n  mstore\n  0x04\n  add\n  tag_16\n  swap2\n  swap1\n  tag_17\n  jump\t// in\ntag_16:\n  mload(0x40)\n  dup1\n  swap2\n  sub\n  swap1\n  revert\n    /* \"ERC20_flattened.sol\":18680:18771  if (account == address(0)) {... */\ntag_15:\n    /* \"ERC20_flattened.sol\":18780:18815  _update(address(0), account, value) */\n  tag_18\n    /* \"ERC20_flattened.sol\":18796:18797  0 */\n  0x00\n    /* \"ERC20_flattened.sol\":18800:18807  account */\n  dup4\n    /* \"ERC20_flattened.sol\":18809:18814  value */\n  dup4\n    /* \"ERC20_flattened.sol\":18780:18787  _update */\n  shl(0x20, tag_19)\n    /* \"ERC20_flattened.sol\":18780:18815  _update(address(0), account, value) */\n  0x20\n  shr\n  jump\t// in\ntag_18:\n    /* \"ERC20_flattened.sol\":18614:18822  function _mint(address account, uint256 value) internal {... */\n  pop\n  pop\n  jump\t// out\n    /* \"ERC20_flattened.sol\":17164:18271  function _update(address from, address to, uint256 value) internal virtual {... */\ntag_19:\n    /* \"ERC20_flattened.sol\":17269:17270  0 */\n  0x00\n    /* \"ERC20_flattened.sol\":17253:17271  from == address(0) */\n  0xffffffffffffffffffffffffffffffffffffffff\n  and\n    /* \"ERC20_flattened.sol\":17253:17257  from */\n  dup4\n    /* \"ERC20_flattened.sol\":17253:17271  from == address(0) */\n  0xffffffffffffffffffffffffffffffffffffffff\n  and\n  sub\n    /* \"ERC20_flattened.sol\":17249:17789  if (from == address(0)) {... */\n  tag_21\n  jumpi\n    /* \"ERC20_flattened.sol\":17405:17410  value */\n  dup1\n    /* \"ERC20_flattened.sol\":17389:17401  _totalSupply */\n  0x02\n  0x00\n    /* \"ERC20_flattened.sol\":17389:17410  _totalSupply += value */\n  dup3\n  dup3\n  sload\n  tag_22\n  swap2\n  swap1\n  tag_23\n  jump\t// in\ntag_22:\n  swap3\n  pop\n  pop\n  dup2\n  swap1\n  sstore\n  pop\n    /* \"ERC20_flattened.sol\":17249:17789  if (from == address(0)) {... */\n  jump(tag_24)\ntag_21:\n    /* \"ERC20_flattened.sol\":17441:17460  uint256 fromBalance */\n  0x00\n    /* \"ERC20_flattened.sol\":17463:17472  _balances */\n  dup1\n    /* \"ERC20_flattened.sol\":17463:17478  _balances[from] */\n  0x00\n    /* \"ERC20_flattened.sol\":17473:17477  from */\n  dup6\n    /* \"ERC20_flattened.sol\":17463:17478  _balances[from] */\n  0xffffffffffffffffffffffffffffffffffffffff\n  and\n  0xffffffffffffffffffffffffffffffffffffffff\n  and\n  dup2\n  mstore\n  0x20\n  add\n  swap1\n  dup2\n  mstore\n  0x20\n  add\n  0x00\n  keccak256\n  sload\n    /* \"ERC20_flattened.sol\":17441:17478  uint256 fromBalance = _balances[from] */\n  swap1\n  pop\n    /* \"ERC20_flattened.sol\":17510:17515  value */\n  dup2\n    /* \"ERC20_flattened.sol\":17496:17507  fromBalance */\n  dup2\n    /* \"ERC20_flattened.sol\":17496:17515  fromBalance < value */\n  lt\n    /* \"ERC20_flattened.sol\":17492:17607  if (fromBalance < value) {... */\n  iszero\n  tag_25\n  jumpi\n    /* \"ERC20_flattened.sol\":17567:17571  from */\n  dup4\n    /* \"ERC20_flattened.sol\":17573:17584  fromBalance */\n  dup2\n    /* \"ERC20_flattened.sol\":17586:17591  value */\n  dup4\n    /* \"ERC20_flattened.sol\":17542:17592  ERC20InsufficientBalance(from, fromBalance, value) */\n  mload(0x40)\n  0xe450d38c00000000000000000000000000000000000000000000000000000000\n  dup2\n  mstore\n  0x04\n  add\n  tag_26\n  swap4\n  swap3\n  swap2\n  swap1\n  tag_27\n  jump\t// in\ntag_26:\n  mload(0x40)\n  dup1\n  swap2\n  sub\n  swap1\n  revert\n    /* \"ERC20_flattened.sol\":17492:17607  if (fromBalance < value) {... */\ntag_25:\n    /* \"ERC20_flattened.sol\":17759:17764  value */\n  dup2\n    /* \"ERC20_flattened.sol\":17745:17756  fromBalance */\n  dup2\n    /* \"ERC20_flattened.sol\":17745:17764  fromBalance - value */\n  sub\n    /* \"ERC20_flattened.sol\":17727:17736  _balances */\n  0x00\n    /* \"ERC20_flattened.sol\":17727:17742  _balances[from] */\n  dup1\n    /* \"ERC20_flattened.sol\":17737:17741  from */\n  dup7\n    /* \"ERC20_flattened.sol\":17727:17742  _balances[from] */\n  0xffffffffffffffffffffffffffffffffffffffff\n  and\n  0xffffffffffffffffffffffffffffffffffffffff\n  and\n  dup2\n  mstore\n  0x20\n  add\n  swap1\n  dup2\n  mstore\n  0x20\n  add\n  0x00\n  keccak256\n    /* \"ERC20_flattened.sol\":17727:17764  _balances[from] = fromBalance - value */\n  dup2\n  swap1\n  sstore\n  pop\n    /* \"ERC20_flattened.sol\":17427:17789  {... */\n  pop\n    /* \"ERC20_flattened.sol\":17249:17789  if (from == address(0)) {... */\ntag_24:\n    /* \"ERC20_flattened.sol\":17817:17818  0 */\n  0x00\n    /* \"ERC20_flattened.sol\":17803:17819  to == address(0) */\n  0xffffffffffffffffffffffffffffffffffffffff\n  and\n    /* \"ERC20_flattened.sol\":17803:17805  to */\n  dup3\n    /* \"ERC20_flattened.sol\":17803:17819  to == address(0) */\n  0xffffffffffffffffffffffffffffffffffffffff\n  and\n  sub\n    /* \"ERC20_flattened.sol\":17799:18224  if (to == address(0)) {... */\n  tag_28\n  jumpi\n    /* \"ERC20_flattened.sol\":17982:17987  value */\n  dup1\n    /* \"ERC20_flattened.sol\":17966:17978  _totalSupply */\n  0x02\n  0x00\n    /* \"ERC20_flattened.sol\":17966:17987  _totalSupply -= value */\n  dup3\n  dup3\n  sload\n  sub\n  swap3\n  pop\n  pop\n  dup2\n  swap1\n  sstore\n  pop\n    /* \"ERC20_flattened.sol\":17799:18224  if (to == address(0)) {... */\n  jump(tag_29)\ntag_28:\n    /* \"ERC20_flattened.sol\":18194:18199  value */\n  dup1\n    /* \"ERC20_flattened.sol\":18177:18186  _balances */\n  0x00\n    /* \"ERC20_flattened.sol\":18177:18190  _balances[to] */\n  dup1\n    /* \"ERC20_flattened.sol\":18187:18189  to */\n  dup5\n    /* \"ERC20_flattened.sol\":18177:18190  _balances[to] */\n  0xffffffffffffffffffffffffffffffffffffffff\n  and\n  0xffffffffffffffffffffffffffffffffffffffff\n  and\n  dup2\n  mstore\n  0x20\n  add\n  swap1\n  dup2\n  mstore\n  0x20\n  add\n  0x00\n  keccak256\n  0x00\n    /* \"ERC20_flattened.sol\":18177:18199  _balances[to] += value */\n  dup3\n  dup3\n  sload\n  add\n  swap3\n  pop\n  pop\n  dup2\n  swap1\n  sstore\n  pop\n    /* \"ERC20_flattened.sol\":17799:18224  if (to == address(0)) {... */\ntag_29:\n    /* \"ERC20_flattened.sol\":18254:18256  to */\n  dup2\n    /* \"ERC20_flattened.sol\":18239:18264  Transfer(from, to, value) */\n  0xffffffffffffffffffffffffffffffffffffffff\n  and\n    /* \"ERC20_flattened.sol\":18248:18252  from */\n  dup4\n    /* \"ERC20_flattened.sol\":18239:18264  Transfer(from, to, value) */\n  0xffffffffffffffffffffffffffffffffffffffff\n  and\n  0xddf252ad1be2c89b69c2b068fc378daa952ba7f163c4a11628f55a4df523b3ef\n    /* \"ERC20_flattened.sol\":18258:18263  value */\n  dup4\n    /* \"ERC20_flattened.sol\":18239:18264  Transfer(from, to, value) */\n  mload(0x40)\n  tag_30\n  swap2\n  swap1\n  tag_31\n  jump\t// in\ntag_30:\n  mload(0x40)\n  dup1\n  swap2\n  sub\n  swap1\n  log3\n    /* \"ERC20_flattened.sol\":17164:18271  function _update(address from, address to, uint256 value) internal virtual {... */\n  pop\n  pop\n  pop\n  jump\t// out\n    /* \"#utility.yul\":88:205   */\ntag_33:\n    /* \"#utility.yul\":197:198   */\n  0x00\n    /* \"#utility.yul\":194:195   */\n  dup1\n    /* \"#utility.yul\":187:199   */\n  revert\n    /* \"#utility.yul\":334:411   */\ntag_35:\n    /* \"#utility.yul\":371:378   */\n  0x00\n    /* \"#utility.yul\":400:405   */\n  dup2\n    /* \"#utility.yul\":389:405   */\n  swap1\n  pop\n    /* \"#utility.yul\":334:411   */\n  swap2\n  swap1\n  pop\n  jump\t// out\n    /* \"#utility.yul\":417:539   */\ntag_36:\n    /* \"#utility.yul\":490:514   */\n  tag_68\n    /* \"#utility.yul\":508:513   */\n  dup2\n    /* \"#utility.yul\":490:514   */\n  tag_35\n  jump\t// in\ntag_68:\n    /* \"#utility.yul\":483:488   */\n  dup2\n    /* \"#utility.yul\":480:515   */\n  eq\n    /* \"#utility.yul\":470:533   */\n  tag_69\n  jumpi\n    /* \"#utility.yul\":529:530   */\n  0x00\n    /* \"#utility.yul\":526:527   */\n  dup1\n    /* \"#utility.yul\":519:531   */\n  revert\n    /* \"#utility.yul\":470:533   */\ntag_69:\n    /* \"#utility.yul\":417:539   */\n  pop\n  jump\t// out\n    /* \"#utility.yul\":545:688   */\ntag_37:\n    /* \"#utility.yul\":602:607   */\n  0x00\n    /* \"#utility.yul\":633:639   */\n  dup2\n    /* \"#utility.yul\":627:640   */\n  mload\n    /* \"#utility.yul\":618:640   */\n  swap1\n  pop\n    /* \"#utility.yul\":649:682   */\n  tag_71\n    /* \"#utility.yul\":676:681   */\n  dup2\n    /* \"#utility.yul\":649:682   */\n  tag_36\n  jump\t// in\ntag_71:\n    /* \"#utility.yul\":545:688   */\n  swap3\n  swap2\n  pop\n  pop\n  jump\t// out\n    /* \"#utility.yul\":694:1045   */\ntag_3:\n    /* \"#utility.yul\":764:770   */\n  0x00\n    /* \"#utility.yul\":813:815   */\n  0x20\n    /* \"#utility.yul\":801:810   */\n  dup3\n    /* \"#utility.yul\":792:799   */\n  dup5\n    /* \"#utility.yul\":788:811   */\n  sub\n    /* \"#utility.yul\":784:816   */\n  slt\n    /* \"#utility.yul\":781:900   */\n  iszero\n  tag_73\n  jumpi\n    /* \"#utility.yul\":819:898   */\n  tag_74\n  tag_33\n  jump\t// in\ntag_74:\n    /* \"#utility.yul\":781:900   */\ntag_73:\n    /* \"#utility.yul\":939:940   */\n  0x00\n    /* \"#utility.yul\":964:1028   */\n  tag_75\n    /* \"#utility.yul\":1020:1027   */\n  dup5\n    /* \"#utility.yul\":1011:1017   */\n  dup3\n    /* \"#utility.yul\":1000:1009   */\n  dup6\n    /* \"#utility.yul\":996:1018   */\n  add\n    /* \"#utility.yul\":964:1028   */\n  tag_37\n  jump\t// in\ntag_75:\n    /* \"#utility.yul\":954:1028   */\n  swap2\n  pop\n    /* \"#utility.yul\":910:1038   */\n  pop\n    /* \"#utility.yul\":694:1045   */\n  swap3\n  swap2\n  pop\n  pop\n  jump\t// out\n    /* \"#utility.yul\":1051:1150   */\ntag_38:\n    /* \"#utility.yul\":1103:1109   */\n  0x00\n    /* \"#utility.yul\":1137:1142   */\n  dup2\n    /* \"#utility.yul\":1131:1143   */\n  mload\n    /* \"#utility.yul\":1121:1143   */\n  swap1\n  pop\n    /* \"#utility.yul\":1051:1150   */\n  swap2\n  swap1\n  pop\n  jump\t// out\n    /* \"#utility.yul\":1156:1336   */\ntag_39:\n    /* \"#utility.yul\":1204:1281   */\n  0x4e487b7100000000000000000000000000000000000000000000000000000000\n    /* \"#utility.yul\":1201:1202   */\n  0x00\n    /* \"#utility.yul\":1194:1282   */\n  mstore\n    /* \"#utility.yul\":1301:1305   */\n  0x41\n    /* \"#utility.yul\":1298:1299   */\n  0x04\n    /* \"#utility.yul\":1291:1306   */\n  mstore\n    /* \"#utility.yul\":1325:1329   */\n  0x24\n    /* \"#utility.yul\":1322:1323   */\n  0x00\n    /* \"#utility.yul\":1315:1330   */\n  revert\n    /* \"#utility.yul\":1342:1522   */\ntag_40:\n    /* \"#utility.yul\":1390:1467   */\n  0x4e487b7100000000000000000000000000000000000000000000000000000000\n    /* \"#utility.yul\":1387:1388   */\n  0x00\n    /* \"#utility.yul\":1380:1468   */\n  mstore\n    /* \"#utility.yul\":1487:1491   */\n  0x22\n    /* \"#utility.yul\":1484:1485   */\n  0x04\n    /* \"#utility.yul\":1477:1492   */\n  mstore\n    /* \"#utility.yul\":1511:1515   */\n  0x24\n    /* \"#utility.yul\":1508:1509   */\n  0x00\n    /* \"#utility.yul\":1501:1516   */\n  revert\n    /* \"#utility.yul\":1528:1848   */\ntag_41:\n    /* \"#utility.yul\":1572:1578   */\n  0x00\n    /* \"#utility.yul\":1609:1610   */\n  0x02\n    /* \"#utility.yul\":1603:1607   */\n  dup3\n    /* \"#utility.yul\":1599:1611   */\n  div\n    /* \"#utility.yul\":1589:1611   */\n  swap1\n  pop\n    /* \"#utility.yul\":1656:1657   */\n  0x01\n    /* \"#utility.yul\":1650:1654   */\n  dup3\n    /* \"#utility.yul\":1646:1658   */\n  and\n    /* \"#utility.yul\":1677:1695   */\n  dup1\n    /* \"#utility.yul\":1667:1748   */\n  tag_80\n  jumpi\n    /* \"#utility.yul\":1733:1737   */\n  0x7f\n    /* \"#utility.yul\":1725:1731   */\n  dup3\n    /* \"#utility.yul\":1721:1738   */\n  and\n    /* \"#utility.yul\":1711:1738   */\n  swap2\n  pop\n    /* \"#utility.yul\":1667:1748   */\ntag_80:\n    /* \"#utility.yul\":1795:1797   */\n  0x20\n    /* \"#utility.yul\":1787:1793   */\n  dup3\n    /* \"#utility.yul\":1784:1798   */\n  lt\n    /* \"#utility.yul\":1764:1782   */\n  dup2\n    /* \"#utility.yul\":1761:1799   */\n  sub\n    /* \"#utility.yul\":1758:1842   */\n  tag_81\n  jumpi\n    /* \"#utility.yul\":1814:1832   */\n  tag_82\n  tag_40\n  jump\t// in\ntag_82:\n    /* \"#utility.yul\":1758:1842   */\ntag_81:\n    /* \"#utility.yul\":1579:1848   */\n  pop\n    /* \"#utility.yul\":1528:1848   */\n  swap2\n  swap1\n  pop\n  jump\t// out\n    /* \"#utility.yul\":1854:1995   */\ntag_42:\n    /* \"#utility.yul\":1903:1907   */\n  0x00\n    /* \"#utility.yul\":1926:1929   */\n  dup2\n    /* \"#utility.yul\":1918:1929   */\n  swap1\n  pop\n    /* \"#utility.yul\":1949:1952   */\n  dup2\n    /* \"#utility.yul\":1946:1947   */\n  0x00\n    /* \"#utility.yul\":1939:1953   */\n  mstore\n    /* \"#utility.yul\":1983:1987   */\n  0x20\n    /* \"#utility.yul\":1980:1981   */\n  0x00\n    /* \"#utility.yul\":1970:1988   */\n  keccak256\n    /* \"#utility.yul\":1962:1988   */\n  swap1\n  pop\n    /* \"#utility.yul\":1854:1995   */\n  swap2\n  swap1\n  pop\n  jump\t// out\n    /* \"#utility.yul\":2001:2094   */\ntag_43:\n    /* \"#utility.yul\":2038:2044   */\n  0x00\n    /* \"#utility.yul\":2085:2087   */\n  0x20\n    /* \"#utility.yul\":2080:2082   */\n  0x1f\n    /* \"#utility.yul\":2073:2078   */\n  dup4\n    /* \"#utility.yul\":2069:2083   */\n  add\n    /* \"#utility.yul\":2065:2088   */\n  div\n    /* \"#utility.yul\":2055:2088   */\n  swap1\n  pop\n    /* \"#utility.yul\":2001:2094   */\n  swap2\n  swap1\n  pop\n  jump\t// out\n    /* \"#utility.yul\":2100:2207   */\ntag_44:\n    /* \"#utility.yul\":2144:2152   */\n  0x00\n    /* \"#utility.yul\":2194:2199   */\n  dup3\n    /* \"#utility.yul\":2188:2192   */\n  dup3\n    /* \"#utility.yul\":2184:2200   */\n  shl\n    /* \"#utility.yul\":2163:2200   */\n  swap1\n  pop\n    /* \"#utility.yul\":2100:2207   */\n  swap3\n  swap2\n  pop\n  pop\n  jump\t// out\n    /* \"#utility.yul\":2213:2606   */\ntag_45:\n    /* \"#utility.yul\":2282:2288   */\n  0x00\n    /* \"#utility.yul\":2332:2333   */\n  0x08\n    /* \"#utility.yul\":2320:2330   */\n  dup4\n    /* \"#utility.yul\":2316:2334   */\n  mul\n    /* \"#utility.yul\":2355:2452   */\n  tag_87\n    /* \"#utility.yul\":2385:2451   */\n  0xffffffffffffffffffffffffffffffffffffffffffffffffffffffffffffffff\n    /* \"#utility.yul\":2374:2383   */\n  dup3\n    /* \"#utility.yul\":2355:2452   */\n  tag_44\n  jump\t// in\ntag_87:\n    /* \"#utility.yul\":2473:2512   */\n  tag_88\n    /* \"#utility.yul\":2503:2511   */\n  dup7\n    /* \"#utility.yul\":2492:2501   */\n  dup4\n    /* \"#utility.yul\":2473:2512   */\n  tag_44\n  jump\t// in\ntag_88:\n    /* \"#utility.yul\":2461:2512   */\n  swap6\n  pop\n    /* \"#utility.yul\":2545:2549   */\n  dup1\n    /* \"#utility.yul\":2541:2550   */\n  not\n    /* \"#utility.yul\":2534:2539   */\n  dup5\n    /* \"#utility.yul\":2530:2551   */\n  and\n    /* \"#utility.yul\":2521:2551   */\n  swap4\n  pop\n    /* \"#utility.yul\":2594:2598   */\n  dup1\n    /* \"#utility.yul\":2584:2592   */\n  dup7\n    /* \"#utility.yul\":2580:2599   */\n  and\n    /* \"#utility.yul\":2573:2578   */\n  dup5\n    /* \"#utility.yul\":2570:2600   */\n  or\n    /* \"#utility.yul\":2560:2600   */\n  swap3\n  pop\n    /* \"#utility.yul\":2289:2606   */\n  pop\n  pop\n    /* \"#utility.yul\":2213:2606   */\n  swap4\n  swap3\n  pop\n  pop\n  pop\n  jump\t// out\n    /* \"#utility.yul\":2612:2672   */\ntag_46:\n    /* \"#utility.yul\":2640:2643   */\n  0x00\n    /* \"#utility.yul\":2661:2666   */\n  dup2\n    /* \"#utility.yul\":2654:2666   */\n  swap1\n  pop\n    /* \"#utility.yul\":2612:2672   */\n  swap2\n  swap1\n  pop\n  jump\t// out\n    /* \"#utility.yul\":2678:2820   */\ntag_47:\n    /* \"#utility.yul\":2728:2737   */\n  0x00\n    /* \"#utility.yul\":2761:2814   */\n  tag_91\n    /* \"#utility.yul\":2779:2813   */\n  tag_92\n    /* \"#utility.yul\":2788:2812   */\n  tag_93\n    /* \"#utility.yul\":2806:2811   */\n  dup5\n    /* \"#utility.yul\":2788:2812   */\n  tag_35\n  jump\t// in\ntag_93:\n    /* \"#utility.yul\":2779:2813   */\n  tag_46\n  jump\t// in\ntag_92:\n    /* \"#utility.yul\":2761:2814   */\n  tag_35\n  jump\t// in\ntag_91:\n    /* \"#utility.yul\":2748:2814   */\n  swap1\n  pop\n    /* \"#utility.yul\":2678:2820   */\n  swap2\n  swap1\n  pop\n  jump\t// out\n    /* \"#utility.yul\":2826:2901   */\ntag_48:\n    /* \"#utility.yul\":2869:2872   */\n  0x00\n    /* \"#utility.yul\":2890:2895   */\n  dup2\n    /* \"#utility.yul\":2883:2895   */\n  swap1\n  pop\n    /* \"#utility.yul\":2826:2901   */\n  swap2\n  swap1\n  pop\n  jump\t// out\n    /* \"#utility.yul\":2907:3176   */\ntag_49:\n    /* \"#utility.yul\":3017:3056   */\n  tag_96\n    /* \"#utility.yul\":3048:3055   */\n  dup4\n    /* \"#utility.yul\":3017:3056   */\n  tag_47\n  jump\t// in\ntag_96:\n    /* \"#utility.yul\":3078:3169   */\n  tag_97\n    /* \"#utility.yul\":3127:3168   */\n  tag_98\n    /* \"#utility.yul\":3151:3167   */\n  dup3\n    /* \"#utility.yul\":3127:3168   */\n  tag_48\n  jump\t// in\ntag_98:\n    /* \"#utility.yul\":3119:3125   */\n  dup5\n    /* \"#utility.yul\":3112:3116   */\n  dup5\n    /* \"#utility.yul\":3106:3117   */\n  sload\n    /* \"#utility.yul\":3078:3169   */\n  tag_45\n  jump\t// in\ntag_97:\n    /* \"#utility.yul\":3072:3076   */\n  dup3\n    /* \"#utility.yul\":3065:3170   */\n  sstore\n    /* \"#utility.yul\":2983:3176   */\n  pop\n    /* \"#utility.yul\":2907:3176   */\n  pop\n  pop\n  pop\n  jump\t// out\n    /* \"#utility.yul\":3182:3255   */\ntag_50:\n    /* \"#utility.yul\":3227:3230   */\n  0x00\n    /* \"#utility.yul\":3182:3255   */\n  swap1\n  jump\t// out\n    /* \"#utility.yul\":3261:3450   */\ntag_51:\n    /* \"#utility.yul\":3338:3370   */\n  tag_101\n  tag_50\n  jump\t// in\ntag_101:\n    /* \"#utility.yul\":3379:3444   */\n  tag_102\n    /* \"#utility.yul\":3437:3443   */\n  dup2\n    /* \"#utility.yul\":3429:3435   */\n  dup5\n    /* \"#utility.yul\":3423:3427   */\n  dup5\n    /* \"#utility.yul\":3379:3444   */\n  tag_49\n  jump\t// in\ntag_102:\n    /* \"#utility.yul\":3314:3450   */\n  pop\n    /* \"#utility.yul\":3261:3450   */\n  pop\n  pop\n  jump\t// out\n    /* \"#utility.yul\":3456:3642   */\ntag_52:\n    /* \"#utility.yul\":3516:3636   */\ntag_104:\n    /* \"#utility.yul\":3533:3536   */\n  dup2\n    /* \"#utility.yul\":3526:3531   */\n  dup2\n    /* \"#utility.yul\":3523:3537   */\n  lt\n    /* \"#utility.yul\":3516:3636   */\n  iszero\n  tag_106\n  jumpi\n    /* \"#utility.yul\":3587:3626   */\n  tag_107\n    /* \"#utility.yul\":3624:3625   */\n  0x00\n    /* \"#utility.yul\":3617:3622   */\n  dup3\n    /* \"#utility.yul\":3587:3626   */\n  tag_51\n  jump\t// in\ntag_107:\n    /* \"#utility.yul\":3560:3561   */\n  0x01\n    /* \"#utility.yul\":3553:3558   */\n  dup2\n    /* \"#utility.yul\":3549:3562   */\n  add\n    /* \"#utility.yul\":3540:3562   */\n  swap1\n  pop\n    /* \"#utility.yul\":3516:3636   */\n  jump(tag_104)\ntag_106:\n    /* \"#utility.yul\":3456:3642   */\n  pop\n  pop\n  jump\t// out\n    /* \"#utility.yul\":3648:4191   */\ntag_53:\n    /* \"#utility.yul\":3749:3751   */\n  0x1f\n    /* \"#utility.yul\":3744:3747   */\n  dup3\n    /* \"#utility.yul\":3741:3752   */\n  gt\n    /* \"#utility.yul\":3738:4184   */\n  iszero\n  tag_109\n  jumpi\n    /* \"#utility.yul\":3783:3821   */\n  tag_110\n    /* \"#utility.yul\":3815:3820   */\n  dup2\n    /* \"#utility.yul\":3783:3821   */\n  tag_42\n  jump\t// in\ntag_110:\n    /* \"#utility.yul\":3867:3896   */\n  tag_111\n    /* \"#utility.yul\":3885:3895   */\n  dup5\n    /* \"#utility.yul\":3867:3896   */\n  tag_43\n  jump\t// in\ntag_111:\n    /* \"#utility.yul\":3857:3865   */\n  dup2\n    /* \"#utility.yul\":3853:3897   */\n  add\n    /* \"#utility.yul\":4050:4052   */\n  0x20\n    /* \"#utility.yul\":4038:4048   */\n  dup6\n    /* \"#utility.yul\":4035:4053   */\n  lt\n    /* \"#utility.yul\":4032:4081   */\n  iszero\n  tag_112\n  jumpi\n    /* \"#utility.yul\":4071:4079   */\n  dup2\n    /* \"#utility.yul\":4056:4079   */\n  swap1\n  pop\n    /* \"#utility.yul\":4032:4081   */\ntag_112:\n    /* \"#utility.yul\":4094:4174   */\n  tag_113\n    /* \"#utility.yul\":4150:4172   */\n  tag_114\n    /* \"#utility.yul\":4168:4171   */\n  dup6\n    /* \"#utility.yul\":4150:4172   */\n  tag_43\n  jump\t// in\ntag_114:\n    /* \"#utility.yul\":4140:4148   */\n  dup4\n    /* \"#utility.yul\":4136:4173   */\n  add\n    /* \"#utility.yul\":4123:4134   */\n  dup3\n    /* \"#utility.yul\":4094:4174   */\n  tag_52\n  jump\t// in\ntag_113:\n    /* \"#utility.yul\":3753:4184   */\n  pop\n  pop\n    /* \"#utility.yul\":3738:4184   */\ntag_109:\n    /* \"#utility.yul\":3648:4191   */\n  pop\n  pop\n  pop\n  jump\t// out\n    /* \"#utility.yul\":4197:4314   */\ntag_54:\n    /* \"#utility.yul\":4251:4259   */\n  0x00\n    /* \"#utility.yul\":4301:4306   */\n  dup3\n    /* \"#utility.yul\":4295:4299   */\n  dup3\n    /* \"#utility.yul\":4291:4307   */\n  shr\n    /* \"#utility.yul\":4270:4307   */\n  swap1\n  pop\n    /* \"#utility.yul\":4197:4314   */\n  swap3\n  swap2\n  pop\n  pop\n  jump\t// out\n    /* \"#utility.yul\":4320:4489   */\ntag_55:\n    /* \"#utility.yul\":4364:4370   */\n  0x00\n    /* \"#utility.yul\":4397:4448   */\n  tag_117\n    /* \"#utility.yul\":4445:4446   */\n  0x00\n    /* \"#utility.yul\":4441:4447   */\n  not\n    /* \"#utility.yul\":4433:4438   */\n  dup5\n    /* \"#utility.yul\":4430:4431   */\n  0x08\n    /* \"#utility.yul\":4426:4439   */\n  mul\n    /* \"#utility.yul\":4397:4448   */\n  tag_54\n  jump\t// in\ntag_117:\n    /* \"#utility.yul\":4393:4449   */\n  not\n    /* \"#utility.yul\":4478:4482   */\n  dup1\n    /* \"#utility.yul\":4472:4476   */\n  dup4\n    /* \"#utility.yul\":4468:4483   */\n  and\n    /* \"#utility.yul\":4458:4483   */\n  swap2\n  pop\n    /* \"#utility.yul\":4371:4489   */\n  pop\n    /* \"#utility.yul\":4320:4489   */\n  swap3\n  swap2\n  pop\n  pop\n  jump\t// out\n    /* \"#utility.yul\":4494:4789   */\ntag_56:\n    /* \"#utility.yul\":4570:4574   */\n  0x00\n    /* \"#utility.yul\":4716:4745   */\n  tag_119\n    /* \"#utility.yul\":4741:4744   */\n  dup4\n    /* \"#utility.yul\":4735:4739   */\n  dup4\n    /* \"#utility.yul\":4716:4745   */\n  tag_55\n  jump\t// in\ntag_119:\n    /* \"#utility.yul\":4708:4745   */\n  swap2\n  pop\n    /* \"#utility.yul\":4778:4781   */\n  dup3\n    /* \"#utility.yul\":4775:4776   */\n  0x02\n    /* \"#utility.yul\":4771:4782   */\n  mul\n    /* \"#utility.yul\":4765:4769   */\n  dup3\n    /* \"#utility.yul\":4762:4783   */\n  or\n    /* \"#utility.yul\":4754:4783   */\n  swap1\n  pop\n    /* \"#utility.yul\":4494:4789   */\n  swap3\n  swap2\n  pop\n  pop\n  jump\t// out\n    /* \"#utility.yul\":4794:6189   */\ntag_8:\n    /* \"#utility.yul\":4911:4948   */\n  tag_121\n    /* \"#utility.yul\":4944:4947   */\n  dup3\n    /* \"#utility.yul\":4911:4948   */\n  tag_38\n  jump\t// in\ntag_121:\n    /* \"#utility.yul\":5013:5031   */\n  0xffffffffffffffff\n    /* \"#utility.yul\":5005:5011   */\n  dup2\n    /* \"#utility.yul\":5002:5032   */\n  gt\n    /* \"#utility.yul\":4999:5055   */\n  iszero\n  tag_122\n  jumpi\n    /* \"#utility.yul\":5035:5053   */\n  tag_123\n  tag_39\n  jump\t// in\ntag_123:\n    /* \"#utility.yul\":4999:5055   */\ntag_122:\n    /* \"#utility.yul\":5079:5117   */\n  tag_124\n    /* \"#utility.yul\":5111:5115   */\n  dup3\n    /* \"#utility.yul\":5105:5116   */\n  sload\n    /* \"#utility.yul\":5079:5117   */\n  tag_41\n  jump\t// in\ntag_124:\n    /* \"#utility.yul\":5164:5231   */\n  tag_125\n    /* \"#utility.yul\":5224:5230   */\n  dup3\n    /* \"#utility.yul\":5216:5222   */\n  dup3\n    /* \"#utility.yul\":5210:5214   */\n  dup6\n    /* \"#utility.yul\":5164:5231   */\n  tag_53\n  jump\t// in\ntag_125:\n    /* \"#utility.yul\":5258:5259   */\n  0x00\n    /* \"#utility.yul\":5282:5286   */\n  0x20\n    /* \"#utility.yul\":5269:5286   */\n  swap1\n  pop\n    /* \"#utility.yul\":5314:5316   */\n  0x1f\n    /* \"#utility.yul\":5306:5312   */\n  dup4\n    /* \"#utility.yul\":5303:5317   */\n  gt\n    /* \"#utility.yul\":5331:5332   */\n  0x01\n    /* \"#utility.yul\":5326:5944   */\n  dup2\n  eq\n  tag_127\n  jumpi\n    /* \"#utility.yul\":5988:5989   */\n  0x00\n    /* \"#utility.yul\":6005:6011   */\n  dup5\n    /* \"#utility.yul\":6002:6079   */\n  iszero\n  tag_128\n  jumpi\n    /* \"#utility.yul\":6054:6063   */\n  dup3\n    /* \"#utility.yul\":6049:6052   */\n  dup8\n    /* \"#utility.yul\":6045:6064   */\n  add\n    /* \"#utility.yul\":6039:6065   */\n  mload\n    /* \"#utility.yul\":6030:6065   */\n  swap1\n  pop\n    /* \"#utility.yul\":6002:6079   */\ntag_128:\n    /* \"#utility.yul\":6105:6172   */\n  tag_129\n    /* \"#utility.yul\":6165:6171   */\n  dup6\n    /* \"#utility.yul\":6158:6163   */\n  dup3\n    /* \"#utility.yul\":6105:6172   */\n  tag_56\n  jump\t// in\ntag_129:\n    /* \"#utility.yul\":6099:6103   */\n  dup7\n    /* \"#utility.yul\":6092:6173   */\n  sstore\n    /* \"#utility.yul\":5961:6183   */\n  pop\n    /* \"#utility.yul\":5296:6183   */\n  jump(tag_126)\n    /* \"#utility.yul\":5326:5944   */\ntag_127:\n    /* \"#utility.yul\":5378:5382   */\n  0x1f\n    /* \"#utility.yul\":5374:5383   */\n  not\n    /* \"#utility.yul\":5366:5372   */\n  dup5\n    /* \"#utility.yul\":5362:5384   */\n  and\n    /* \"#utility.yul\":5412:5449   */\n  tag_130\n    /* \"#utility.yul\":5444:5448   */\n  dup7\n    /* \"#utility.yul\":5412:5449   */\n  tag_42\n  jump\t// in\ntag_130:\n    /* \"#utility.yul\":5471:5472   */\n  0x00\n    /* \"#utility.yul\":5485:5693   */\ntag_131:\n    /* \"#utility.yul\":5499:5506   */\n  dup3\n    /* \"#utility.yul\":5496:5497   */\n  dup2\n    /* \"#utility.yul\":5493:5507   */\n  lt\n    /* \"#utility.yul\":5485:5693   */\n  iszero\n  tag_133\n  jumpi\n    /* \"#utility.yul\":5578:5587   */\n  dup5\n    /* \"#utility.yul\":5573:5576   */\n  dup10\n    /* \"#utility.yul\":5569:5588   */\n  add\n    /* \"#utility.yul\":5563:5589   */\n  mload\n    /* \"#utility.yul\":5555:5561   */\n  dup3\n    /* \"#utility.yul\":5548:5590   */\n  sstore\n    /* \"#utility.yul\":5629:5630   */\n  0x01\n    /* \"#utility.yul\":5621:5627   */\n  dup3\n    /* \"#utility.yul\":5617:5631   */\n  add\n    /* \"#utility.yul\":5607:5631   */\n  swap2\n  pop\n    /* \"#utility.yul\":5676:5678   */\n  0x20\n    /* \"#utility.yul\":5665:5674   */\n  dup6\n    /* \"#utility.yul\":5661:5679   */\n  add\n    /* \"#utility.yul\":5648:5679   */\n  swap5\n  pop\n    /* \"#utility.yul\":5522:5526   */\n  0x20\n    /* \"#utility.yul\":5519:5520   */\n  dup2\n    /* \"#utility.yul\":5515:5527   */\n  add\n    /* \"#utility.yul\":5510:5527   */\n  swap1\n  pop\n    /* \"#utility.yul\":5485:5693   */\n  jump(tag_131)\ntag_133:\n    /* \"#utility.yul\":5721:5727   */\n  dup7\n    /* \"#utility.yul\":5712:5719   */\n  dup4\n    /* \"#utility.yul\":5709:5728   */\n  lt\n    /* \"#utility.yul\":5706:5885   */\n  iszero\n  tag_134\n  jumpi\n    /* \"#utility.yul\":5779:5788   */\n  dup5\n    /* \"#utility.yul\":5774:5777   */\n  dup10\n    /* \"#utility.yul\":5770:5789   */\n  add\n    /* \"#utility.yul\":5764:5790   */\n  mload\n    /* \"#utility.yul\":5822:5870   */\n  tag_135\n    /* \"#utility.yul\":5864:5868   */\n  0x1f\n    /* \"#utility.yul\":5856:5862   */\n  dup10\n    /* \"#utility.yul\":5852:5869   */\n  and\n    /* \"#utility.yul\":5841:5850   */\n  dup3\n    /* \"#utility.yul\":5822:5870   */\n  tag_55\n  jump\t// in\ntag_135:\n    /* \"#utility.yul\":5814:5820   */\n  dup4\n    /* \"#utility.yul\":5807:5871   */\n  sstore\n    /* \"#utility.yul\":5729:5885   */\n  pop\n    /* \"#utility.yul\":5706:5885   */\ntag_134:\n    /* \"#utility.yul\":5931:5932   */\n  0x01\n    /* \"#utility.yul\":5927:5928   */\n  0x02\n    /* \"#utility.yul\":5919:5925   */\n  dup9\n    /* \"#utility.yul\":5915:5929   */\n  mul\n    /* \"#utility.yul\":5911:5933   */\n  add\n    /* \"#utility.yul\":5905:5909   */\n  dup9\n    /* \"#utility.yul\":5898:5934   */\n  sstore\n    /* \"#utility.yul\":5333:5944   */\n  pop\n  pop\n  pop\n    /* \"#utility.yul\":5296:6183   */\ntag_126:\n  pop\n    /* \"#utility.yul\":4886:6189   */\n  pop\n  pop\n  pop\n    /* \"#utility.yul\":4794:6189   */\n  pop\n  pop\n  jump\t// out\n    /* \"#utility.yul\":6195:6321   */\ntag_57:\n    /* \"#utility.yul\":6232:6239   */\n  0x00\n    /* \"#utility.yul\":6272:6314   */\n  0xffffffffffffffffffffffffffffffffffffffff\n    /* \"#utility.yul\":6265:6270   */\n  dup3\n    /* \"#utility.yul\":6261:6315   */\n  and\n    /* \"#utility.yul\":6250:6315   */\n  swap1\n  pop\n    /* \"#utility.yul\":6195:6321   */\n  swap2\n  swap1\n  pop\n  jump\t// out\n    /* \"#utility.yul\":6327:6423   */\ntag_58:\n    /* \"#utility.yul\":6364:6371   */\n  0x00\n    /* \"#utility.yul\":6393:6417   */\n  tag_138\n    /* \"#utility.yul\":6411:6416   */\n  dup3\n    /* \"#utility.yul\":6393:6417   */\n  tag_57\n  jump\t// in\ntag_138:\n    /* \"#utility.yul\":6382:6417   */\n  swap1\n  pop\n    /* \"#utility.yul\":6327:6423   */\n  swap2\n  swap1\n  pop\n  jump\t// out\n    /* \"#utility.yul\":6429:6547   */\ntag_59:\n    /* \"#utility.yul\":6516:6540   */\n  tag_140\n    /* \"#utility.yul\":6534:6539   */\n  dup2\n    /* \"#utility.yul\":6516:6540   */\n  tag_58\n  jump\t// in\ntag_140:\n    /* \"#utility.yul\":6511:6514   */\n  dup3\n    /* \"#utility.yul\":6504:6541   */\n  mstore\n    /* \"#utility.yul\":6429:6547   */\n  pop\n  pop\n  jump\t// out\n    /* \"#utility.yul\":6553:6775   */\ntag_17:\n    /* \"#utility.yul\":6646:6650   */\n  0x00\n    /* \"#utility.yul\":6684:6686   */\n  0x20\n    /* \"#utility.yul\":6673:6682   */\n  dup3\n    /* \"#utility.yul\":6669:6687   */\n  add\n    /* \"#utility.yul\":6661:6687   */\n  swap1\n  pop\n    /* \"#utility.yul\":6697:6768   */\n  tag_142\n    /* \"#utility.yul\":6765:6766   */\n  0x00\n    /* \"#utility.yul\":6754:6763   */\n  dup4\n    /* \"#utility.yul\":6750:6767   */\n  add\n    /* \"#utility.yul\":6741:6747   */\n  dup5\n    /* \"#utility.yul\":6697:6768   */\n  tag_59\n  jump\t// in\ntag_142:\n    /* \"#utility.yul\":6553:6775   */\n  swap3\n  swap2\n  pop\n  pop\n  jump\t// out\n    /* \"#utility.yul\":6781:6961   */\ntag_60:\n    /* \"#utility.yul\":6829:6906   */\n  0x4e487b7100000000000000000000000000000000000000000000000000000000\n    /* \"#utility.yul\":6826:6827   */\n  0x00\n    /* \"#utility.yul\":6819:6907   */\n  mstore\n    /* \"#utility.yul\":6926:6930   */\n  0x11\n    /* \"#utility.yul\":6923:6924   */\n  0x04\n    /* \"#utility.yul\":6916:6931   */\n  mstore\n    /* \"#utility.yul\":6950:6954   */\n  0x24\n    /* \"#utility.yul\":6947:6948   */\n  0x00\n    /* \"#utility.yul\":6940:6955   */\n  revert\n    /* \"#utility.yul\":6967:7158   */\ntag_23:\n    /* \"#utility.yul\":7007:7010   */\n  0x00\n    /* \"#utility.yul\":7026:7046   */\n  tag_145\n    /* \"#utility.yul\":7044:7045   */\n  dup3\n    /* \"#utility.yul\":7026:7046   */\n  tag_35\n  jump\t// in\ntag_145:\n    /* \"#utility.yul\":7021:7046   */\n  swap2\n  pop\n    /* \"#utility.yul\":7060:7080   */\n  tag_146\n    /* \"#utility.yul\":7078:7079   */\n  dup4\n    /* \"#utility.yul\":7060:7080   */\n  tag_35\n  jump\t// in\ntag_146:\n    /* \"#utility.yul\":7055:7080   */\n  swap3\n  pop\n    /* \"#utility.yul\":7103:7104   */\n  dup3\n    /* \"#utility.yul\":7100:7101   */\n  dup3\n    /* \"#utility.yul\":7096:7105   */\n  add\n    /* \"#utility.yul\":7089:7105   */\n  swap1\n  pop\n    /* \"#utility.yul\":7124:7127   */\n  dup1\n    /* \"#utility.yul\":7121:7122   */\n  dup3\n    /* \"#utility.yul\":7118:7128   */\n  gt\n    /* \"#utility.yul\":7115:7151   */\n  iszero\n  tag_147\n  jumpi\n    /* \"#utility.yul\":7131:7149   */\n  tag_148\n  tag_60\n  jump\t// in\ntag_148:\n    /* \"#utility.yul\":7115:7151   */\ntag_147:\n    /* \"#utility.yul\":6967:7158   */\n  swap3\n  swap2\n  pop\n  pop\n  jump\t// out\n    /* \"#utility.yul\":7164:7282   */\ntag_61:\n    /* \"#utility.yul\":7251:7275   */\n  tag_150\n    /* \"#utility.yul\":7269:7274   */\n  dup2\n    /* \"#utility.yul\":7251:7275   */\n  tag_35\n  jump\t// in\ntag_150:\n    /* \"#utility.yul\":7246:7249   */\n  dup3\n    /* \"#utility.yul\":7239:7276   */\n  mstore\n    /* \"#utility.yul\":7164:7282   */\n  pop\n  pop\n  jump\t// out\n    /* \"#utility.yul\":7288:7730   */\ntag_27:\n    /* \"#utility.yul\":7437:7441   */\n  0x00\n    /* \"#utility.yul\":7475:7477   */\n  0x60\n    /* \"#utility.yul\":7464:7473   */\n  dup3\n    /* \"#utility.yul\":7460:7478   */\n  add\n    /* \"#utility.yul\":7452:7478   */\n  swap1\n  pop\n    /* \"#utility.yul\":7488:7559   */\n  tag_152\n    /* \"#utility.yul\":7556:7557   */\n  0x00\n    /* \"#utility.yul\":7545:7554   */\n  dup4\n    /* \"#utility.yul\":7541:7558   */\n  add\n    /* \"#utility.yul\":7532:7538   */\n  dup7\n    /* \"#utility.yul\":7488:7559   */\n  tag_59\n  jump\t// in\ntag_152:\n    /* \"#utility.yul\":7569:7641   */\n  tag_153\n    /* \"#utility.yul\":7637:7639   */\n  0x20\n    /* \"#utility.yul\":7626:7635   */\n  dup4\n    /* \"#utility.yul\":7622:7640   */\n  add\n    /* \"#utility.yul\":7613:7619   */\n  dup6\n    /* \"#utility.yul\":7569:7641   */\n  tag_61\n  jump\t// in\ntag_153:\n    /* \"#utility.yul\":7651:7723   */\n  tag_154\n    /* \"#utility.yul\":7719:7721   */\n  0x40\n    /* \"#utility.yul\":7708:7717   */\n  dup4\n    /* \"#utility.yul\":7704:7722   */\n  add\n    /* \"#utility.yul\":7695:7701   */\n  dup5\n    /* \"#utility.yul\":7651:7723   */\n  tag_61\n  jump\t// in\ntag_154:\n    /* \"#utility.yul\":7288:7730   */\n  swap5\n  swap4\n  pop\n  pop\n  pop\n  pop\n  jump\t// out\n    /* \"#utility.yul\":7736:7958   */\ntag_31:\n    /* \"#utility.yul\":7829:7833   */\n  0x00\n    /* \"#utility.yul\":7867:7869   */\n  0x20\n    /* \"#utility.yul\":7856:7865   */\n  dup3\n    /* \"#utility.yul\":7852:7870   */\n  add\n    /* \"#utility.yul\":7844:7870   */\n  swap1\n  pop\n    /* \"#utility.yul\":7880:7951   */\n  tag_156\n    /* \"#utility.yul\":7948:7949   */\n  0x00\n    /* \"#utility.yul\":7937:7946   */\n  dup4\n    /* \"#utility.yul\":7933:7950   */\n  add\n    /* \"#utility.yul\":7924:7930   */\n  dup5\n    /* \"#utility.yul\":7880:7951   */\n  tag_61\n  jump\t// in\ntag_156:\n    /* \"#utility.yul\":7736:7958   */\n  swap3\n  swap2\n  pop\n  pop\n  jump\t// out\n    /* \"ERC20_flattened.sol\":22121:24163  contract CAMESENNIN is ERC20 {... */\ntag_13:\n  dataSize(sub_0)\n  dup1\n  dataOffset(sub_0)\n  0x00\n  codecopy\n  0x00\n  return\nstop\n\nsub_0: assembly {\n        /* \"ERC20_flattened.sol\":22121:24163  contract CAMESENNIN is ERC20 {... */\n      mstore(0x40, 0x80)\n      callvalue\n      dup1\n      iszero\n      tag_1\n      jumpi\n      0x00\n      dup1\n      revert\n    tag_1:\n      pop\n      jumpi(tag_2, lt(calldatasize, 0x04))\n      shr(0xe0, calldataload(0x00))\n      dup1\n      0x70a08231\n      gt\n      tag_15\n      jumpi\n      dup1\n      0x70a08231\n      eq\n      tag_9\n      jumpi\n      dup1\n      0x95d89b41\n      eq\n      tag_10\n      jumpi\n      dup1\n      0x9b96eece\n      eq\n      tag_11\n      jumpi\n      dup1\n      0x9dc29fac\n      eq\n      tag_12\n      jumpi\n      dup1\n      0xa9059cbb\n      eq\n      tag_13\n      jumpi\n      dup1\n      0xdd62ed3e\n      eq\n      tag_14\n      jumpi\n      jump(tag_2)\n    tag_15:\n      dup1\n      0x06fdde03\n      eq\n      tag_3\n      jumpi\n      dup1\n      0x095ea7b3\n      eq\n      tag_4\n      jumpi\n      dup1\n      0x18160ddd\n      eq\n      tag_5\n      jumpi\n      dup1\n      0x23b872dd\n      eq\n      tag_6\n      jumpi\n      dup1\n      0x313ce567\n      eq\n      tag_7\n      jumpi\n      dup1\n      0x40c10f19\n      eq\n      tag_8\n      jumpi\n    tag_2:\n      0x00\n      dup1\n      revert\n        /* \"ERC20_flattened.sol\":12967:13056  function name() public view virtual returns (string memory) {... */\n    tag_3:\n      tag_16\n      tag_17\n      jump\t// in\n    tag_16:\n      mload(0x40)\n      tag_18\n      swap2\n      swap1\n      tag_19\n      jump\t// in\n    tag_18:\n      mload(0x40)\n      dup1\n      swap2\n      sub\n      swap1\n      return\n        /* \"ERC20_flattened.sol\":23178:23389  function approve(address spender, uint256 amount) public override returns (bool) {... */\n    tag_4:\n      tag_20\n      0x04\n      dup1\n      calldatasize\n      sub\n      dup2\n      add\n      swap1\n      tag_21\n      swap2\n      swap1\n      tag_22\n      jump\t// in\n    tag_21:\n      tag_23\n      jump\t// in\n    tag_20:\n      mload(0x40)\n      tag_24\n      swap2\n      swap1\n      tag_25\n      jump\t// in\n    tag_24:\n      mload(0x40)\n      dup1\n      swap2\n      sub\n      swap1\n      return\n        /* \"ERC20_flattened.sol\":14037:14134  function totalSupply() public view virtual returns (uint256) {... */\n    tag_5:\n      tag_26\n      tag_27\n      jump\t// in\n    tag_26:\n      mload(0x40)\n      tag_28\n      swap2\n      swap1\n      tag_29\n      jump\t// in\n    tag_28:\n      mload(0x40)\n      dup1\n      swap2\n      sub\n      swap1\n      return\n        /* \"ERC20_flattened.sol\":23487:23944  function transferFrom(address from, address to, uint256 amount) public override returns (bool) {... */\n    tag_6:\n      tag_30\n      0x04\n      dup1\n      calldatasize\n      sub\n      dup2\n      add\n      swap1\n      tag_31\n      swap2\n      swap1\n      tag_32\n      jump\t// in\n    tag_31:\n      tag_33\n      jump\t// in\n    tag_30:\n      mload(0x40)\n      tag_34\n      swap2\n      swap1\n      tag_25\n      jump\t// in\n    tag_34:\n      mload(0x40)\n      dup1\n      swap2\n      sub\n      swap1\n      return\n        /* \"ERC20_flattened.sol\":13895:13977  function decimals() public view virtual returns (uint8) {... */\n    tag_7:\n      tag_35\n      tag_36\n      jump\t// in\n    tag_35:\n      mload(0x40)\n      tag_37\n      swap2\n      swap1\n      tag_38\n      jump\t// in\n    tag_37:\n      mload(0x40)\n      dup1\n      swap2\n      sub\n      swap1\n      return\n        /* \"ERC20_flattened.sol\":22472:22608  function mint(address to, uint256 amount) public {... */\n    tag_8:\n      tag_39\n      0x04\n      dup1\n      calldatasize\n      sub\n      dup2\n      add\n      swap1\n      tag_40\n      swap2\n      swap1\n      tag_22\n      jump\t// in\n    tag_40:\n      tag_41\n      jump\t// in\n    tag_39:\n      stop\n        /* \"ERC20_flattened.sol\":14192:14308  function balanceOf(address account) public view virtual returns (uint256) {... */\n    tag_9:\n      tag_42\n      0x04\n      dup1\n      calldatasize\n      sub\n      dup2\n      add\n      swap1\n      tag_43\n      swap2\n      swap1\n      tag_44\n      jump\t// in\n    tag_43:\n      tag_45\n      jump\t// in\n    tag_42:\n      mload(0x40)\n      tag_46\n      swap2\n      swap1\n      tag_29\n      jump\t// in\n    tag_46:\n      mload(0x40)\n      dup1\n      swap2\n      sub\n      swap1\n      return\n        /* \"ERC20_flattened.sol\":13169:13262  function symbol() public view virtual returns (string memory) {... */\n    tag_10:\n      tag_47\n      tag_48\n      jump\t// in\n    tag_47:\n      mload(0x40)\n      tag_49\n      swap2\n      swap1\n      tag_19\n      jump\t// in\n    tag_49:\n      mload(0x40)\n      dup1\n      swap2\n      sub\n      swap1\n      return\n        /* \"ERC20_flattened.sol\":24013:24161  function getBalanceOf(address account) public view returns (uint256) {... */\n    tag_11:\n      tag_50\n      0x04\n      dup1\n      calldatasize\n      sub\n      dup2\n      add\n      swap1\n      tag_51\n      swap2\n      swap1\n      tag_44\n      jump\t// in\n    tag_51:\n      tag_52\n      jump\t// in\n    tag_50:\n      mload(0x40)\n      tag_53\n      swap2\n      swap1\n      tag_29\n      jump\t// in\n    tag_53:\n      mload(0x40)\n      dup1\n      swap2\n      sub\n      swap1\n      return\n        /* \"ERC20_flattened.sol\":22671:22808  function burn(address from, uint256 amount) public {... */\n    tag_12:\n      tag_54\n      0x04\n      dup1\n      calldatasize\n      sub\n      dup2\n      add\n      swap1\n      tag_55\n      swap2\n      swap1\n      tag_22\n      jump\t// in\n    tag_55:\n      tag_56\n      jump\t// in\n    tag_54:\n      stop\n        /* \"ERC20_flattened.sol\":22877:23081  function transfer(address to, uint256 amount) public override returns (bool) {... */\n    tag_13:\n      tag_57\n      0x04\n      dup1\n      calldatasize\n      sub\n      dup2\n      add\n      swap1\n      tag_58\n      swap2\n      swap1\n      tag_22\n      jump\t// in\n    tag_58:\n      tag_59\n      jump\t// in\n    tag_57:\n      mload(0x40)\n      tag_60\n      swap2\n      swap1\n      tag_25\n      jump\t// in\n    tag_60:\n      mload(0x40)\n      dup1\n      swap2\n      sub\n      swap1\n      return\n        /* \"ERC20_flattened.sol\":14739:14879  function allowance(address owner, address spender) public view virtual returns (uint256) {... */\n    tag_14:\n      tag_61\n      0x04\n      dup1\n      calldatasize\n      sub\n      dup2\n      add\n      swap1\n      tag_62\n      swap2\n      swap1\n      tag_63\n      jump\t// in\n    tag_62:\n      tag_64\n      jump\t// in\n    tag_61:\n      mload(0x40)\n      tag_65\n      swap2\n      swap1\n      tag_29\n      jump\t// in\n    tag_65:\n      mload(0x40)\n      dup1\n      swap2\n      sub\n      swap1\n      return\n        /* \"ERC20_flattened.sol\":12967:13056  function name() public view virtual returns (string memory) {... */\n    tag_17:\n        /* \"ERC20_flattened.sol\":13012:13025  string memory */\n      0x60\n        /* \"ERC20_flattened.sol\":13044:13049  _name */\n      0x03\n        /* \"ERC20_flattened.sol\":13037:13049  return _name */\n      dup1\n      sload\n      tag_67\n      swap1\n      tag_68\n      jump\t// in\n    tag_67:\n      dup1\n      0x1f\n      add\n      0x20\n      dup1\n      swap2\n      div\n      mul\n      0x20\n      add\n      mload(0x40)\n      swap1\n      dup2\n      add\n      0x40\n      mstore\n      dup1\n      swap3\n      swap2\n      swap1\n      dup2\n      dup2\n      mstore\n      0x20\n      add\n      dup3\n      dup1\n      sload\n      tag_69\n      swap1\n      tag_68\n      jump\t// in\n    tag_69:\n      dup1\n      iszero\n      tag_70\n      jumpi\n      dup1\n      0x1f\n      lt\n      tag_71\n      jumpi\n      0x0100\n      dup1\n      dup4\n      sload\n      div\n      mul\n      dup4\n      mstore\n      swap2\n      0x20\n      add\n      swap2\n      jump(tag_70)\n    tag_71:\n      dup3\n      add\n      swap2\n      swap1\n      0x00\n      mstore\n      keccak256(0x00, 0x20)\n      swap1\n    tag_72:\n      dup2\n      sload\n      dup2\n      mstore\n      swap1\n      0x01\n      add\n      swap1\n      0x20\n      add\n      dup1\n      dup4\n      gt\n      tag_72\n      jumpi\n      dup3\n      swap1\n      sub\n      0x1f\n      and\n      dup3\n      add\n      swap2\n    tag_70:\n      pop\n      pop\n      pop\n      pop\n      pop\n      swap1\n      pop\n        /* \"ERC20_flattened.sol\":12967:13056  function name() public view virtual returns (string memory) {... */\n      swap1\n      jump\t// out\n        /* \"ERC20_flattened.sol\":23178:23389  function approve(address spender, uint256 amount) public override returns (bool) {... */\n    tag_23:\n        /* \"ERC20_flattened.sol\":23253:23257  bool */\n      0x00\n        /* \"ERC20_flattened.sol\":23269:23308  _approve(_msgSender(), spender, amount) */\n      tag_74\n        /* \"ERC20_flattened.sol\":23278:23290  _msgSender() */\n      tag_75\n        /* \"ERC20_flattened.sol\":23278:23288  _msgSender */\n      tag_76\n        /* \"ERC20_flattened.sol\":23278:23290  _msgSender() */\n      jump\t// in\n    tag_75:\n        /* \"ERC20_flattened.sol\":23292:23299  spender */\n      dup5\n        /* \"ERC20_flattened.sol\":23301:23307  amount */\n      dup5\n        /* \"ERC20_flattened.sol\":23269:23277  _approve */\n      tag_77\n        /* \"ERC20_flattened.sol\":23269:23308  _approve(_msgSender(), spender, amount) */\n      jump\t// in\n    tag_74:\n        /* \"ERC20_flattened.sol\":23360:23364  true */\n      0x01\n        /* \"ERC20_flattened.sol\":23353:23364  return true */\n      swap1\n      pop\n        /* \"ERC20_flattened.sol\":23178:23389  function approve(address spender, uint256 amount) public override returns (bool) {... */\n      swap3\n      swap2\n      pop\n      pop\n      jump\t// out\n        /* \"ERC20_flattened.sol\":14037:14134  function totalSupply() public view virtual returns (uint256) {... */\n    tag_27:\n        /* \"ERC20_flattened.sol\":14089:14096  uint256 */\n      0x00\n        /* \"ERC20_flattened.sol\":14115:14127  _totalSupply */\n      sload(0x02)\n        /* \"ERC20_flattened.sol\":14108:14127  return _totalSupply */\n      swap1\n      pop\n        /* \"ERC20_flattened.sol\":14037:14134  function totalSupply() public view virtual returns (uint256) {... */\n      swap1\n      jump\t// out\n        /* \"ERC20_flattened.sol\":23487:23944  function transferFrom(address from, address to, uint256 amount) public override returns (bool) {... */\n    tag_33:\n        /* \"ERC20_flattened.sol\":23576:23580  bool */\n      0x00\n        /* \"ERC20_flattened.sol\":23592:23619  _transfer(from, to, amount) */\n      tag_80\n        /* \"ERC20_flattened.sol\":23602:23606  from */\n      dup5\n        /* \"ERC20_flattened.sol\":23608:23610  to */\n      dup5\n        /* \"ERC20_flattened.sol\":23612:23618  amount */\n      dup5\n        /* \"ERC20_flattened.sol\":23592:23601  _transfer */\n      tag_81\n        /* \"ERC20_flattened.sol\":23592:23619  _transfer(from, to, amount) */\n      jump\t// in\n    tag_80:\n        /* \"ERC20_flattened.sol\":23668:23692  uint256 currentAllowance */\n      0x00\n        /* \"ERC20_flattened.sol\":23695:23724  allowance(from, _msgSender()) */\n      tag_82\n        /* \"ERC20_flattened.sol\":23705:23709  from */\n      dup6\n        /* \"ERC20_flattened.sol\":23711:23723  _msgSender() */\n      tag_83\n        /* \"ERC20_flattened.sol\":23711:23721  _msgSender */\n      tag_76\n        /* \"ERC20_flattened.sol\":23711:23723  _msgSender() */\n      jump\t// in\n    tag_83:\n        /* \"ERC20_flattened.sol\":23695:23704  allowance */\n      tag_64\n        /* \"ERC20_flattened.sol\":23695:23724  allowance(from, _msgSender()) */\n      jump\t// in\n    tag_82:\n        /* \"ERC20_flattened.sol\":23668:23724  uint256 currentAllowance = allowance(from, _msgSender()) */\n      swap1\n      pop\n        /* \"ERC20_flattened.sol\":23762:23768  amount */\n      dup3\n        /* \"ERC20_flattened.sol\":23742:23758  currentAllowance */\n      dup2\n        /* \"ERC20_flattened.sol\":23742:23768  currentAllowance >= amount */\n      lt\n      iszero\n        /* \"ERC20_flattened.sol\":23734:23813  require(currentAllowance >= amount, \"ERC20: transfer amount exceeds allowance\") */\n      tag_84\n      jumpi\n      mload(0x40)\n      0x08c379a000000000000000000000000000000000000000000000000000000000\n      dup2\n      mstore\n      0x04\n      add\n      tag_85\n      swap1\n      tag_86\n      jump\t// in\n    tag_85:\n      mload(0x40)\n      dup1\n      swap2\n      sub\n      swap1\n      revert\n    tag_84:\n        /* \"ERC20_flattened.sol\":23823:23878  _approve(from, _msgSender(), currentAllowance - amount) */\n      tag_87\n        /* \"ERC20_flattened.sol\":23832:23836  from */\n      dup6\n        /* \"ERC20_flattened.sol\":23838:23850  _msgSender() */\n      tag_88\n        /* \"ERC20_flattened.sol\":23838:23848  _msgSender */\n      tag_76\n        /* \"ERC20_flattened.sol\":23838:23850  _msgSender() */\n      jump\t// in\n    tag_88:\n        /* \"ERC20_flattened.sol\":23871:23877  amount */\n      dup6\n        /* \"ERC20_flattened.sol\":23852:23868  currentAllowance */\n      dup5\n        /* \"ERC20_flattened.sol\":23852:23877  currentAllowance - amount */\n      tag_89\n      swap2\n      swap1\n      tag_90\n      jump\t// in\n    tag_89:\n        /* \"ERC20_flattened.sol\":23823:23831  _approve */\n      tag_77\n        /* \"ERC20_flattened.sol\":23823:23878  _approve(from, _msgSender(), currentAllowance - amount) */\n      jump\t// in\n    tag_87:\n        /* \"ERC20_flattened.sol\":23915:23919  true */\n      0x01\n        /* \"ERC20_flattened.sol\":23908:23919  return true */\n      swap2\n      pop\n      pop\n        /* \"ERC20_flattened.sol\":23487:23944  function transferFrom(address from, address to, uint256 amount) public override returns (bool) {... */\n      swap4\n      swap3\n      pop\n      pop\n      pop\n      jump\t// out\n        /* \"ERC20_flattened.sol\":13895:13977  function decimals() public view virtual returns (uint8) {... */\n    tag_36:\n        /* \"ERC20_flattened.sol\":13944:13949  uint8 */\n      0x00\n        /* \"ERC20_flattened.sol\":13968:13970  18 */\n      0x12\n        /* \"ERC20_flattened.sol\":13961:13970  return 18 */\n      swap1\n      pop\n        /* \"ERC20_flattened.sol\":13895:13977  function decimals() public view virtual returns (uint8) {... */\n      swap1\n      jump\t// out\n        /* \"ERC20_flattened.sol\":22472:22608  function mint(address to, uint256 amount) public {... */\n    tag_41:\n        /* \"ERC20_flattened.sol\":22531:22548  _mint(to, amount) */\n      tag_93\n        /* \"ERC20_flattened.sol\":22537:22539  to */\n      dup3\n        /* \"ERC20_flattened.sol\":22541:22547  amount */\n      dup3\n        /* \"ERC20_flattened.sol\":22531:22536  _mint */\n      tag_94\n        /* \"ERC20_flattened.sol\":22531:22548  _mint(to, amount) */\n      jump\t// in\n    tag_93:\n        /* \"ERC20_flattened.sol\":22472:22608  function mint(address to, uint256 amount) public {... */\n      pop\n      pop\n      jump\t// out\n        /* \"ERC20_flattened.sol\":14192:14308  function balanceOf(address account) public view virtual returns (uint256) {... */\n    tag_45:\n        /* \"ERC20_flattened.sol\":14257:14264  uint256 */\n      0x00\n        /* \"ERC20_flattened.sol\":14283:14292  _balances */\n      dup1\n        /* \"ERC20_flattened.sol\":14283:14301  _balances[account] */\n      0x00\n        /* \"ERC20_flattened.sol\":14293:14300  account */\n      dup4\n        /* \"ERC20_flattened.sol\":14283:14301  _balances[account] */\n      0xffffffffffffffffffffffffffffffffffffffff\n      and\n      0xffffffffffffffffffffffffffffffffffffffff\n      and\n      dup2\n      mstore\n      0x20\n      add\n      swap1\n      dup2\n      mstore\n      0x20\n      add\n      0x00\n      keccak256\n      sload\n        /* \"ERC20_flattened.sol\":14276:14301  return _balances[account] */\n      swap1\n      pop\n        /* \"ERC20_flattened.sol\":14192:14308  function balanceOf(address account) public view virtual returns (uint256) {... */\n      swap2\n      swap1\n      pop\n      jump\t// out\n        /* \"ERC20_flattened.sol\":13169:13262  function symbol() public view virtual returns (string memory) {... */\n    tag_48:\n        /* \"ERC20_flattened.sol\":13216:13229  string memory */\n      0x60\n        /* \"ERC20_flattened.sol\":13248:13255  _symbol */\n      0x04\n        /* \"ERC20_flattened.sol\":13241:13255  return _symbol */\n      dup1\n      sload\n      tag_97\n      swap1\n      tag_68\n      jump\t// in\n    tag_97:\n      dup1\n      0x1f\n      add\n      0x20\n      dup1\n      swap2\n      div\n      mul\n      0x20\n      add\n      mload(0x40)\n      swap1\n      dup2\n      add\n      0x40\n      mstore\n      dup1\n      swap3\n      swap2\n      swap1\n      dup2\n      dup2\n      mstore\n      0x20\n      add\n      dup3\n      dup1\n      sload\n      tag_98\n      swap1\n      tag_68\n      jump\t// in\n    tag_98:\n      dup1\n      iszero\n      tag_99\n      jumpi\n      dup1\n      0x1f\n      lt\n      tag_100\n      jumpi\n      0x0100\n      dup1\n      dup4\n      sload\n      div\n      mul\n      dup4\n      mstore\n      swap2\n      0x20\n      add\n      swap2\n      jump(tag_99)\n    tag_100:\n      dup3\n      add\n      swap2\n      swap1\n      0x00\n      mstore\n      keccak256(0x00, 0x20)\n      swap1\n    tag_101:\n      dup2\n      sload\n      dup2\n      mstore\n      swap1\n      0x01\n      add\n      swap1\n      0x20\n      add\n      dup1\n      dup4\n      gt\n      tag_101\n      jumpi\n      dup3\n      swap1\n      sub\n      0x1f\n      and\n      dup3\n      add\n      swap2\n    tag_99:\n      pop\n      pop\n      pop\n      pop\n      pop\n      swap1\n      pop\n        /* \"ERC20_flattened.sol\":13169:13262  function symbol() public view virtual returns (string memory) {... */\n      swap1\n      jump\t// out\n        /* \"ERC20_flattened.sol\":24013:24161  function getBalanceOf(address account) public view returns (uint256) {... */\n    tag_52:\n        /* \"ERC20_flattened.sol\":24073:24080  uint256 */\n      0x00\n        /* \"ERC20_flattened.sol\":24099:24117  balanceOf(account) */\n      tag_103\n        /* \"ERC20_flattened.sol\":24109:24116  account */\n      dup3\n        /* \"ERC20_flattened.sol\":24099:24108  balanceOf */\n      tag_45\n        /* \"ERC20_flattened.sol\":24099:24117  balanceOf(account) */\n      jump\t// in\n    tag_103:\n        /* \"ERC20_flattened.sol\":24092:24117  return balanceOf(account) */\n      swap1\n      pop\n        /* \"ERC20_flattened.sol\":24013:24161  function getBalanceOf(address account) public view returns (uint256) {... */\n      swap2\n      swap1\n      pop\n      jump\t// out\n        /* \"ERC20_flattened.sol\":22671:22808  function burn(address from, uint256 amount) public {... */\n    tag_56:\n        /* \"ERC20_flattened.sol\":22732:22751  _burn(from, amount) */\n      tag_105\n        /* \"ERC20_flattened.sol\":22738:22742  from */\n      dup3\n        /* \"ERC20_flattened.sol\":22744:22750  amount */\n      dup3\n        /* \"ERC20_flattened.sol\":22732:22737  _burn */\n      tag_106\n        /* \"ERC20_flattened.sol\":22732:22751  _burn(from, amount) */\n      jump\t// in\n    tag_105:\n        /* \"ERC20_flattened.sol\":22671:22808  function burn(address from, uint256 amount) public {... */\n      pop\n      pop\n      jump\t// out\n        /* \"ERC20_flattened.sol\":22877:23081  function transfer(address to, uint256 amount) public override returns (bool) {... */\n    tag_59:\n        /* \"ERC20_flattened.sol\":22948:22952  bool */\n      0x00\n        /* \"ERC20_flattened.sol\":22964:22999  _transfer(_msgSender(), to, amount) */\n      tag_108\n        /* \"ERC20_flattened.sol\":22974:22986  _msgSender() */\n      tag_109\n        /* \"ERC20_flattened.sol\":22974:22984  _msgSender */\n      tag_76\n        /* \"ERC20_flattened.sol\":22974:22986  _msgSender() */\n      jump\t// in\n    tag_109:\n        /* \"ERC20_flattened.sol\":22988:22990  to */\n      dup5\n        /* \"ERC20_flattened.sol\":22992:22998  amount */\n      dup5\n        /* \"ERC20_flattened.sol\":22964:22973  _transfer */\n      tag_81\n        /* \"ERC20_flattened.sol\":22964:22999  _transfer(_msgSender(), to, amount) */\n      jump\t// in\n    tag_108:\n        /* \"ERC20_flattened.sol\":23052:23056  true */\n      0x01\n        /* \"ERC20_flattened.sol\":23045:23056  return true */\n      swap1\n      pop\n        /* \"ERC20_flattened.sol\":22877:23081  function transfer(address to, uint256 amount) public override returns (bool) {... */\n      swap3\n      swap2\n      pop\n      pop\n      jump\t// out\n        /* \"ERC20_flattened.sol\":14739:14879  function allowance(address owner, address spender) public view virtual returns (uint256) {... */\n    tag_64:\n        /* \"ERC20_flattened.sol\":14819:14826  uint256 */\n      0x00\n        /* \"ERC20_flattened.sol\":14845:14856  _allowances */\n      0x01\n        /* \"ERC20_flattened.sol\":14845:14863  _allowances[owner] */\n      0x00\n        /* \"ERC20_flattened.sol\":14857:14862  owner */\n      dup5\n        /* \"ERC20_flattened.sol\":14845:14863  _allowances[owner] */\n      0xffffffffffffffffffffffffffffffffffffffff\n      and\n      0xffffffffffffffffffffffffffffffffffffffff\n      and\n      dup2\n      mstore\n      0x20\n      add\n      swap1\n      dup2\n      mstore\n      0x20\n      add\n      0x00\n      keccak256\n        /* \"ERC20_flattened.sol\":14845:14872  _allowances[owner][spender] */\n      0x00\n        /* \"ERC20_flattened.sol\":14864:14871  spender */\n      dup4\n        /* \"ERC20_flattened.sol\":14845:14872  _allowances[owner][spender] */\n      0xffffffffffffffffffffffffffffffffffffffff\n      and\n      0xffffffffffffffffffffffffffffffffffffffff\n      and\n      dup2\n      mstore\n      0x20\n      add\n      swap1\n      dup2\n      mstore\n      0x20\n      add\n      0x00\n      keccak256\n      sload\n        /* \"ERC20_flattened.sol\":14838:14872  return _allowances[owner][spender] */\n      swap1\n      pop\n        /* \"ERC20_flattened.sol\":14739:14879  function allowance(address owner, address spender) public view virtual returns (uint256) {... */\n      swap3\n      swap2\n      pop\n      pop\n      jump\t// out\n        /* \"ERC20_flattened.sol\":4207:4303  function _msgSender() internal view virtual returns (address) {... */\n    tag_76:\n        /* \"ERC20_flattened.sol\":4260:4267  address */\n      0x00\n        /* \"ERC20_flattened.sol\":4286:4296  msg.sender */\n      caller\n        /* \"ERC20_flattened.sol\":4279:4296  return msg.sender */\n      swap1\n      pop\n        /* \"ERC20_flattened.sol\":4207:4303  function _msgSender() internal view virtual returns (address) {... */\n      swap1\n      jump\t// out\n        /* \"ERC20_flattened.sol\":19882:20010  function _approve(address owner, address spender, uint256 value) internal {... */\n    tag_77:\n        /* \"ERC20_flattened.sol\":19966:20003  _approve(owner, spender, value, true) */\n      tag_113\n        /* \"ERC20_flattened.sol\":19975:19980  owner */\n      dup4\n        /* \"ERC20_flattened.sol\":19982:19989  spender */\n      dup4\n        /* \"ERC20_flattened.sol\":19991:19996  value */\n      dup4\n        /* \"ERC20_flattened.sol\":19998:20002  true */\n      0x01\n        /* \"ERC20_flattened.sol\":19966:19974  _approve */\n      tag_114\n        /* \"ERC20_flattened.sol\":19966:20003  _approve(owner, spender, value, true) */\n      jump\t// in\n    tag_113:\n        /* \"ERC20_flattened.sol\":19882:20010  function _approve(address owner, address spender, uint256 value) internal {... */\n      pop\n      pop\n      pop\n      jump\t// out\n        /* \"ERC20_flattened.sol\":16549:16849  function _transfer(address from, address to, uint256 value) internal {... */\n    tag_81:\n        /* \"ERC20_flattened.sol\":16648:16649  0 */\n      0x00\n        /* \"ERC20_flattened.sol\":16632:16650  from == address(0) */\n      0xffffffffffffffffffffffffffffffffffffffff\n      and\n        /* \"ERC20_flattened.sol\":16632:16636  from */\n      dup4\n        /* \"ERC20_flattened.sol\":16632:16650  from == address(0) */\n      0xffffffffffffffffffffffffffffffffffffffff\n      and\n      sub\n        /* \"ERC20_flattened.sol\":16628:16714  if (from == address(0)) {... */\n      tag_116\n      jumpi\n        /* \"ERC20_flattened.sol\":16700:16701  0 */\n      0x00\n        /* \"ERC20_flattened.sol\":16673:16703  ERC20InvalidSender(address(0)) */\n      mload(0x40)\n      0x96c6fd1e00000000000000000000000000000000000000000000000000000000\n      dup2\n      mstore\n      0x04\n      add\n      tag_117\n      swap2\n      swap1\n      tag_118\n      jump\t// in\n    tag_117:\n      mload(0x40)\n      dup1\n      swap2\n      sub\n      swap1\n      revert\n        /* \"ERC20_flattened.sol\":16628:16714  if (from == address(0)) {... */\n    tag_116:\n        /* \"ERC20_flattened.sol\":16741:16742  0 */\n      0x00\n        /* \"ERC20_flattened.sol\":16727:16743  to == address(0) */\n      0xffffffffffffffffffffffffffffffffffffffff\n      and\n        /* \"ERC20_flattened.sol\":16727:16729  to */\n      dup3\n        /* \"ERC20_flattened.sol\":16727:16743  to == address(0) */\n      0xffffffffffffffffffffffffffffffffffffffff\n      and\n      sub\n        /* \"ERC20_flattened.sol\":16723:16809  if (to == address(0)) {... */\n      tag_119\n      jumpi\n        /* \"ERC20_flattened.sol\":16795:16796  0 */\n      0x00\n        /* \"ERC20_flattened.sol\":16766:16798  ERC20InvalidReceiver(address(0)) */\n      mload(0x40)\n      0xec442f0500000000000000000000000000000000000000000000000000000000\n      dup2\n      mstore\n      0x04\n      add\n      tag_120\n      swap2\n      swap1\n      tag_118\n      jump\t// in\n    tag_120:\n      mload(0x40)\n      dup1\n      swap2\n      sub\n      swap1\n      revert\n        /* \"ERC20_flattened.sol\":16723:16809  if (to == address(0)) {... */\n    tag_119:\n        /* \"ERC20_flattened.sol\":16818:16842  _update(from, to, value) */\n      tag_121\n        /* \"ERC20_flattened.sol\":16826:16830  from */\n      dup4\n        /* \"ERC20_flattened.sol\":16832:16834  to */\n      dup4\n        /* \"ERC20_flattened.sol\":16836:16841  value */\n      dup4\n        /* \"ERC20_flattened.sol\":16818:16825  _update */\n      tag_122\n        /* \"ERC20_flattened.sol\":16818:16842  _update(from, to, value) */\n      jump\t// in\n    tag_121:\n        /* \"ERC20_flattened.sol\":16549:16849  function _transfer(address from, address to, uint256 value) internal {... */\n      pop\n      pop\n      pop\n      jump\t// out\n        /* \"ERC20_flattened.sol\":18614:18822  function _mint(address account, uint256 value) internal {... */\n    tag_94:\n        /* \"ERC20_flattened.sol\":18703:18704  0 */\n      0x00\n        /* \"ERC20_flattened.sol\":18684:18705  account == address(0) */\n      0xffffffffffffffffffffffffffffffffffffffff\n      and\n        /* \"ERC20_flattened.sol\":18684:18691  account */\n      dup3\n        /* \"ERC20_flattened.sol\":18684:18705  account == address(0) */\n      0xffffffffffffffffffffffffffffffffffffffff\n      and\n      sub\n        /* \"ERC20_flattened.sol\":18680:18771  if (account == address(0)) {... */\n      tag_124\n      jumpi\n        /* \"ERC20_flattened.sol\":18757:18758  0 */\n      0x00\n        /* \"ERC20_flattened.sol\":18728:18760  ERC20InvalidReceiver(address(0)) */\n      mload(0x40)\n      0xec442f0500000000000000000000000000000000000000000000000000000000\n      dup2\n      mstore\n      0x04\n      add\n      tag_125\n      swap2\n      swap1\n      tag_118\n      jump\t// in\n    tag_125:\n      mload(0x40)\n      dup1\n      swap2\n      sub\n      swap1\n      revert\n        /* \"ERC20_flattened.sol\":18680:18771  if (account == address(0)) {... */\n    tag_124:\n        /* \"ERC20_flattened.sol\":18780:18815  _update(address(0), account, value) */\n      tag_126\n        /* \"ERC20_flattened.sol\":18796:18797  0 */\n      0x00\n        /* \"ERC20_flattened.sol\":18800:18807  account */\n      dup4\n        /* \"ERC20_flattened.sol\":18809:18814  value */\n      dup4\n        /* \"ERC20_flattened.sol\":18780:18787  _update */\n      tag_122\n        /* \"ERC20_flattened.sol\":18780:18815  _update(address(0), account, value) */\n      jump\t// in\n    tag_126:\n        /* \"ERC20_flattened.sol\":18614:18822  function _mint(address account, uint256 value) internal {... */\n      pop\n      pop\n      jump\t// out\n        /* \"ERC20_flattened.sol\":19140:19346  function _burn(address account, uint256 value) internal {... */\n    tag_106:\n        /* \"ERC20_flattened.sol\":19229:19230  0 */\n      0x00\n        /* \"ERC20_flattened.sol\":19210:19231  account == address(0) */\n      0xffffffffffffffffffffffffffffffffffffffff\n      and\n        /* \"ERC20_flattened.sol\":19210:19217  account */\n      dup3\n        /* \"ERC20_flattened.sol\":19210:19231  account == address(0) */\n      0xffffffffffffffffffffffffffffffffffffffff\n      and\n      sub\n        /* \"ERC20_flattened.sol\":19206:19295  if (account == address(0)) {... */\n      tag_128\n      jumpi\n        /* \"ERC20_flattened.sol\":19281:19282  0 */\n      0x00\n        /* \"ERC20_flattened.sol\":19254:19284  ERC20InvalidSender(address(0)) */\n      mload(0x40)\n      0x96c6fd1e00000000000000000000000000000000000000000000000000000000\n      dup2\n      mstore\n      0x04\n      add\n      tag_129\n      swap2\n      swap1\n      tag_118\n      jump\t// in\n    tag_129:\n      mload(0x40)\n      dup1\n      swap2\n      sub\n      swap1\n      revert\n        /* \"ERC20_flattened.sol\":19206:19295  if (account == address(0)) {... */\n    tag_128:\n        /* \"ERC20_flattened.sol\":19304:19339  _update(account, address(0), value) */\n      tag_130\n        /* \"ERC20_flattened.sol\":19312:19319  account */\n      dup3\n        /* \"ERC20_flattened.sol\":19329:19330  0 */\n      0x00\n        /* \"ERC20_flattened.sol\":19333:19338  value */\n      dup4\n        /* \"ERC20_flattened.sol\":19304:19311  _update */\n      tag_122\n        /* \"ERC20_flattened.sol\":19304:19339  _update(account, address(0), value) */\n      jump\t// in\n    tag_130:\n        /* \"ERC20_flattened.sol\":19140:19346  function _burn(address account, uint256 value) internal {... */\n      pop\n      pop\n      jump\t// out\n        /* \"ERC20_flattened.sol\":20842:21274  function _approve(address owner, address spender, uint256 value, bool emitEvent) internal virtual {... */\n    tag_114:\n        /* \"ERC20_flattened.sol\":20971:20972  0 */\n      0x00\n        /* \"ERC20_flattened.sol\":20954:20973  owner == address(0) */\n      0xffffffffffffffffffffffffffffffffffffffff\n      and\n        /* \"ERC20_flattened.sol\":20954:20959  owner */\n      dup5\n        /* \"ERC20_flattened.sol\":20954:20973  owner == address(0) */\n      0xffffffffffffffffffffffffffffffffffffffff\n      and\n      sub\n        /* \"ERC20_flattened.sol\":20950:21039  if (owner == address(0)) {... */\n      tag_132\n      jumpi\n        /* \"ERC20_flattened.sol\":21025:21026  0 */\n      0x00\n        /* \"ERC20_flattened.sol\":20996:21028  ERC20InvalidApprover(address(0)) */\n      mload(0x40)\n      0xe602df0500000000000000000000000000000000000000000000000000000000\n      dup2\n      mstore\n      0x04\n      add\n      tag_133\n      swap2\n      swap1\n      tag_118\n      jump\t// in\n    tag_133:\n      mload(0x40)\n      dup1\n      swap2\n      sub\n      swap1\n      revert\n        /* \"ERC20_flattened.sol\":20950:21039  if (owner == address(0)) {... */\n    tag_132:\n        /* \"ERC20_flattened.sol\":21071:21072  0 */\n      0x00\n        /* \"ERC20_flattened.sol\":21052:21073  spender == address(0) */\n      0xffffffffffffffffffffffffffffffffffffffff\n      and\n        /* \"ERC20_flattened.sol\":21052:21059  spender */\n      dup4\n        /* \"ERC20_flattened.sol\":21052:21073  spender == address(0) */\n      0xffffffffffffffffffffffffffffffffffffffff\n      and\n      sub\n        /* \"ERC20_flattened.sol\":21048:21138  if (spender == address(0)) {... */\n      tag_134\n      jumpi\n        /* \"ERC20_flattened.sol\":21124:21125  0 */\n      0x00\n        /* \"ERC20_flattened.sol\":21096:21127  ERC20InvalidSpender(address(0)) */\n      mload(0x40)\n      0x94280d6200000000000000000000000000000000000000000000000000000000\n      dup2\n      mstore\n      0x04\n      add\n      tag_135\n      swap2\n      swap1\n      tag_118\n      jump\t// in\n    tag_135:\n      mload(0x40)\n      dup1\n      swap2\n      sub\n      swap1\n      revert\n        /* \"ERC20_flattened.sol\":21048:21138  if (spender == address(0)) {... */\n    tag_134:\n        /* \"ERC20_flattened.sol\":21177:21182  value */\n      dup2\n        /* \"ERC20_flattened.sol\":21147:21158  _allowances */\n      0x01\n        /* \"ERC20_flattened.sol\":21147:21165  _allowances[owner] */\n      0x00\n        /* \"ERC20_flattened.sol\":21159:21164  owner */\n      dup7\n        /* \"ERC20_flattened.sol\":21147:21165  _allowances[owner] */\n      0xffffffffffffffffffffffffffffffffffffffff\n      and\n      0xffffffffffffffffffffffffffffffffffffffff\n      and\n      dup2\n      mstore\n      0x20\n      add\n      swap1\n      dup2\n      mstore\n      0x20\n      add\n      0x00\n      keccak256\n        /* \"ERC20_flattened.sol\":21147:21174  _allowances[owner][spender] */\n      0x00\n        /* \"ERC20_flattened.sol\":21166:21173  spender */\n      dup6\n        /* \"ERC20_flattened.sol\":21147:21174  _allowances[owner][spender] */\n      0xffffffffffffffffffffffffffffffffffffffff\n      and\n      0xffffffffffffffffffffffffffffffffffffffff\n      and\n      dup2\n      mstore\n      0x20\n      add\n      swap1\n      dup2\n      mstore\n      0x20\n      add\n      0x00\n      keccak256\n        /* \"ERC20_flattened.sol\":21147:21182  _allowances[owner][spender] = value */\n      dup2\n      swap1\n      sstore\n      pop\n        /* \"ERC20_flattened.sol\":21196:21205  emitEvent */\n      dup1\n        /* \"ERC20_flattened.sol\":21192:21268  if (emitEvent) {... */\n      iszero\n      tag_136\n      jumpi\n        /* \"ERC20_flattened.sol\":21242:21249  spender */\n      dup3\n        /* \"ERC20_flattened.sol\":21226:21257  Approval(owner, spender, value) */\n      0xffffffffffffffffffffffffffffffffffffffff\n      and\n        /* \"ERC20_flattened.sol\":21235:21240  owner */\n      dup5\n        /* \"ERC20_flattened.sol\":21226:21257  Approval(owner, spender, value) */\n      0xffffffffffffffffffffffffffffffffffffffff\n      and\n      0x8c5be1e5ebec7d5bd14f71427d1e84f3dd0314c0f7b2291e5b200ac8c7c3b925\n        /* \"ERC20_flattened.sol\":21251:21256  value */\n      dup5\n        /* \"ERC20_flattened.sol\":21226:21257  Approval(owner, spender, value) */\n      mload(0x40)\n      tag_137\n      swap2\n      swap1\n      tag_29\n      jump\t// in\n    tag_137:\n      mload(0x40)\n      dup1\n      swap2\n      sub\n      swap1\n      log3\n        /* \"ERC20_flattened.sol\":21192:21268  if (emitEvent) {... */\n    tag_136:\n        /* \"ERC20_flattened.sol\":20842:21274  function _approve(address owner, address spender, uint256 value, bool emitEvent) internal virtual {... */\n      pop\n      pop\n      pop\n      pop\n      jump\t// out\n        /* \"ERC20_flattened.sol\":17164:18271  function _update(address from, address to, uint256 value) internal virtual {... */\n    tag_122:\n        /* \"ERC20_flattened.sol\":17269:17270  0 */\n      0x00\n        /* \"ERC20_flattened.sol\":17253:17271  from == address(0) */\n      0xffffffffffffffffffffffffffffffffffffffff\n      and\n        /* \"ERC20_flattened.sol\":17253:17257  from */\n      dup4\n        /* \"ERC20_flattened.sol\":17253:17271  from == address(0) */\n      0xffffffffffffffffffffffffffffffffffffffff\n      and\n      sub\n        /* \"ERC20_flattened.sol\":17249:17789  if (from == address(0)) {... */\n      tag_139\n      jumpi\n        /* \"ERC20_flattened.sol\":17405:17410  value */\n      dup1\n        /* \"ERC20_flattened.sol\":17389:17401  _totalSupply */\n      0x02\n      0x00\n        /* \"ERC20_flattened.sol\":17389:17410  _totalSupply += value */\n      dup3\n      dup3\n      sload\n      tag_140\n      swap2\n      swap1\n      tag_141\n      jump\t// in\n    tag_140:\n      swap3\n      pop\n      pop\n      dup2\n      swap1\n      sstore\n      pop\n        /* \"ERC20_flattened.sol\":17249:17789  if (from == address(0)) {... */\n      jump(tag_142)\n    tag_139:\n        /* \"ERC20_flattened.sol\":17441:17460  uint256 fromBalance */\n      0x00\n        /* \"ERC20_flattened.sol\":17463:17472  _balances */\n      dup1\n        /* \"ERC20_flattened.sol\":17463:17478  _balances[from] */\n      0x00\n        /* \"ERC20_flattened.sol\":17473:17477  from */\n      dup6\n        /* \"ERC20_flattened.sol\":17463:17478  _balances[from] */\n      0xffffffffffffffffffffffffffffffffffffffff\n      and\n      0xffffffffffffffffffffffffffffffffffffffff\n      and\n      dup2\n      mstore\n      0x20\n      add\n      swap1\n      dup2\n      mstore\n      0x20\n      add\n      0x00\n      keccak256\n      sload\n        /* \"ERC20_flattened.sol\":17441:17478  uint256 fromBalance = _balances[from] */\n      swap1\n      pop\n        /* \"ERC20_flattened.sol\":17510:17515  value */\n      dup2\n        /* \"ERC20_flattened.sol\":17496:17507  fromBalance */\n      dup2\n        /* \"ERC20_flattened.sol\":17496:17515  fromBalance < value */\n      lt\n        /* \"ERC20_flattened.sol\":17492:17607  if (fromBalance < value) {... */\n      iszero\n      tag_143\n      jumpi\n        /* \"ERC20_flattened.sol\":17567:17571  from */\n      dup4\n        /* \"ERC20_flattened.sol\":17573:17584  fromBalance */\n      dup2\n        /* \"ERC20_flattened.sol\":17586:17591  value */\n      dup4\n        /* \"ERC20_flattened.sol\":17542:17592  ERC20InsufficientBalance(from, fromBalance, value) */\n      mload(0x40)\n      0xe450d38c00000000000000000000000000000000000000000000000000000000\n      dup2\n      mstore\n      0x04\n      add\n      tag_144\n      swap4\n      swap3\n      swap2\n      swap1\n      tag_145\n      jump\t// in\n    tag_144:\n      mload(0x40)\n      dup1\n      swap2\n      sub\n      swap1\n      revert\n        /* \"ERC20_flattened.sol\":17492:17607  if (fromBalance < value) {... */\n    tag_143:\n        /* \"ERC20_flattened.sol\":17759:17764  value */\n      dup2\n        /* \"ERC20_flattened.sol\":17745:17756  fromBalance */\n      dup2\n        /* \"ERC20_flattened.sol\":17745:17764  fromBalance - value */\n      sub\n        /* \"ERC20_flattened.sol\":17727:17736  _balances */\n      0x00\n        /* \"ERC20_flattened.sol\":17727:17742  _balances[from] */\n      dup1\n        /* \"ERC20_flattened.sol\":17737:17741  from */\n      dup7\n        /* \"ERC20_flattened.sol\":17727:17742  _balances[from] */\n      0xffffffffffffffffffffffffffffffffffffffff\n      and\n      0xffffffffffffffffffffffffffffffffffffffff\n      and\n      dup2\n      mstore\n      0x20\n      add\n      swap1\n      dup2\n      mstore\n      0x20\n      add\n      0x00\n      keccak256\n        /* \"ERC20_flattened.sol\":17727:17764  _balances[from] = fromBalance - value */\n      dup2\n      swap1\n      sstore\n      pop\n        /* \"ERC20_flattened.sol\":17427:17789  {... */\n      pop\n        /* \"ERC20_flattened.sol\":17249:17789  if (from == address(0)) {... */\n    tag_142:\n        /* \"ERC20_flattened.sol\":17817:17818  0 */\n      0x00\n        /* \"ERC20_flattened.sol\":17803:17819  to == address(0) */\n      0xffffffffffffffffffffffffffffffffffffffff\n      and\n        /* \"ERC20_flattened.sol\":17803:17805  to */\n      dup3\n        /* \"ERC20_flattened.sol\":17803:17819  to == address(0) */\n      0xffffffffffffffffffffffffffffffffffffffff\n      and\n      sub\n        /* \"ERC20_flattened.sol\":17799:18224  if (to == address(0)) {... */\n      tag_146\n      jumpi\n        /* \"ERC20_flattened.sol\":17982:17987  value */\n      dup1\n        /* \"ERC20_flattened.sol\":17966:17978  _totalSupply */\n      0x02\n      0x00\n        /* \"ERC20_flattened.sol\":17966:17987  _totalSupply -= value */\n      dup3\n      dup3\n      sload\n      sub\n      swap3\n      pop\n      pop\n      dup2\n      swap1\n      sstore\n      pop\n        /* \"ERC20_flattened.sol\":17799:18224  if (to == address(0)) {... */\n      jump(tag_147)\n    tag_146:\n        /* \"ERC20_flattened.sol\":18194:18199  value */\n      dup1\n        /* \"ERC20_flattened.sol\":18177:18186  _balances */\n      0x00\n        /* \"ERC20_flattened.sol\":18177:18190  _balances[to] */\n      dup1\n        /* \"ERC20_flattened.sol\":18187:18189  to */\n      dup5\n        /* \"ERC20_flattened.sol\":18177:18190  _balances[to] */\n      0xffffffffffffffffffffffffffffffffffffffff\n      and\n      0xffffffffffffffffffffffffffffffffffffffff\n      and\n      dup2\n      mstore\n      0x20\n      add\n      swap1\n      dup2\n      mstore\n      0x20\n      add\n      0x00\n      keccak256\n      0x00\n        /* \"ERC20_flattened.sol\":18177:18199  _balances[to] += value */\n      dup3\n      dup3\n      sload\n      add\n      swap3\n      pop\n      pop\n      dup2\n      swap1\n      sstore\n      pop\n        /* \"ERC20_flattened.sol\":17799:18224  if (to == address(0)) {... */\n    tag_147:\n        /* \"ERC20_flattened.sol\":18254:18256  to */\n      dup2\n        /* \"ERC20_flattened.sol\":18239:18264  Transfer(from, to, value) */\n      0xffffffffffffffffffffffffffffffffffffffff\n      and\n        /* \"ERC20_flattened.sol\":18248:18252  from */\n      dup4\n        /* \"ERC20_flattened.sol\":18239:18264  Transfer(from, to, value) */\n      0xffffffffffffffffffffffffffffffffffffffff\n      and\n      0xddf252ad1be2c89b69c2b068fc378daa952ba7f163c4a11628f55a4df523b3ef\n        /* \"ERC20_flattened.sol\":18258:18263  value */\n      dup4\n        /* \"ERC20_flattened.sol\":18239:18264  Transfer(from, to, value) */\n      mload(0x40)\n      tag_148\n      swap2\n      swap1\n      tag_29\n      jump\t// in\n    tag_148:\n      mload(0x40)\n      dup1\n      swap2\n      sub\n      swap1\n      log3\n        /* \"ERC20_flattened.sol\":17164:18271  function _update(address from, address to, uint256 value) internal virtual {... */\n      pop\n      pop\n      pop\n      jump\t// out\n        /* \"#utility.yul\":7:106   */\n    tag_149:\n        /* \"#utility.yul\":59:65   */\n      0x00\n        /* \"#utility.yul\":93:98   */\n      dup2\n        /* \"#utility.yul\":87:99   */\n      mload\n        /* \"#utility.yul\":77:99   */\n      swap1\n      pop\n        /* \"#utility.yul\":7:106   */\n      swap2\n      swap1\n      pop\n      jump\t// out\n        /* \"#utility.yul\":112:281   */\n    tag_150:\n        /* \"#utility.yul\":196:207   */\n      0x00\n        /* \"#utility.yul\":230:236   */\n      dup3\n        /* \"#utility.yul\":225:228   */\n      dup3\n        /* \"#utility.yul\":218:237   */\n      mstore\n        /* \"#utility.yul\":270:274   */\n      0x20\n        /* \"#utility.yul\":265:268   */\n      dup3\n        /* \"#utility.yul\":261:275   */\n      add\n        /* \"#utility.yul\":246:275   */\n      swap1\n      pop\n        /* \"#utility.yul\":112:281   */\n      swap3\n      swap2\n      pop\n      pop\n      jump\t// out\n        /* \"#utility.yul\":287:426   */\n    tag_151:\n        /* \"#utility.yul\":376:382   */\n      dup3\n        /* \"#utility.yul\":371:374   */\n      dup2\n        /* \"#utility.yul\":366:369   */\n      dup4\n        /* \"#utility.yul\":360:383   */\n      mcopy\n        /* \"#utility.yul\":417:418   */\n      0x00\n        /* \"#utility.yul\":408:414   */\n      dup4\n        /* \"#utility.yul\":403:406   */\n      dup4\n        /* \"#utility.yul\":399:415   */\n      add\n        /* \"#utility.yul\":392:419   */\n      mstore\n        /* \"#utility.yul\":287:426   */\n      pop\n      pop\n      pop\n      jump\t// out\n        /* \"#utility.yul\":432:534   */\n    tag_152:\n        /* \"#utility.yul\":473:479   */\n      0x00\n        /* \"#utility.yul\":524:526   */\n      0x1f\n        /* \"#utility.yul\":520:527   */\n      not\n        /* \"#utility.yul\":515:517   */\n      0x1f\n        /* \"#utility.yul\":508:513   */\n      dup4\n        /* \"#utility.yul\":504:518   */\n      add\n        /* \"#utility.yul\":500:528   */\n      and\n        /* \"#utility.yul\":490:528   */\n      swap1\n      pop\n        /* \"#utility.yul\":432:534   */\n      swap2\n      swap1\n      pop\n      jump\t// out\n        /* \"#utility.yul\":540:917   */\n    tag_153:\n        /* \"#utility.yul\":628:631   */\n      0x00\n        /* \"#utility.yul\":656:695   */\n      tag_180\n        /* \"#utility.yul\":689:694   */\n      dup3\n        /* \"#utility.yul\":656:695   */\n      tag_149\n      jump\t// in\n    tag_180:\n        /* \"#utility.yul\":711:782   */\n      tag_181\n        /* \"#utility.yul\":775:781   */\n      dup2\n        /* \"#utility.yul\":770:773   */\n      dup6\n        /* \"#utility.yul\":711:782   */\n      tag_150\n      jump\t// in\n    tag_181:\n        /* \"#utility.yul\":704:782   */\n      swap4\n      pop\n        /* \"#utility.yul\":791:856   */\n      tag_182\n        /* \"#utility.yul\":849:855   */\n      dup2\n        /* \"#utility.yul\":844:847   */\n      dup6\n        /* \"#utility.yul\":837:841   */\n      0x20\n        /* \"#utility.yul\":830:835   */\n      dup7\n        /* \"#utility.yul\":826:842   */\n      add\n        /* \"#utility.yul\":791:856   */\n      tag_151\n      jump\t// in\n    tag_182:\n        /* \"#utility.yul\":881:910   */\n      tag_183\n        /* \"#utility.yul\":903:909   */\n      dup2\n        /* \"#utility.yul\":881:910   */\n      tag_152\n      jump\t// in\n    tag_183:\n        /* \"#utility.yul\":876:879   */\n      dup5\n        /* \"#utility.yul\":872:911   */\n      add\n        /* \"#utility.yul\":865:911   */\n      swap2\n      pop\n        /* \"#utility.yul\":632:917   */\n      pop\n        /* \"#utility.yul\":540:917   */\n      swap3\n      swap2\n      pop\n      pop\n      jump\t// out\n        /* \"#utility.yul\":923:1236   */\n    tag_19:\n        /* \"#utility.yul\":1036:1040   */\n      0x00\n        /* \"#utility.yul\":1074:1076   */\n      0x20\n        /* \"#utility.yul\":1063:1072   */\n      dup3\n        /* \"#utility.yul\":1059:1077   */\n      add\n        /* \"#utility.yul\":1051:1077   */\n      swap1\n      pop\n        /* \"#utility.yul\":1123:1132   */\n      dup2\n        /* \"#utility.yul\":1117:1121   */\n      dup2\n        /* \"#utility.yul\":1113:1133   */\n      sub\n        /* \"#utility.yul\":1109:1110   */\n      0x00\n        /* \"#utility.yul\":1098:1107   */\n      dup4\n        /* \"#utility.yul\":1094:1111   */\n      add\n        /* \"#utility.yul\":1087:1134   */\n      mstore\n        /* \"#utility.yul\":1151:1229   */\n      tag_185\n        /* \"#utility.yul\":1224:1228   */\n      dup2\n        /* \"#utility.yul\":1215:1221   */\n      dup5\n        /* \"#utility.yul\":1151:1229   */\n      tag_153\n      jump\t// in\n    tag_185:\n        /* \"#utility.yul\":1143:1229   */\n      swap1\n      pop\n        /* \"#utility.yul\":923:1236   */\n      swap3\n      swap2\n      pop\n      pop\n      jump\t// out\n        /* \"#utility.yul\":1323:1440   */\n    tag_155:\n        /* \"#utility.yul\":1432:1433   */\n      0x00\n        /* \"#utility.yul\":1429:1430   */\n      dup1\n        /* \"#utility.yul\":1422:1434   */\n      revert\n        /* \"#utility.yul\":1569:1695   */\n    tag_157:\n        /* \"#utility.yul\":1606:1613   */\n      0x00\n        /* \"#utility.yul\":1646:1688   */\n      0xffffffffffffffffffffffffffffffffffffffff\n        /* \"#utility.yul\":1639:1644   */\n      dup3\n        /* \"#utility.yul\":1635:1689   */\n      and\n        /* \"#utility.yul\":1624:1689   */\n      swap1\n      pop\n        /* \"#utility.yul\":1569:1695   */\n      swap2\n      swap1\n      pop\n      jump\t// out\n        /* \"#utility.yul\":1701:1797   */\n    tag_158:\n        /* \"#utility.yul\":1738:1745   */\n      0x00\n        /* \"#utility.yul\":1767:1791   */\n      tag_191\n        /* \"#utility.yul\":1785:1790   */\n      dup3\n        /* \"#utility.yul\":1767:1791   */\n      tag_157\n      jump\t// in\n    tag_191:\n        /* \"#utility.yul\":1756:1791   */\n      swap1\n      pop\n        /* \"#utility.yul\":1701:1797   */\n      swap2\n      swap1\n      pop\n      jump\t// out\n        /* \"#utility.yul\":1803:1925   */\n    tag_159:\n        /* \"#utility.yul\":1876:1900   */\n      tag_193\n        /* \"#utility.yul\":1894:1899   */\n      dup2\n        /* \"#utility.yul\":1876:1900   */\n      tag_158\n      jump\t// in\n    tag_193:\n        /* \"#utility.yul\":1869:1874   */\n      dup2\n        /* \"#utility.yul\":1866:1901   */\n      eq\n        /* \"#utility.yul\":1856:1919   */\n      tag_194\n      jumpi\n        /* \"#utility.yul\":1915:1916   */\n      0x00\n        /* \"#utility.yul\":1912:1913   */\n      dup1\n        /* \"#utility.yul\":1905:1917   */\n      revert\n        /* \"#utility.yul\":1856:1919   */\n    tag_194:\n        /* \"#utility.yul\":1803:1925   */\n      pop\n      jump\t// out\n        /* \"#utility.yul\":1931:2070   */\n    tag_160:\n        /* \"#utility.yul\":1977:1982   */\n      0x00\n        /* \"#utility.yul\":2015:2021   */\n      dup2\n        /* \"#utility.yul\":2002:2022   */\n      calldataload\n        /* \"#utility.yul\":1993:2022   */\n      swap1\n      pop\n        /* \"#utility.yul\":2031:2064   */\n      tag_196\n        /* \"#utility.yul\":2058:2063   */\n      dup2\n        /* \"#utility.yul\":2031:2064   */\n      tag_159\n      jump\t// in\n    tag_196:\n        /* \"#utility.yul\":1931:2070   */\n      swap3\n      swap2\n      pop\n      pop\n      jump\t// out\n        /* \"#utility.yul\":2076:2153   */\n    tag_161:\n        /* \"#utility.yul\":2113:2120   */\n      0x00\n        /* \"#utility.yul\":2142:2147   */\n      dup2\n        /* \"#utility.yul\":2131:2147   */\n      swap1\n      pop\n        /* \"#utility.yul\":2076:2153   */\n      swap2\n      swap1\n      pop\n      jump\t// out\n        /* \"#utility.yul\":2159:2281   */\n    tag_162:\n        /* \"#utility.yul\":2232:2256   */\n      tag_199\n        /* \"#utility.yul\":2250:2255   */\n      dup2\n        /* \"#utility.yul\":2232:2256   */\n      tag_161\n      jump\t// in\n    tag_199:\n        /* \"#utility.yul\":2225:2230   */\n      dup2\n        /* \"#utility.yul\":2222:2257   */\n      eq\n        /* \"#utility.yul\":2212:2275   */\n      tag_200\n      jumpi\n        /* \"#utility.yul\":2271:2272   */\n      0x00\n        /* \"#utility.yul\":2268:2269   */\n      dup1\n        /* \"#utility.yul\":2261:2273   */\n      revert\n        /* \"#utility.yul\":2212:2275   */\n    tag_200:\n        /* \"#utility.yul\":2159:2281   */\n      pop\n      jump\t// out\n        /* \"#utility.yul\":2287:2426   */\n    tag_163:\n        /* \"#utility.yul\":2333:2338   */\n      0x00\n        /* \"#utility.yul\":2371:2377   */\n      dup2\n        /* \"#utility.yul\":2358:2378   */\n      calldataload\n        /* \"#utility.yul\":2349:2378   */\n      swap1\n      pop\n        /* \"#utility.yul\":2387:2420   */\n      tag_202\n        /* \"#utility.yul\":2414:2419   */\n      dup2\n        /* \"#utility.yul\":2387:2420   */\n      tag_162\n      jump\t// in\n    tag_202:\n        /* \"#utility.yul\":2287:2426   */\n      swap3\n      swap2\n      pop\n      pop\n      jump\t// out\n        /* \"#utility.yul\":2432:2906   */\n    tag_22:\n        /* \"#utility.yul\":2500:2506   */\n      0x00\n        /* \"#utility.yul\":2508:2514   */\n      dup1\n        /* \"#utility.yul\":2557:2559   */\n      0x40\n        /* \"#utility.yul\":2545:2554   */\n      dup4\n        /* \"#utility.yul\":2536:2543   */\n      dup6\n        /* \"#utility.yul\":2532:2555   */\n      sub\n        /* \"#utility.yul\":2528:2560   */\n      slt\n        /* \"#utility.yul\":2525:2644   */\n      iszero\n      tag_204\n      jumpi\n        /* \"#utility.yul\":2563:2642   */\n      tag_205\n      tag_155\n      jump\t// in\n    tag_205:\n        /* \"#utility.yul\":2525:2644   */\n    tag_204:\n        /* \"#utility.yul\":2683:2684   */\n      0x00\n        /* \"#utility.yul\":2708:2761   */\n      tag_206\n        /* \"#utility.yul\":2753:2760   */\n      dup6\n        /* \"#utility.yul\":2744:2750   */\n      dup3\n        /* \"#utility.yul\":2733:2742   */\n      dup7\n        /* \"#utility.yul\":2729:2751   */\n      add\n        /* \"#utility.yul\":2708:2761   */\n      tag_160\n      jump\t// in\n    tag_206:\n        /* \"#utility.yul\":2698:2761   */\n      swap3\n      pop\n        /* \"#utility.yul\":2654:2771   */\n      pop\n        /* \"#utility.yul\":2810:2812   */\n      0x20\n        /* \"#utility.yul\":2836:2889   */\n      tag_207\n        /* \"#utility.yul\":2881:2888   */\n      dup6\n        /* \"#utility.yul\":2872:2878   */\n      dup3\n        /* \"#utility.yul\":2861:2870   */\n      dup7\n        /* \"#utility.yul\":2857:2879   */\n      add\n        /* \"#utility.yul\":2836:2889   */\n      tag_163\n      jump\t// in\n    tag_207:\n        /* \"#utility.yul\":2826:2889   */\n      swap2\n      pop\n        /* \"#utility.yul\":2781:2899   */\n      pop\n        /* \"#utility.yul\":2432:2906   */\n      swap3\n      pop\n      swap3\n      swap1\n      pop\n      jump\t// out\n        /* \"#utility.yul\":2912:3002   */\n    tag_164:\n        /* \"#utility.yul\":2946:2953   */\n      0x00\n        /* \"#utility.yul\":2989:2994   */\n      dup2\n        /* \"#utility.yul\":2982:2995   */\n      iszero\n        /* \"#utility.yul\":2975:2996   */\n      iszero\n        /* \"#utility.yul\":2964:2996   */\n      swap1\n      pop\n        /* \"#utility.yul\":2912:3002   */\n      swap2\n      swap1\n      pop\n      jump\t// out\n        /* \"#utility.yul\":3008:3117   */\n    tag_165:\n        /* \"#utility.yul\":3089:3110   */\n      tag_210\n        /* \"#utility.yul\":3104:3109   */\n      dup2\n        /* \"#utility.yul\":3089:3110   */\n      tag_164\n      jump\t// in\n    tag_210:\n        /* \"#utility.yul\":3084:3087   */\n      dup3\n        /* \"#utility.yul\":3077:3111   */\n      mstore\n        /* \"#utility.yul\":3008:3117   */\n      pop\n      pop\n      jump\t// out\n        /* \"#utility.yul\":3123:3333   */\n    tag_25:\n        /* \"#utility.yul\":3210:3214   */\n      0x00\n        /* \"#utility.yul\":3248:3250   */\n      0x20\n        /* \"#utility.yul\":3237:3246   */\n      dup3\n        /* \"#utility.yul\":3233:3251   */\n      add\n        /* \"#utility.yul\":3225:3251   */\n      swap1\n      pop\n        /* \"#utility.yul\":3261:3326   */\n      tag_212\n        /* \"#utility.yul\":3323:3324   */\n      0x00\n        /* \"#utility.yul\":3312:3321   */\n      dup4\n        /* \"#utility.yul\":3308:3325   */\n      add\n        /* \"#utility.yul\":3299:3305   */\n      dup5\n        /* \"#utility.yul\":3261:3326   */\n      tag_165\n      jump\t// in\n    tag_212:\n        /* \"#utility.yul\":3123:3333   */\n      swap3\n      swap2\n      pop\n      pop\n      jump\t// out\n        /* \"#utility.yul\":3339:3457   */\n    tag_166:\n        /* \"#utility.yul\":3426:3450   */\n      tag_214\n        /* \"#utility.yul\":3444:3449   */\n      dup2\n        /* \"#utility.yul\":3426:3450   */\n      tag_161\n      jump\t// in\n    tag_214:\n        /* \"#utility.yul\":3421:3424   */\n      dup3\n        /* \"#utility.yul\":3414:3451   */\n      mstore\n        /* \"#utility.yul\":3339:3457   */\n      pop\n      pop\n      jump\t// out\n        /* \"#utility.yul\":3463:3685   */\n    tag_29:\n        /* \"#utility.yul\":3556:3560   */\n      0x00\n        /* \"#utility.yul\":3594:3596   */\n      0x20\n        /* \"#utility.yul\":3583:3592   */\n      dup3\n        /* \"#utility.yul\":3579:3597   */\n      add\n        /* \"#utility.yul\":3571:3597   */\n      swap1\n      pop\n        /* \"#utility.yul\":3607:3678   */\n      tag_216\n        /* \"#utility.yul\":3675:3676   */\n      0x00\n        /* \"#utility.yul\":3664:3673   */\n      dup4\n        /* \"#utility.yul\":3660:3677   */\n      add\n        /* \"#utility.yul\":3651:3657   */\n      dup5\n        /* \"#utility.yul\":3607:3678   */\n      tag_166\n      jump\t// in\n    tag_216:\n        /* \"#utility.yul\":3463:3685   */\n      swap3\n      swap2\n      pop\n      pop\n      jump\t// out\n        /* \"#utility.yul\":3691:4310   */\n    tag_32:\n        /* \"#utility.yul\":3768:3774   */\n      0x00\n        /* \"#utility.yul\":3776:3782   */\n      dup1\n        /* \"#utility.yul\":3784:3790   */\n      0x00\n        /* \"#utility.yul\":3833:3835   */\n      0x60\n        /* \"#utility.yul\":3821:3830   */\n      dup5\n        /* \"#utility.yul\":3812:3819   */\n      dup7\n        /* \"#utility.yul\":3808:3831   */\n      sub\n        /* \"#utility.yul\":3804:3836   */\n      slt\n        /* \"#utility.yul\":3801:3920   */\n      iszero\n      tag_218\n      jumpi\n        /* \"#utility.yul\":3839:3918   */\n      tag_219\n      tag_155\n      jump\t// in\n    tag_219:\n        /* \"#utility.yul\":3801:3920   */\n    tag_218:\n        /* \"#utility.yul\":3959:3960   */\n      0x00\n        /* \"#utility.yul\":3984:4037   */\n      tag_220\n        /* \"#utility.yul\":4029:4036   */\n      dup7\n        /* \"#utility.yul\":4020:4026   */\n      dup3\n        /* \"#utility.yul\":4009:4018   */\n      dup8\n        /* \"#utility.yul\":4005:4027   */\n      add\n        /* \"#utility.yul\":3984:4037   */\n      tag_160\n      jump\t// in\n    tag_220:\n        /* \"#utility.yul\":3974:4037   */\n      swap4\n      pop\n        /* \"#utility.yul\":3930:4047   */\n      pop\n        /* \"#utility.yul\":4086:4088   */\n      0x20\n        /* \"#utility.yul\":4112:4165   */\n      tag_221\n        /* \"#utility.yul\":4157:4164   */\n      dup7\n        /* \"#utility.yul\":4148:4154   */\n      dup3\n        /* \"#utility.yul\":4137:4146   */\n      dup8\n        /* \"#utility.yul\":4133:4155   */\n      add\n        /* \"#utility.yul\":4112:4165   */\n      tag_160\n      jump\t// in\n    tag_221:\n        /* \"#utility.yul\":4102:4165   */\n      swap3\n      pop\n        /* \"#utility.yul\":4057:4175   */\n      pop\n        /* \"#utility.yul\":4214:4216   */\n      0x40\n        /* \"#utility.yul\":4240:4293   */\n      tag_222\n        /* \"#utility.yul\":4285:4292   */\n      dup7\n        /* \"#utility.yul\":4276:4282   */\n      dup3\n        /* \"#utility.yul\":4265:4274   */\n      dup8\n        /* \"#utility.yul\":4261:4283   */\n      add\n        /* \"#utility.yul\":4240:4293   */\n      tag_163\n      jump\t// in\n    tag_222:\n        /* \"#utility.yul\":4230:4293   */\n      swap2\n      pop\n        /* \"#utility.yul\":4185:4303   */\n      pop\n        /* \"#utility.yul\":3691:4310   */\n      swap3\n      pop\n      swap3\n      pop\n      swap3\n      jump\t// out\n        /* \"#utility.yul\":4316:4402   */\n    tag_167:\n        /* \"#utility.yul\":4351:4358   */\n      0x00\n        /* \"#utility.yul\":4391:4395   */\n      0xff\n        /* \"#utility.yul\":4384:4389   */\n      dup3\n        /* \"#utility.yul\":4380:4396   */\n      and\n        /* \"#utility.yul\":4369:4396   */\n      swap1\n      pop\n        /* \"#utility.yul\":4316:4402   */\n      swap2\n      swap1\n      pop\n      jump\t// out\n        /* \"#utility.yul\":4408:4520   */\n    tag_168:\n        /* \"#utility.yul\":4491:4513   */\n      tag_225\n        /* \"#utility.yul\":4507:4512   */\n      dup2\n        /* \"#utility.yul\":4491:4513   */\n      tag_167\n      jump\t// in\n    tag_225:\n        /* \"#utility.yul\":4486:4489   */\n      dup3\n        /* \"#utility.yul\":4479:4514   */\n      mstore\n        /* \"#utility.yul\":4408:4520   */\n      pop\n      pop\n      jump\t// out\n        /* \"#utility.yul\":4526:4740   */\n    tag_38:\n        /* \"#utility.yul\":4615:4619   */\n      0x00\n        /* \"#utility.yul\":4653:4655   */\n      0x20\n        /* \"#utility.yul\":4642:4651   */\n      dup3\n        /* \"#utility.yul\":4638:4656   */\n      add\n        /* \"#utility.yul\":4630:4656   */\n      swap1\n      pop\n        /* \"#utility.yul\":4666:4733   */\n      tag_227\n        /* \"#utility.yul\":4730:4731   */\n      0x00\n        /* \"#utility.yul\":4719:4728   */\n      dup4\n        /* \"#utility.yul\":4715:4732   */\n      add\n        /* \"#utility.yul\":4706:4712   */\n      dup5\n        /* \"#utility.yul\":4666:4733   */\n      tag_168\n      jump\t// in\n    tag_227:\n        /* \"#utility.yul\":4526:4740   */\n      swap3\n      swap2\n      pop\n      pop\n      jump\t// out\n        /* \"#utility.yul\":4746:5075   */\n    tag_44:\n        /* \"#utility.yul\":4805:4811   */\n      0x00\n        /* \"#utility.yul\":4854:4856   */\n      0x20\n        /* \"#utility.yul\":4842:4851   */\n      dup3\n        /* \"#utility.yul\":4833:4840   */\n      dup5\n        /* \"#utility.yul\":4829:4852   */\n      sub\n        /* \"#utility.yul\":4825:4857   */\n      slt\n        /* \"#utility.yul\":4822:4941   */\n      iszero\n      tag_229\n      jumpi\n        /* \"#utility.yul\":4860:4939   */\n      tag_230\n      tag_155\n      jump\t// in\n    tag_230:\n        /* \"#utility.yul\":4822:4941   */\n    tag_229:\n        /* \"#utility.yul\":4980:4981   */\n      0x00\n        /* \"#utility.yul\":5005:5058   */\n      tag_231\n        /* \"#utility.yul\":5050:5057   */\n      dup5\n        /* \"#utility.yul\":5041:5047   */\n      dup3\n        /* \"#utility.yul\":5030:5039   */\n      dup6\n        /* \"#utility.yul\":5026:5048   */\n      add\n        /* \"#utility.yul\":5005:5058   */\n      tag_160\n      jump\t// in\n    tag_231:\n        /* \"#utility.yul\":4995:5058   */\n      swap2\n      pop\n        /* \"#utility.yul\":4951:5068   */\n      pop\n        /* \"#utility.yul\":4746:5075   */\n      swap3\n      swap2\n      pop\n      pop\n      jump\t// out\n        /* \"#utility.yul\":5081:5555   */\n    tag_63:\n        /* \"#utility.yul\":5149:5155   */\n      0x00\n        /* \"#utility.yul\":5157:5163   */\n      dup1\n        /* \"#utility.yul\":5206:5208   */\n      0x40\n        /* \"#utility.yul\":5194:5203   */\n      dup4\n        /* \"#utility.yul\":5185:5192   */\n      dup6\n        /* \"#utility.yul\":5181:5204   */\n      sub\n        /* \"#utility.yul\":5177:5209   */\n      slt\n        /* \"#utility.yul\":5174:5293   */\n      iszero\n      tag_233\n      jumpi\n        /* \"#utility.yul\":5212:5291   */\n      tag_234\n      tag_155\n      jump\t// in\n    tag_234:\n        /* \"#utility.yul\":5174:5293   */\n    tag_233:\n        /* \"#utility.yul\":5332:5333   */\n      0x00\n        /* \"#utility.yul\":5357:5410   */\n      tag_235\n        /* \"#utility.yul\":5402:5409   */\n      dup6\n        /* \"#utility.yul\":5393:5399   */\n      dup3\n        /* \"#utility.yul\":5382:5391   */\n      dup7\n        /* \"#utility.yul\":5378:5400   */\n      add\n        /* \"#utility.yul\":5357:5410   */\n      tag_160\n      jump\t// in\n    tag_235:\n        /* \"#utility.yul\":5347:5410   */\n      swap3\n      pop\n        /* \"#utility.yul\":5303:5420   */\n      pop\n        /* \"#utility.yul\":5459:5461   */\n      0x20\n        /* \"#utility.yul\":5485:5538   */\n      tag_236\n        /* \"#utility.yul\":5530:5537   */\n      dup6\n        /* \"#utility.yul\":5521:5527   */\n      dup3\n        /* \"#utility.yul\":5510:5519   */\n      dup7\n        /* \"#utility.yul\":5506:5528   */\n      add\n        /* \"#utility.yul\":5485:5538   */\n      tag_160\n      jump\t// in\n    tag_236:\n        /* \"#utility.yul\":5475:5538   */\n      swap2\n      pop\n        /* \"#utility.yul\":5430:5548   */\n      pop\n        /* \"#utility.yul\":5081:5555   */\n      swap3\n      pop\n      swap3\n      swap1\n      pop\n      jump\t// out\n        /* \"#utility.yul\":5561:5741   */\n    tag_169:\n        /* \"#utility.yul\":5609:5686   */\n      0x4e487b7100000000000000000000000000000000000000000000000000000000\n        /* \"#utility.yul\":5606:5607   */\n      0x00\n        /* \"#utility.yul\":5599:5687   */\n      mstore\n        /* \"#utility.yul\":5706:5710   */\n      0x22\n        /* \"#utility.yul\":5703:5704   */\n      0x04\n        /* \"#utility.yul\":5696:5711   */\n      mstore\n        /* \"#utility.yul\":5730:5734   */\n      0x24\n        /* \"#utility.yul\":5727:5728   */\n      0x00\n        /* \"#utility.yul\":5720:5735   */\n      revert\n        /* \"#utility.yul\":5747:6067   */\n    tag_68:\n        /* \"#utility.yul\":5791:5797   */\n      0x00\n        /* \"#utility.yul\":5828:5829   */\n      0x02\n        /* \"#utility.yul\":5822:5826   */\n      dup3\n        /* \"#utility.yul\":5818:5830   */\n      div\n        /* \"#utility.yul\":5808:5830   */\n      swap1\n      pop\n        /* \"#utility.yul\":5875:5876   */\n      0x01\n        /* \"#utility.yul\":5869:5873   */\n      dup3\n        /* \"#utility.yul\":5865:5877   */\n      and\n        /* \"#utility.yul\":5896:5914   */\n      dup1\n        /* \"#utility.yul\":5886:5967   */\n      tag_239\n      jumpi\n        /* \"#utility.yul\":5952:5956   */\n      0x7f\n        /* \"#utility.yul\":5944:5950   */\n      dup3\n        /* \"#utility.yul\":5940:5957   */\n      and\n        /* \"#utility.yul\":5930:5957   */\n      swap2\n      pop\n        /* \"#utility.yul\":5886:5967   */\n    tag_239:\n        /* \"#utility.yul\":6014:6016   */\n      0x20\n        /* \"#utility.yul\":6006:6012   */\n      dup3\n        /* \"#utility.yul\":6003:6017   */\n      lt\n        /* \"#utility.yul\":5983:6001   */\n      dup2\n        /* \"#utility.yul\":5980:6018   */\n      sub\n        /* \"#utility.yul\":5977:6061   */\n      tag_240\n      jumpi\n        /* \"#utility.yul\":6033:6051   */\n      tag_241\n      tag_169\n      jump\t// in\n    tag_241:\n        /* \"#utility.yul\":5977:6061   */\n    tag_240:\n        /* \"#utility.yul\":5798:6067   */\n      pop\n        /* \"#utility.yul\":5747:6067   */\n      swap2\n      swap1\n      pop\n      jump\t// out\n        /* \"#utility.yul\":6073:6300   */\n    tag_170:\n        /* \"#utility.yul\":6213:6247   */\n      0x45524332303a207472616e7366657220616d6f756e7420657863656564732061\n        /* \"#utility.yul\":6209:6210   */\n      0x00\n        /* \"#utility.yul\":6201:6207   */\n      dup3\n        /* \"#utility.yul\":6197:6211   */\n      add\n        /* \"#utility.yul\":6190:6248   */\n      mstore\n        /* \"#utility.yul\":6282:6292   */\n      0x6c6c6f77616e6365000000000000000000000000000000000000000000000000\n        /* \"#utility.yul\":6277:6279   */\n      0x20\n        /* \"#utility.yul\":6269:6275   */\n      dup3\n        /* \"#utility.yul\":6265:6280   */\n      add\n        /* \"#utility.yul\":6258:6293   */\n      mstore\n        /* \"#utility.yul\":6073:6300   */\n      pop\n      jump\t// out\n        /* \"#utility.yul\":6306:6672   */\n    tag_171:\n        /* \"#utility.yul\":6448:6451   */\n      0x00\n        /* \"#utility.yul\":6469:6536   */\n      tag_244\n        /* \"#utility.yul\":6533:6535   */\n      0x28\n        /* \"#utility.yul\":6528:6531   */\n      dup4\n        /* \"#utility.yul\":6469:6536   */\n      tag_150\n      jump\t// in\n    tag_244:\n        /* \"#utility.yul\":6462:6536   */\n      swap2\n      pop\n        /* \"#utility.yul\":6545:6638   */\n      tag_245\n        /* \"#utility.yul\":6634:6637   */\n      dup3\n        /* \"#utility.yul\":6545:6638   */\n      tag_170\n      jump\t// in\n    tag_245:\n        /* \"#utility.yul\":6663:6665   */\n      0x40\n        /* \"#utility.yul\":6658:6661   */\n      dup3\n        /* \"#utility.yul\":6654:6666   */\n      add\n        /* \"#utility.yul\":6647:6666   */\n      swap1\n      pop\n        /* \"#utility.yul\":6306:6672   */\n      swap2\n      swap1\n      pop\n      jump\t// out\n        /* \"#utility.yul\":6678:7097   */\n    tag_86:\n        /* \"#utility.yul\":6844:6848   */\n      0x00\n        /* \"#utility.yul\":6882:6884   */\n      0x20\n        /* \"#utility.yul\":6871:6880   */\n      dup3\n        /* \"#utility.yul\":6867:6885   */\n      add\n        /* \"#utility.yul\":6859:6885   */\n      swap1\n      pop\n        /* \"#utility.yul\":6931:6940   */\n      dup2\n        /* \"#utility.yul\":6925:6929   */\n      dup2\n        /* \"#utility.yul\":6921:6941   */\n      sub\n        /* \"#utility.yul\":6917:6918   */\n      0x00\n        /* \"#utility.yul\":6906:6915   */\n      dup4\n        /* \"#utility.yul\":6902:6919   */\n      add\n        /* \"#utility.yul\":6895:6942   */\n      mstore\n        /* \"#utility.yul\":6959:7090   */\n      tag_247\n        /* \"#utility.yul\":7085:7089   */\n      dup2\n        /* \"#utility.yul\":6959:7090   */\n      tag_171\n      jump\t// in\n    tag_247:\n        /* \"#utility.yul\":6951:7090   */\n      swap1\n      pop\n        /* \"#utility.yul\":6678:7097   */\n      swap2\n      swap1\n      pop\n      jump\t// out\n        /* \"#utility.yul\":7103:7283   */\n    tag_172:\n        /* \"#utility.yul\":7151:7228   */\n      0x4e487b7100000000000000000000000000000000000000000000000000000000\n        /* \"#utility.yul\":7148:7149   */\n      0x00\n        /* \"#utility.yul\":7141:7229   */\n      mstore\n        /* \"#utility.yul\":7248:7252   */\n      0x11\n        /* \"#utility.yul\":7245:7246   */\n      0x04\n        /* \"#utility.yul\":7238:7253   */\n      mstore\n        /* \"#utility.yul\":7272:7276   */\n      0x24\n        /* \"#utility.yul\":7269:7270   */\n      0x00\n        /* \"#utility.yul\":7262:7277   */\n      revert\n        /* \"#utility.yul\":7289:7483   */\n    tag_90:\n        /* \"#utility.yul\":7329:7333   */\n      0x00\n        /* \"#utility.yul\":7349:7369   */\n      tag_250\n        /* \"#utility.yul\":7367:7368   */\n      dup3\n        /* \"#utility.yul\":7349:7369   */\n      tag_161\n      jump\t// in\n    tag_250:\n        /* \"#utility.yul\":7344:7369   */\n      swap2\n      pop\n        /* \"#utility.yul\":7383:7403   */\n      tag_251\n        /* \"#utility.yul\":7401:7402   */\n      dup4\n        /* \"#utility.yul\":7383:7403   */\n      tag_161\n      jump\t// in\n    tag_251:\n        /* \"#utility.yul\":7378:7403   */\n      swap3\n      pop\n        /* \"#utility.yul\":7427:7428   */\n      dup3\n        /* \"#utility.yul\":7424:7425   */\n      dup3\n        /* \"#utility.yul\":7420:7429   */\n      sub\n        /* \"#utility.yul\":7412:7429   */\n      swap1\n      pop\n        /* \"#utility.yul\":7451:7452   */\n      dup2\n        /* \"#utility.yul\":7445:7449   */\n      dup2\n        /* \"#utility.yul\":7442:7453   */\n      gt\n        /* \"#utility.yul\":7439:7476   */\n      iszero\n      tag_252\n      jumpi\n        /* \"#utility.yul\":7456:7474   */\n      tag_253\n      tag_172\n      jump\t// in\n    tag_253:\n        /* \"#utility.yul\":7439:7476   */\n    tag_252:\n        /* \"#utility.yul\":7289:7483   */\n      swap3\n      swap2\n      pop\n      pop\n      jump\t// out\n        /* \"#utility.yul\":7489:7607   */\n    tag_173:\n        /* \"#utility.yul\":7576:7600   */\n      tag_255\n        /* \"#utility.yul\":7594:7599   */\n      dup2\n        /* \"#utility.yul\":7576:7600   */\n      tag_158\n      jump\t// in\n    tag_255:\n        /* \"#utility.yul\":7571:7574   */\n      dup3\n        /* \"#utility.yul\":7564:7601   */\n      mstore\n        /* \"#utility.yul\":7489:7607   */\n      pop\n      pop\n      jump\t// out\n        /* \"#utility.yul\":7613:7835   */\n    tag_118:\n        /* \"#utility.yul\":7706:7710   */\n      0x00\n        /* \"#utility.yul\":7744:7746   */\n      0x20\n        /* \"#utility.yul\":7733:7742   */\n      dup3\n        /* \"#utility.yul\":7729:7747   */\n      add\n        /* \"#utility.yul\":7721:7747   */\n      swap1\n      pop\n        /* \"#utility.yul\":7757:7828   */\n      tag_257\n        /* \"#utility.yul\":7825:7826   */\n      0x00\n        /* \"#utility.yul\":7814:7823   */\n      dup4\n        /* \"#utility.yul\":7810:7827   */\n      add\n        /* \"#utility.yul\":7801:7807   */\n      dup5\n        /* \"#utility.yul\":7757:7828   */\n      tag_173\n      jump\t// in\n    tag_257:\n        /* \"#utility.yul\":7613:7835   */\n      swap3\n      swap2\n      pop\n      pop\n      jump\t// out\n        /* \"#utility.yul\":7841:8032   */\n    tag_141:\n        /* \"#utility.yul\":7881:7884   */\n      0x00\n        /* \"#utility.yul\":7900:7920   */\n      tag_259\n        /* \"#utility.yul\":7918:7919   */\n      dup3\n        /* \"#utility.yul\":7900:7920   */\n      tag_161\n      jump\t// in\n    tag_259:\n        /* \"#utility.yul\":7895:7920   */\n      swap2\n      pop\n        /* \"#utility.yul\":7934:7954   */\n      tag_260\n        /* \"#utility.yul\":7952:7953   */\n      dup4\n        /* \"#utility.yul\":7934:7954   */\n      tag_161\n      jump\t// in\n    tag_260:\n        /* \"#utility.yul\":7929:7954   */\n      swap3\n      pop\n        /* \"#utility.yul\":7977:7978   */\n      dup3\n        /* \"#utility.yul\":7974:7975   */\n      dup3\n        /* \"#utility.yul\":7970:7979   */\n      add\n        /* \"#utility.yul\":7963:7979   */\n      swap1\n      pop\n        /* \"#utility.yul\":7998:8001   */\n      dup1\n        /* \"#utility.yul\":7995:7996   */\n      dup3\n        /* \"#utility.yul\":7992:8002   */\n      gt\n        /* \"#utility.yul\":7989:8025   */\n      iszero\n      tag_261\n      jumpi\n        /* \"#utility.yul\":8005:8023   */\n      tag_262\n      tag_172\n      jump\t// in\n    tag_262:\n        /* \"#utility.yul\":7989:8025   */\n    tag_261:\n        /* \"#utility.yul\":7841:8032   */\n      swap3\n      swap2\n      pop\n      pop\n      jump\t// out\n        /* \"#utility.yul\":8038:8480   */\n    tag_145:\n        /* \"#utility.yul\":8187:8191   */\n      0x00\n        /* \"#utility.yul\":8225:8227   */\n      0x60\n        /* \"#utility.yul\":8214:8223   */\n      dup3\n        /* \"#utility.yul\":8210:8228   */\n      add\n        /* \"#utility.yul\":8202:8228   */\n      swap1\n      pop\n        /* \"#utility.yul\":8238:8309   */\n      tag_264\n        /* \"#utility.yul\":8306:8307   */\n      0x00\n        /* \"#utility.yul\":8295:8304   */\n      dup4\n        /* \"#utility.yul\":8291:8308   */\n      add\n        /* \"#utility.yul\":8282:8288   */\n      dup7\n        /* \"#utility.yul\":8238:8309   */\n      tag_173\n      jump\t// in\n    tag_264:\n        /* \"#utility.yul\":8319:8391   */\n      tag_265\n        /* \"#utility.yul\":8387:8389   */\n      0x20\n        /* \"#utility.yul\":8376:8385   */\n      dup4\n        /* \"#utility.yul\":8372:8390   */\n      add\n        /* \"#utility.yul\":8363:8369   */\n      dup6\n        /* \"#utility.yul\":8319:8391   */\n      tag_166\n      jump\t// in\n    tag_265:\n        /* \"#utility.yul\":8401:8473   */\n      tag_266\n        /* \"#utility.yul\":8469:8471   */\n      0x40\n        /* \"#utility.yul\":8458:8467   */\n      dup4\n        /* \"#utility.yul\":8454:8472   */\n      add\n        /* \"#utility.yul\":8445:8451   */\n      dup5\n        /* \"#utility.yul\":8401:8473   */\n      tag_166\n      jump\t// in\n    tag_266:\n        /* \"#utility.yul\":8038:8480   */\n      swap5\n      swap4\n      pop\n      pop\n      pop\n      pop\n      jump\t// out\n\n    auxdata: 0xa2646970667358221220b2f54ae9e17dff8e733afd1dc21c0022ddbbe8d4f66ecba263b383927033857864736f6c634300081a0033\n}\n",
				"bytecode": {
					"linkReferences": {},
					"object": "608060405234801561000f575f80fd5b5060405161180f38038061180f833981810160405281019061003191906103aa565b6040518060400160405280600a81526020017f43414d4553454e4e494e000000000000000000000000000000000000000000008152506040518060400160405280600381526020017f43414d000000000000000000000000000000000000000000000000000000000081525081600390816100ac9190610606565b5080600490816100bc9190610606565b5050506100cf33826100d560201b60201c565b506107ea565b5f73ffffffffffffffffffffffffffffffffffffffff168273ffffffffffffffffffffffffffffffffffffffff1603610145575f6040517fec442f0500000000000000000000000000000000000000000000000000000000815260040161013c9190610714565b60405180910390fd5b6101565f838361015a60201b60201c565b5050565b5f73ffffffffffffffffffffffffffffffffffffffff168373ffffffffffffffffffffffffffffffffffffffff16036101aa578060025f82825461019e919061075a565b92505081905550610278565b5f805f8573ffffffffffffffffffffffffffffffffffffffff1673ffffffffffffffffffffffffffffffffffffffff1681526020019081526020015f2054905081811015610233578381836040517fe450d38c00000000000000000000000000000000000000000000000000000000815260040161022a9392919061079c565b60405180910390fd5b8181035f808673ffffffffffffffffffffffffffffffffffffffff1673ffffffffffffffffffffffffffffffffffffffff1681526020019081526020015f2081905550505b5f73ffffffffffffffffffffffffffffffffffffffff168273ffffffffffffffffffffffffffffffffffffffff16036102bf578060025f8282540392505081905550610309565b805f808473ffffffffffffffffffffffffffffffffffffffff1673ffffffffffffffffffffffffffffffffffffffff1681526020019081526020015f205f82825401925050819055505b8173ffffffffffffffffffffffffffffffffffffffff168373ffffffffffffffffffffffffffffffffffffffff167fddf252ad1be2c89b69c2b068fc378daa952ba7f163c4a11628f55a4df523b3ef8360405161036691906107d1565b60405180910390a3505050565b5f80fd5b5f819050919050565b61038981610377565b8114610393575f80fd5b50565b5f815190506103a481610380565b92915050565b5f602082840312156103bf576103be610373565b5b5f6103cc84828501610396565b91505092915050565b5f81519050919050565b7f4e487b71000000000000000000000000000000000000000000000000000000005f52604160045260245ffd5b7f4e487b71000000000000000000000000000000000000000000000000000000005f52602260045260245ffd5b5f600282049050600182168061045057607f821691505b6020821081036104635761046261040c565b5b50919050565b5f819050815f5260205f209050919050565b5f6020601f8301049050919050565b5f82821b905092915050565b5f600883026104c57fffffffffffffffffffffffffffffffffffffffffffffffffffffffffffffffff8261048a565b6104cf868361048a565b95508019841693508086168417925050509392505050565b5f819050919050565b5f61050a61050561050084610377565b6104e7565b610377565b9050919050565b5f819050919050565b610523836104f0565b61053761052f82610511565b848454610496565b825550505050565b5f90565b61054b61053f565b61055681848461051a565b505050565b5b818110156105795761056e5f82610543565b60018101905061055c565b5050565b601f8211156105be5761058f81610469565b6105988461047b565b810160208510156105a7578190505b6105bb6105b38561047b565b83018261055b565b50505b505050565b5f82821c905092915050565b5f6105de5f19846008026105c3565b1980831691505092915050565b5f6105f683836105cf565b9150826002028217905092915050565b61060f826103d5565b67ffffffffffffffff811115610628576106276103df565b5b6106328254610439565b61063d82828561057d565b5f60209050601f83116001811461066e575f841561065c578287015190505b61066685826105eb565b8655506106cd565b601f19841661067c86610469565b5f5b828110156106a35784890151825560018201915060208501945060208101905061067e565b868310156106c057848901516106bc601f8916826105cf565b8355505b6001600288020188555050505b505050505050565b5f73ffffffffffffffffffffffffffffffffffffffff82169050919050565b5f6106fe826106d5565b9050919050565b61070e816106f4565b82525050565b5f6020820190506107275f830184610705565b92915050565b7f4e487b71000000000000000000000000000000000000000000000000000000005f52601160045260245ffd5b5f61076482610377565b915061076f83610377565b92508282019050808211156107875761078661072d565b5b92915050565b61079681610377565b82525050565b5f6060820190506107af5f830186610705565b6107bc602083018561078d565b6107c9604083018461078d565b949350505050565b5f6020820190506107e45f83018461078d565b92915050565b611018806107f75f395ff3fe608060405234801561000f575f80fd5b50600436106100b2575f3560e01c806370a082311161006f57806370a082311461018c57806395d89b41146101bc5780639b96eece146101da5780639dc29fac1461020a578063a9059cbb14610226578063dd62ed3e14610256576100b2565b806306fdde03146100b6578063095ea7b3146100d457806318160ddd1461010457806323b872dd14610122578063313ce5671461015257806340c10f1914610170575b5f80fd5b6100be610286565b6040516100cb9190610bd0565b60405180910390f35b6100ee60048036038101906100e99190610c81565b610316565b6040516100fb9190610cd9565b60405180910390f35b61010c610333565b6040516101199190610d01565b60405180910390f35b61013c60048036038101906101379190610d1a565b61033c565b6040516101499190610cd9565b60405180910390f35b61015a6103c8565b6040516101679190610d85565b60405180910390f35b61018a60048036038101906101859190610c81565b6103d0565b005b6101a660048036038101906101a19190610d9e565b6103de565b6040516101b39190610d01565b60405180910390f35b6101c4610423565b6040516101d19190610bd0565b60405180910390f35b6101f460048036038101906101ef9190610d9e565b6104b3565b6040516102019190610d01565b60405180910390f35b610224600480360381019061021f9190610c81565b6104c4565b005b610240600480360381019061023b9190610c81565b6104d2565b60405161024d9190610cd9565b60405180910390f35b610270600480360381019061026b9190610dc9565b6104ef565b60405161027d9190610d01565b60405180910390f35b60606003805461029590610e34565b80601f01602080910402602001604051908101604052809291908181526020018280546102c190610e34565b801561030c5780601f106102e35761010080835404028352916020019161030c565b820191905f5260205f20905b8154815290600101906020018083116102ef57829003601f168201915b5050505050905090565b5f610329610322610571565b8484610578565b6001905092915050565b5f600254905090565b5f61034884848461058a565b5f61035a85610355610571565b6104ef565b90508281101561039f576040517f08c379a000000000000000000000000000000000000000000000000000000000815260040161039690610ed4565b60405180910390fd5b6103bc856103ab610571565b85846103b79190610f1f565b610578565b60019150509392505050565b5f6012905090565b6103da828261067a565b5050565b5f805f8373ffffffffffffffffffffffffffffffffffffffff1673ffffffffffffffffffffffffffffffffffffffff1681526020019081526020015f20549050919050565b60606004805461043290610e34565b80601f016020809104026020016040519081016040528092919081815260200182805461045e90610e34565b80156104a95780601f10610480576101008083540402835291602001916104a9565b820191905f5260205f20905b81548152906001019060200180831161048c57829003601f168201915b5050505050905090565b5f6104bd826103de565b9050919050565b6104ce82826106f9565b5050565b5f6104e56104de610571565b848461058a565b6001905092915050565b5f60015f8473ffffffffffffffffffffffffffffffffffffffff1673ffffffffffffffffffffffffffffffffffffffff1681526020019081526020015f205f8373ffffffffffffffffffffffffffffffffffffffff1673ffffffffffffffffffffffffffffffffffffffff1681526020019081526020015f2054905092915050565b5f33905090565b6105858383836001610778565b505050565b5f73ffffffffffffffffffffffffffffffffffffffff168373ffffffffffffffffffffffffffffffffffffffff16036105fa575f6040517f96c6fd1e0000000000000000000000000000000000000000000000000000000081526004016105f19190610f61565b60405180910390fd5b5f73ffffffffffffffffffffffffffffffffffffffff168273ffffffffffffffffffffffffffffffffffffffff160361066a575f6040517fec442f050000000000000000000000000000000000000000000000000000000081526004016106619190610f61565b60405180910390fd5b610675838383610947565b505050565b5f73ffffffffffffffffffffffffffffffffffffffff168273ffffffffffffffffffffffffffffffffffffffff16036106ea575f6040517fec442f050000000000000000000000000000000000000000000000000000000081526004016106e19190610f61565b60405180910390fd5b6106f55f8383610947565b5050565b5f73ffffffffffffffffffffffffffffffffffffffff168273ffffffffffffffffffffffffffffffffffffffff1603610769575f6040517f96c6fd1e0000000000000000000000000000000000000000000000000000000081526004016107609190610f61565b60405180910390fd5b610774825f83610947565b5050565b5f73ffffffffffffffffffffffffffffffffffffffff168473ffffffffffffffffffffffffffffffffffffffff16036107e8575f6040517fe602df050000000000000000000000000000000000000000000000000000000081526004016107df9190610f61565b60405180910390fd5b5f73ffffffffffffffffffffffffffffffffffffffff168373ffffffffffffffffffffffffffffffffffffffff1603610858575f6040517f94280d6200000000000000000000000000000000000000000000000000000000815260040161084f9190610f61565b60405180910390fd5b8160015f8673ffffffffffffffffffffffffffffffffffffffff1673ffffffffffffffffffffffffffffffffffffffff1681526020019081526020015f205f8573ffffffffffffffffffffffffffffffffffffffff1673ffffffffffffffffffffffffffffffffffffffff1681526020019081526020015f20819055508015610941578273ffffffffffffffffffffffffffffffffffffffff168473ffffffffffffffffffffffffffffffffffffffff167f8c5be1e5ebec7d5bd14f71427d1e84f3dd0314c0f7b2291e5b200ac8c7c3b925846040516109389190610d01565b60405180910390a35b50505050565b5f73ffffffffffffffffffffffffffffffffffffffff168373ffffffffffffffffffffffffffffffffffffffff1603610997578060025f82825461098b9190610f7a565b92505081905550610a65565b5f805f8573ffffffffffffffffffffffffffffffffffffffff1673ffffffffffffffffffffffffffffffffffffffff1681526020019081526020015f2054905081811015610a20578381836040517fe450d38c000000000000000000000000000000000000000000000000000000008152600401610a1793929190610fad565b60405180910390fd5b8181035f808673ffffffffffffffffffffffffffffffffffffffff1673ffffffffffffffffffffffffffffffffffffffff1681526020019081526020015f2081905550505b5f73ffffffffffffffffffffffffffffffffffffffff168273ffffffffffffffffffffffffffffffffffffffff1603610aac578060025f8282540392505081905550610af6565b805f808473ffffffffffffffffffffffffffffffffffffffff1673ffffffffffffffffffffffffffffffffffffffff1681526020019081526020015f205f82825401925050819055505b8173ffffffffffffffffffffffffffffffffffffffff168373ffffffffffffffffffffffffffffffffffffffff167fddf252ad1be2c89b69c2b068fc378daa952ba7f163c4a11628f55a4df523b3ef83604051610b539190610d01565b60405180910390a3505050565b5f81519050919050565b5f82825260208201905092915050565b8281835e5f83830152505050565b5f601f19601f8301169050919050565b5f610ba282610b60565b610bac8185610b6a565b9350610bbc818560208601610b7a565b610bc581610b88565b840191505092915050565b5f6020820190508181035f830152610be88184610b98565b905092915050565b5f80fd5b5f73ffffffffffffffffffffffffffffffffffffffff82169050919050565b5f610c1d82610bf4565b9050919050565b610c2d81610c13565b8114610c37575f80fd5b50565b5f81359050610c4881610c24565b92915050565b5f819050919050565b610c6081610c4e565b8114610c6a575f80fd5b50565b5f81359050610c7b81610c57565b92915050565b5f8060408385031215610c9757610c96610bf0565b5b5f610ca485828601610c3a565b9250506020610cb585828601610c6d565b9150509250929050565b5f8115159050919050565b610cd381610cbf565b82525050565b5f602082019050610cec5f830184610cca565b92915050565b610cfb81610c4e565b82525050565b5f602082019050610d145f830184610cf2565b92915050565b5f805f60608486031215610d3157610d30610bf0565b5b5f610d3e86828701610c3a565b9350506020610d4f86828701610c3a565b9250506040610d6086828701610c6d565b9150509250925092565b5f60ff82169050919050565b610d7f81610d6a565b82525050565b5f602082019050610d985f830184610d76565b92915050565b5f60208284031215610db357610db2610bf0565b5b5f610dc084828501610c3a565b91505092915050565b5f8060408385031215610ddf57610dde610bf0565b5b5f610dec85828601610c3a565b9250506020610dfd85828601610c3a565b9150509250929050565b7f4e487b71000000000000000000000000000000000000000000000000000000005f52602260045260245ffd5b5f6002820490506001821680610e4b57607f821691505b602082108103610e5e57610e5d610e07565b5b50919050565b7f45524332303a207472616e7366657220616d6f756e74206578636565647320615f8201527f6c6c6f77616e6365000000000000000000000000000000000000000000000000602082015250565b5f610ebe602883610b6a565b9150610ec982610e64565b604082019050919050565b5f6020820190508181035f830152610eeb81610eb2565b9050919050565b7f4e487b71000000000000000000000000000000000000000000000000000000005f52601160045260245ffd5b5f610f2982610c4e565b9150610f3483610c4e565b9250828203905081811115610f4c57610f4b610ef2565b5b92915050565b610f5b81610c13565b82525050565b5f602082019050610f745f830184610f52565b92915050565b5f610f8482610c4e565b9150610f8f83610c4e565b9250828201905080821115610fa757610fa6610ef2565b5b92915050565b5f606082019050610fc05f830186610f52565b610fcd6020830185610cf2565b610fda6040830184610cf2565b94935050505056fea2646970667358221220b2f54ae9e17dff8e733afd1dc21c0022ddbbe8d4f66ecba263b383927033857864736f6c634300081a0033",
					"opcodes": "PUSH1 0x80 PUSH1 0x40 MSTORE CALLVALUE DUP1 ISZERO PUSH2 0xF JUMPI PUSH0 DUP1 REVERT JUMPDEST POP PUSH1 0x40 MLOAD PUSH2 0x180F CODESIZE SUB DUP1 PUSH2 0x180F DUP4 CODECOPY DUP2 DUP2 ADD PUSH1 0x40 MSTORE DUP2 ADD SWAP1 PUSH2 0x31 SWAP2 SWAP1 PUSH2 0x3AA JUMP JUMPDEST PUSH1 0x40 MLOAD DUP1 PUSH1 0x40 ADD PUSH1 0x40 MSTORE DUP1 PUSH1 0xA DUP2 MSTORE PUSH1 0x20 ADD PUSH32 0x43414D4553454E4E494E00000000000000000000000000000000000000000000 DUP2 MSTORE POP PUSH1 0x40 MLOAD DUP1 PUSH1 0x40 ADD PUSH1 0x40 MSTORE DUP1 PUSH1 0x3 DUP2 MSTORE PUSH1 0x20 ADD PUSH32 0x43414D0000000000000000000000000000000000000000000000000000000000 DUP2 MSTORE POP DUP2 PUSH1 0x3 SWAP1 DUP2 PUSH2 0xAC SWAP2 SWAP1 PUSH2 0x606 JUMP JUMPDEST POP DUP1 PUSH1 0x4 SWAP1 DUP2 PUSH2 0xBC SWAP2 SWAP1 PUSH2 0x606 JUMP JUMPDEST POP POP POP PUSH2 0xCF CALLER DUP3 PUSH2 0xD5 PUSH1 0x20 SHL PUSH1 0x20 SHR JUMP JUMPDEST POP PUSH2 0x7EA JUMP JUMPDEST PUSH0 PUSH20 0xFFFFFFFFFFFFFFFFFFFFFFFFFFFFFFFFFFFFFFFF AND DUP3 PUSH20 0xFFFFFFFFFFFFFFFFFFFFFFFFFFFFFFFFFFFFFFFF AND SUB PUSH2 0x145 JUMPI PUSH0 PUSH1 0x40 MLOAD PUSH32 0xEC442F0500000000000000000000000000000000000000000000000000000000 DUP2 MSTORE PUSH1 0x4 ADD PUSH2 0x13C SWAP2 SWAP1 PUSH2 0x714 JUMP JUMPDEST PUSH1 0x40 MLOAD DUP1 SWAP2 SUB SWAP1 REVERT JUMPDEST PUSH2 0x156 PUSH0 DUP4 DUP4 PUSH2 0x15A PUSH1 0x20 SHL PUSH1 0x20 SHR JUMP JUMPDEST POP POP JUMP JUMPDEST PUSH0 PUSH20 0xFFFFFFFFFFFFFFFFFFFFFFFFFFFFFFFFFFFFFFFF AND DUP4 PUSH20 0xFFFFFFFFFFFFFFFFFFFFFFFFFFFFFFFFFFFFFFFF AND SUB PUSH2 0x1AA JUMPI DUP1 PUSH1 0x2 PUSH0 DUP3 DUP3 SLOAD PUSH2 0x19E SWAP2 SWAP1 PUSH2 0x75A JUMP JUMPDEST SWAP3 POP POP DUP2 SWAP1 SSTORE POP PUSH2 0x278 JUMP JUMPDEST PUSH0 DUP1 PUSH0 DUP6 PUSH20 0xFFFFFFFFFFFFFFFFFFFFFFFFFFFFFFFFFFFFFFFF AND PUSH20 0xFFFFFFFFFFFFFFFFFFFFFFFFFFFFFFFFFFFFFFFF AND DUP2 MSTORE PUSH1 0x20 ADD SWAP1 DUP2 MSTORE PUSH1 0x20 ADD PUSH0 KECCAK256 SLOAD SWAP1 POP DUP2 DUP2 LT ISZERO PUSH2 0x233 JUMPI DUP4 DUP2 DUP4 PUSH1 0x40 MLOAD PUSH32 0xE450D38C00000000000000000000000000000000000000000000000000000000 DUP2 MSTORE PUSH1 0x4 ADD PUSH2 0x22A SWAP4 SWAP3 SWAP2 SWAP1 PUSH2 0x79C JUMP JUMPDEST PUSH1 0x40 MLOAD DUP1 SWAP2 SUB SWAP1 REVERT JUMPDEST DUP2 DUP2 SUB PUSH0 DUP1 DUP7 PUSH20 0xFFFFFFFFFFFFFFFFFFFFFFFFFFFFFFFFFFFFFFFF AND PUSH20 0xFFFFFFFFFFFFFFFFFFFFFFFFFFFFFFFFFFFFFFFF AND DUP2 MSTORE PUSH1 0x20 ADD SWAP1 DUP2 MSTORE PUSH1 0x20 ADD PUSH0 KECCAK256 DUP2 SWAP1 SSTORE POP POP JUMPDEST PUSH0 PUSH20 0xFFFFFFFFFFFFFFFFFFFFFFFFFFFFFFFFFFFFFFFF AND DUP3 PUSH20 0xFFFFFFFFFFFFFFFFFFFFFFFFFFFFFFFFFFFFFFFF AND SUB PUSH2 0x2BF JUMPI DUP1 PUSH1 0x2 PUSH0 DUP3 DUP3 SLOAD SUB SWAP3 POP POP DUP2 SWAP1 SSTORE POP PUSH2 0x309 JUMP JUMPDEST DUP1 PUSH0 DUP1 DUP5 PUSH20 0xFFFFFFFFFFFFFFFFFFFFFFFFFFFFFFFFFFFFFFFF AND PUSH20 0xFFFFFFFFFFFFFFFFFFFFFFFFFFFFFFFFFFFFFFFF AND DUP2 MSTORE PUSH1 0x20 ADD SWAP1 DUP2 MSTORE PUSH1 0x20 ADD PUSH0 KECCAK256 PUSH0 DUP3 DUP3 SLOAD ADD SWAP3 POP POP DUP2 SWAP1 SSTORE POP JUMPDEST DUP2 PUSH20 0xFFFFFFFFFFFFFFFFFFFFFFFFFFFFFFFFFFFFFFFF AND DUP4 PUSH20 0xFFFFFFFFFFFFFFFFFFFFFFFFFFFFFFFFFFFFFFFF AND PUSH32 0xDDF252AD1BE2C89B69C2B068FC378DAA952BA7F163C4A11628F55A4DF523B3EF DUP4 PUSH1 0x40 MLOAD PUSH2 0x366 SWAP2 SWAP1 PUSH2 0x7D1 JUMP JUMPDEST PUSH1 0x40 MLOAD DUP1 SWAP2 SUB SWAP1 LOG3 POP POP POP JUMP JUMPDEST PUSH0 DUP1 REVERT JUMPDEST PUSH0 DUP2 SWAP1 POP SWAP2 SWAP1 POP JUMP JUMPDEST PUSH2 0x389 DUP2 PUSH2 0x377 JUMP JUMPDEST DUP2 EQ PUSH2 0x393 JUMPI PUSH0 DUP1 REVERT JUMPDEST POP JUMP JUMPDEST PUSH0 DUP2 MLOAD SWAP1 POP PUSH2 0x3A4 DUP2 PUSH2 0x380 JUMP JUMPDEST SWAP3 SWAP2 POP POP JUMP JUMPDEST PUSH0 PUSH1 0x20 DUP3 DUP5 SUB SLT ISZERO PUSH2 0x3BF JUMPI PUSH2 0x3BE PUSH2 0x373 JUMP JUMPDEST JUMPDEST PUSH0 PUSH2 0x3CC DUP5 DUP3 DUP6 ADD PUSH2 0x396 JUMP JUMPDEST SWAP2 POP POP SWAP3 SWAP2 POP POP JUMP JUMPDEST PUSH0 DUP2 MLOAD SWAP1 POP SWAP2 SWAP1 POP JUMP JUMPDEST PUSH32 0x4E487B7100000000000000000000000000000000000000000000000000000000 PUSH0 MSTORE PUSH1 0x41 PUSH1 0x4 MSTORE PUSH1 0x24 PUSH0 REVERT JUMPDEST PUSH32 0x4E487B7100000000000000000000000000000000000000000000000000000000 PUSH0 MSTORE PUSH1 0x22 PUSH1 0x4 MSTORE PUSH1 0x24 PUSH0 REVERT JUMPDEST PUSH0 PUSH1 0x2 DUP3 DIV SWAP1 POP PUSH1 0x1 DUP3 AND DUP1 PUSH2 0x450 JUMPI PUSH1 0x7F DUP3 AND SWAP2 POP JUMPDEST PUSH1 0x20 DUP3 LT DUP2 SUB PUSH2 0x463 JUMPI PUSH2 0x462 PUSH2 0x40C JUMP JUMPDEST JUMPDEST POP SWAP2 SWAP1 POP JUMP JUMPDEST PUSH0 DUP2 SWAP1 POP DUP2 PUSH0 MSTORE PUSH1 0x20 PUSH0 KECCAK256 SWAP1 POP SWAP2 SWAP1 POP JUMP JUMPDEST PUSH0 PUSH1 0x20 PUSH1 0x1F DUP4 ADD DIV SWAP1 POP SWAP2 SWAP1 POP JUMP JUMPDEST PUSH0 DUP3 DUP3 SHL SWAP1 POP SWAP3 SWAP2 POP POP JUMP JUMPDEST PUSH0 PUSH1 0x8 DUP4 MUL PUSH2 0x4C5 PUSH32 0xFFFFFFFFFFFFFFFFFFFFFFFFFFFFFFFFFFFFFFFFFFFFFFFFFFFFFFFFFFFFFFFF DUP3 PUSH2 0x48A JUMP JUMPDEST PUSH2 0x4CF DUP7 DUP4 PUSH2 0x48A JUMP JUMPDEST SWAP6 POP DUP1 NOT DUP5 AND SWAP4 POP DUP1 DUP7 AND DUP5 OR SWAP3 POP POP POP SWAP4 SWAP3 POP POP POP JUMP JUMPDEST PUSH0 DUP2 SWAP1 POP SWAP2 SWAP1 POP JUMP JUMPDEST PUSH0 PUSH2 0x50A PUSH2 0x505 PUSH2 0x500 DUP5 PUSH2 0x377 JUMP JUMPDEST PUSH2 0x4E7 JUMP JUMPDEST PUSH2 0x377 JUMP JUMPDEST SWAP1 POP SWAP2 SWAP1 POP JUMP JUMPDEST PUSH0 DUP2 SWAP1 POP SWAP2 SWAP1 POP JUMP JUMPDEST PUSH2 0x523 DUP4 PUSH2 0x4F0 JUMP JUMPDEST PUSH2 0x537 PUSH2 0x52F DUP3 PUSH2 0x511 JUMP JUMPDEST DUP5 DUP5 SLOAD PUSH2 0x496 JUMP JUMPDEST DUP3 SSTORE POP POP POP POP JUMP JUMPDEST PUSH0 SWAP1 JUMP JUMPDEST PUSH2 0x54B PUSH2 0x53F JUMP JUMPDEST PUSH2 0x556 DUP2 DUP5 DUP5 PUSH2 0x51A JUMP JUMPDEST POP POP POP JUMP JUMPDEST JUMPDEST DUP2 DUP2 LT ISZERO PUSH2 0x579 JUMPI PUSH2 0x56E PUSH0 DUP3 PUSH2 0x543 JUMP JUMPDEST PUSH1 0x1 DUP2 ADD SWAP1 POP PUSH2 0x55C JUMP JUMPDEST POP POP JUMP JUMPDEST PUSH1 0x1F DUP3 GT ISZERO PUSH2 0x5BE JUMPI PUSH2 0x58F DUP2 PUSH2 0x469 JUMP JUMPDEST PUSH2 0x598 DUP5 PUSH2 0x47B JUMP JUMPDEST DUP2 ADD PUSH1 0x20 DUP6 LT ISZERO PUSH2 0x5A7 JUMPI DUP2 SWAP1 POP JUMPDEST PUSH2 0x5BB PUSH2 0x5B3 DUP6 PUSH2 0x47B JUMP JUMPDEST DUP4 ADD DUP3 PUSH2 0x55B JUMP JUMPDEST POP POP JUMPDEST POP POP POP JUMP JUMPDEST PUSH0 DUP3 DUP3 SHR SWAP1 POP SWAP3 SWAP2 POP POP JUMP JUMPDEST PUSH0 PUSH2 0x5DE PUSH0 NOT DUP5 PUSH1 0x8 MUL PUSH2 0x5C3 JUMP JUMPDEST NOT DUP1 DUP4 AND SWAP2 POP POP SWAP3 SWAP2 POP POP JUMP JUMPDEST PUSH0 PUSH2 0x5F6 DUP4 DUP4 PUSH2 0x5CF JUMP JUMPDEST SWAP2 POP DUP3 PUSH1 0x2 MUL DUP3 OR SWAP1 POP SWAP3 SWAP2 POP POP JUMP JUMPDEST PUSH2 0x60F DUP3 PUSH2 0x3D5 JUMP JUMPDEST PUSH8 0xFFFFFFFFFFFFFFFF DUP2 GT ISZERO PUSH2 0x628 JUMPI PUSH2 0x627 PUSH2 0x3DF JUMP JUMPDEST JUMPDEST PUSH2 0x632 DUP3 SLOAD PUSH2 0x439 JUMP JUMPDEST PUSH2 0x63D DUP3 DUP3 DUP6 PUSH2 0x57D JUMP JUMPDEST PUSH0 PUSH1 0x20 SWAP1 POP PUSH1 0x1F DUP4 GT PUSH1 0x1 DUP2 EQ PUSH2 0x66E JUMPI PUSH0 DUP5 ISZERO PUSH2 0x65C JUMPI DUP3 DUP8 ADD MLOAD SWAP1 POP JUMPDEST PUSH2 0x666 DUP6 DUP3 PUSH2 0x5EB JUMP JUMPDEST DUP7 SSTORE POP PUSH2 0x6CD JUMP JUMPDEST PUSH1 0x1F NOT DUP5 AND PUSH2 0x67C DUP7 PUSH2 0x469 JUMP JUMPDEST PUSH0 JUMPDEST DUP3 DUP2 LT ISZERO PUSH2 0x6A3 JUMPI DUP5 DUP10 ADD MLOAD DUP3 SSTORE PUSH1 0x1 DUP3 ADD SWAP2 POP PUSH1 0x20 DUP6 ADD SWAP5 POP PUSH1 0x20 DUP2 ADD SWAP1 POP PUSH2 0x67E JUMP JUMPDEST DUP7 DUP4 LT ISZERO PUSH2 0x6C0 JUMPI DUP5 DUP10 ADD MLOAD PUSH2 0x6BC PUSH1 0x1F DUP10 AND DUP3 PUSH2 0x5CF JUMP JUMPDEST DUP4 SSTORE POP JUMPDEST PUSH1 0x1 PUSH1 0x2 DUP9 MUL ADD DUP9 SSTORE POP POP POP JUMPDEST POP POP POP POP POP POP JUMP JUMPDEST PUSH0 PUSH20 0xFFFFFFFFFFFFFFFFFFFFFFFFFFFFFFFFFFFFFFFF DUP3 AND SWAP1 POP SWAP2 SWAP1 POP JUMP JUMPDEST PUSH0 PUSH2 0x6FE DUP3 PUSH2 0x6D5 JUMP JUMPDEST SWAP1 POP SWAP2 SWAP1 POP JUMP JUMPDEST PUSH2 0x70E DUP2 PUSH2 0x6F4 JUMP JUMPDEST DUP3 MSTORE POP POP JUMP JUMPDEST PUSH0 PUSH1 0x20 DUP3 ADD SWAP1 POP PUSH2 0x727 PUSH0 DUP4 ADD DUP5 PUSH2 0x705 JUMP JUMPDEST SWAP3 SWAP2 POP POP JUMP JUMPDEST PUSH32 0x4E487B7100000000000000000000000000000000000000000000000000000000 PUSH0 MSTORE PUSH1 0x11 PUSH1 0x4 MSTORE PUSH1 0x24 PUSH0 REVERT JUMPDEST PUSH0 PUSH2 0x764 DUP3 PUSH2 0x377 JUMP JUMPDEST SWAP2 POP PUSH2 0x76F DUP4 PUSH2 0x377 JUMP JUMPDEST SWAP3 POP DUP3 DUP3 ADD SWAP1 POP DUP1 DUP3 GT ISZERO PUSH2 0x787 JUMPI PUSH2 0x786 PUSH2 0x72D JUMP JUMPDEST JUMPDEST SWAP3 SWAP2 POP POP JUMP JUMPDEST PUSH2 0x796 DUP2 PUSH2 0x377 JUMP JUMPDEST DUP3 MSTORE POP POP JUMP JUMPDEST PUSH0 PUSH1 0x60 DUP3 ADD SWAP1 POP PUSH2 0x7AF PUSH0 DUP4 ADD DUP7 PUSH2 0x705 JUMP JUMPDEST PUSH2 0x7BC PUSH1 0x20 DUP4 ADD DUP6 PUSH2 0x78D JUMP JUMPDEST PUSH2 0x7C9 PUSH1 0x40 DUP4 ADD DUP5 PUSH2 0x78D JUMP JUMPDEST SWAP5 SWAP4 POP POP POP POP JUMP JUMPDEST PUSH0 PUSH1 0x20 DUP3 ADD SWAP1 POP PUSH2 0x7E4 PUSH0 DUP4 ADD DUP5 PUSH2 0x78D JUMP JUMPDEST SWAP3 SWAP2 POP POP JUMP JUMPDEST PUSH2 0x1018 DUP1 PUSH2 0x7F7 PUSH0 CODECOPY PUSH0 RETURN INVALID PUSH1 0x80 PUSH1 0x40 MSTORE CALLVALUE DUP1 ISZERO PUSH2 0xF JUMPI PUSH0 DUP1 REVERT JUMPDEST POP PUSH1 0x4 CALLDATASIZE LT PUSH2 0xB2 JUMPI PUSH0 CALLDATALOAD PUSH1 0xE0 SHR DUP1 PUSH4 0x70A08231 GT PUSH2 0x6F JUMPI DUP1 PUSH4 0x70A08231 EQ PUSH2 0x18C JUMPI DUP1 PUSH4 0x95D89B41 EQ PUSH2 0x1BC JUMPI DUP1 PUSH4 0x9B96EECE EQ PUSH2 0x1DA JUMPI DUP1 PUSH4 0x9DC29FAC EQ PUSH2 0x20A JUMPI DUP1 PUSH4 0xA9059CBB EQ PUSH2 0x226 JUMPI DUP1 PUSH4 0xDD62ED3E EQ PUSH2 0x256 JUMPI PUSH2 0xB2 JUMP JUMPDEST DUP1 PUSH4 0x6FDDE03 EQ PUSH2 0xB6 JUMPI DUP1 PUSH4 0x95EA7B3 EQ PUSH2 0xD4 JUMPI DUP1 PUSH4 0x18160DDD EQ PUSH2 0x104 JUMPI DUP1 PUSH4 0x23B872DD EQ PUSH2 0x122 JUMPI DUP1 PUSH4 0x313CE567 EQ PUSH2 0x152 JUMPI DUP1 PUSH4 0x40C10F19 EQ PUSH2 0x170 JUMPI JUMPDEST PUSH0 DUP1 REVERT JUMPDEST PUSH2 0xBE PUSH2 0x286 JUMP JUMPDEST PUSH1 0x40 MLOAD PUSH2 0xCB SWAP2 SWAP1 PUSH2 0xBD0 JUMP JUMPDEST PUSH1 0x40 MLOAD DUP1 SWAP2 SUB SWAP1 RETURN JUMPDEST PUSH2 0xEE PUSH1 0x4 DUP1 CALLDATASIZE SUB DUP2 ADD SWAP1 PUSH2 0xE9 SWAP2 SWAP1 PUSH2 0xC81 JUMP JUMPDEST PUSH2 0x316 JUMP JUMPDEST PUSH1 0x40 MLOAD PUSH2 0xFB SWAP2 SWAP1 PUSH2 0xCD9 JUMP JUMPDEST PUSH1 0x40 MLOAD DUP1 SWAP2 SUB SWAP1 RETURN JUMPDEST PUSH2 0x10C PUSH2 0x333 JUMP JUMPDEST PUSH1 0x40 MLOAD PUSH2 0x119 SWAP2 SWAP1 PUSH2 0xD01 JUMP JUMPDEST PUSH1 0x40 MLOAD DUP1 SWAP2 SUB SWAP1 RETURN JUMPDEST PUSH2 0x13C PUSH1 0x4 DUP1 CALLDATASIZE SUB DUP2 ADD SWAP1 PUSH2 0x137 SWAP2 SWAP1 PUSH2 0xD1A JUMP JUMPDEST PUSH2 0x33C JUMP JUMPDEST PUSH1 0x40 MLOAD PUSH2 0x149 SWAP2 SWAP1 PUSH2 0xCD9 JUMP JUMPDEST PUSH1 0x40 MLOAD DUP1 SWAP2 SUB SWAP1 RETURN JUMPDEST PUSH2 0x15A PUSH2 0x3C8 JUMP JUMPDEST PUSH1 0x40 MLOAD PUSH2 0x167 SWAP2 SWAP1 PUSH2 0xD85 JUMP JUMPDEST PUSH1 0x40 MLOAD DUP1 SWAP2 SUB SWAP1 RETURN JUMPDEST PUSH2 0x18A PUSH1 0x4 DUP1 CALLDATASIZE SUB DUP2 ADD SWAP1 PUSH2 0x185 SWAP2 SWAP1 PUSH2 0xC81 JUMP JUMPDEST PUSH2 0x3D0 JUMP JUMPDEST STOP JUMPDEST PUSH2 0x1A6 PUSH1 0x4 DUP1 CALLDATASIZE SUB DUP2 ADD SWAP1 PUSH2 0x1A1 SWAP2 SWAP1 PUSH2 0xD9E JUMP JUMPDEST PUSH2 0x3DE JUMP JUMPDEST PUSH1 0x40 MLOAD PUSH2 0x1B3 SWAP2 SWAP1 PUSH2 0xD01 JUMP JUMPDEST PUSH1 0x40 MLOAD DUP1 SWAP2 SUB SWAP1 RETURN JUMPDEST PUSH2 0x1C4 PUSH2 0x423 JUMP JUMPDEST PUSH1 0x40 MLOAD PUSH2 0x1D1 SWAP2 SWAP1 PUSH2 0xBD0 JUMP JUMPDEST PUSH1 0x40 MLOAD DUP1 SWAP2 SUB SWAP1 RETURN JUMPDEST PUSH2 0x1F4 PUSH1 0x4 DUP1 CALLDATASIZE SUB DUP2 ADD SWAP1 PUSH2 0x1EF SWAP2 SWAP1 PUSH2 0xD9E JUMP JUMPDEST PUSH2 0x4B3 JUMP JUMPDEST PUSH1 0x40 MLOAD PUSH2 0x201 SWAP2 SWAP1 PUSH2 0xD01 JUMP JUMPDEST PUSH1 0x40 MLOAD DUP1 SWAP2 SUB SWAP1 RETURN JUMPDEST PUSH2 0x224 PUSH1 0x4 DUP1 CALLDATASIZE SUB DUP2 ADD SWAP1 PUSH2 0x21F SWAP2 SWAP1 PUSH2 0xC81 JUMP JUMPDEST PUSH2 0x4C4 JUMP JUMPDEST STOP JUMPDEST PUSH2 0x240 PUSH1 0x4 DUP1 CALLDATASIZE SUB DUP2 ADD SWAP1 PUSH2 0x23B SWAP2 SWAP1 PUSH2 0xC81 JUMP JUMPDEST PUSH2 0x4D2 JUMP JUMPDEST PUSH1 0x40 MLOAD PUSH2 0x24D SWAP2 SWAP1 PUSH2 0xCD9 JUMP JUMPDEST PUSH1 0x40 MLOAD DUP1 SWAP2 SUB SWAP1 RETURN JUMPDEST PUSH2 0x270 PUSH1 0x4 DUP1 CALLDATASIZE SUB DUP2 ADD SWAP1 PUSH2 0x26B SWAP2 SWAP1 PUSH2 0xDC9 JUMP JUMPDEST PUSH2 0x4EF JUMP JUMPDEST PUSH1 0x40 MLOAD PUSH2 0x27D SWAP2 SWAP1 PUSH2 0xD01 JUMP JUMPDEST PUSH1 0x40 MLOAD DUP1 SWAP2 SUB SWAP1 RETURN JUMPDEST PUSH1 0x60 PUSH1 0x3 DUP1 SLOAD PUSH2 0x295 SWAP1 PUSH2 0xE34 JUMP JUMPDEST DUP1 PUSH1 0x1F ADD PUSH1 0x20 DUP1 SWAP2 DIV MUL PUSH1 0x20 ADD PUSH1 0x40 MLOAD SWAP1 DUP2 ADD PUSH1 0x40 MSTORE DUP1 SWAP3 SWAP2 SWAP1 DUP2 DUP2 MSTORE PUSH1 0x20 ADD DUP3 DUP1 SLOAD PUSH2 0x2C1 SWAP1 PUSH2 0xE34 JUMP JUMPDEST DUP1 ISZERO PUSH2 0x30C JUMPI DUP1 PUSH1 0x1F LT PUSH2 0x2E3 JUMPI PUSH2 0x100 DUP1 DUP4 SLOAD DIV MUL DUP4 MSTORE SWAP2 PUSH1 0x20 ADD SWAP2 PUSH2 0x30C JUMP JUMPDEST DUP3 ADD SWAP2 SWAP1 PUSH0 MSTORE PUSH1 0x20 PUSH0 KECCAK256 SWAP1 JUMPDEST DUP2 SLOAD DUP2 MSTORE SWAP1 PUSH1 0x1 ADD SWAP1 PUSH1 0x20 ADD DUP1 DUP4 GT PUSH2 0x2EF JUMPI DUP3 SWAP1 SUB PUSH1 0x1F AND DUP3 ADD SWAP2 JUMPDEST POP POP POP POP POP SWAP1 POP SWAP1 JUMP JUMPDEST PUSH0 PUSH2 0x329 PUSH2 0x322 PUSH2 0x571 JUMP JUMPDEST DUP5 DUP5 PUSH2 0x578 JUMP JUMPDEST PUSH1 0x1 SWAP1 POP SWAP3 SWAP2 POP POP JUMP JUMPDEST PUSH0 PUSH1 0x2 SLOAD SWAP1 POP SWAP1 JUMP JUMPDEST PUSH0 PUSH2 0x348 DUP5 DUP5 DUP5 PUSH2 0x58A JUMP JUMPDEST PUSH0 PUSH2 0x35A DUP6 PUSH2 0x355 PUSH2 0x571 JUMP JUMPDEST PUSH2 0x4EF JUMP JUMPDEST SWAP1 POP DUP3 DUP2 LT ISZERO PUSH2 0x39F JUMPI PUSH1 0x40 MLOAD PUSH32 0x8C379A000000000000000000000000000000000000000000000000000000000 DUP2 MSTORE PUSH1 0x4 ADD PUSH2 0x396 SWAP1 PUSH2 0xED4 JUMP JUMPDEST PUSH1 0x40 MLOAD DUP1 SWAP2 SUB SWAP1 REVERT JUMPDEST PUSH2 0x3BC DUP6 PUSH2 0x3AB PUSH2 0x571 JUMP JUMPDEST DUP6 DUP5 PUSH2 0x3B7 SWAP2 SWAP1 PUSH2 0xF1F JUMP JUMPDEST PUSH2 0x578 JUMP JUMPDEST PUSH1 0x1 SWAP2 POP POP SWAP4 SWAP3 POP POP POP JUMP JUMPDEST PUSH0 PUSH1 0x12 SWAP1 POP SWAP1 JUMP JUMPDEST PUSH2 0x3DA DUP3 DUP3 PUSH2 0x67A JUMP JUMPDEST POP POP JUMP JUMPDEST PUSH0 DUP1 PUSH0 DUP4 PUSH20 0xFFFFFFFFFFFFFFFFFFFFFFFFFFFFFFFFFFFFFFFF AND PUSH20 0xFFFFFFFFFFFFFFFFFFFFFFFFFFFFFFFFFFFFFFFF AND DUP2 MSTORE PUSH1 0x20 ADD SWAP1 DUP2 MSTORE PUSH1 0x20 ADD PUSH0 KECCAK256 SLOAD SWAP1 POP SWAP2 SWAP1 POP JUMP JUMPDEST PUSH1 0x60 PUSH1 0x4 DUP1 SLOAD PUSH2 0x432 SWAP1 PUSH2 0xE34 JUMP JUMPDEST DUP1 PUSH1 0x1F ADD PUSH1 0x20 DUP1 SWAP2 DIV MUL PUSH1 0x20 ADD PUSH1 0x40 MLOAD SWAP1 DUP2 ADD PUSH1 0x40 MSTORE DUP1 SWAP3 SWAP2 SWAP1 DUP2 DUP2 MSTORE PUSH1 0x20 ADD DUP3 DUP1 SLOAD PUSH2 0x45E SWAP1 PUSH2 0xE34 JUMP JUMPDEST DUP1 ISZERO PUSH2 0x4A9 JUMPI DUP1 PUSH1 0x1F LT PUSH2 0x480 JUMPI PUSH2 0x100 DUP1 DUP4 SLOAD DIV MUL DUP4 MSTORE SWAP2 PUSH1 0x20 ADD SWAP2 PUSH2 0x4A9 JUMP JUMPDEST DUP3 ADD SWAP2 SWAP1 PUSH0 MSTORE PUSH1 0x20 PUSH0 KECCAK256 SWAP1 JUMPDEST DUP2 SLOAD DUP2 MSTORE SWAP1 PUSH1 0x1 ADD SWAP1 PUSH1 0x20 ADD DUP1 DUP4 GT PUSH2 0x48C JUMPI DUP3 SWAP1 SUB PUSH1 0x1F AND DUP3 ADD SWAP2 JUMPDEST POP POP POP POP POP SWAP1 POP SWAP1 JUMP JUMPDEST PUSH0 PUSH2 0x4BD DUP3 PUSH2 0x3DE JUMP JUMPDEST SWAP1 POP SWAP2 SWAP1 POP JUMP JUMPDEST PUSH2 0x4CE DUP3 DUP3 PUSH2 0x6F9 JUMP JUMPDEST POP POP JUMP JUMPDEST PUSH0 PUSH2 0x4E5 PUSH2 0x4DE PUSH2 0x571 JUMP JUMPDEST DUP5 DUP5 PUSH2 0x58A JUMP JUMPDEST PUSH1 0x1 SWAP1 POP SWAP3 SWAP2 POP POP JUMP JUMPDEST PUSH0 PUSH1 0x1 PUSH0 DUP5 PUSH20 0xFFFFFFFFFFFFFFFFFFFFFFFFFFFFFFFFFFFFFFFF AND PUSH20 0xFFFFFFFFFFFFFFFFFFFFFFFFFFFFFFFFFFFFFFFF AND DUP2 MSTORE PUSH1 0x20 ADD SWAP1 DUP2 MSTORE PUSH1 0x20 ADD PUSH0 KECCAK256 PUSH0 DUP4 PUSH20 0xFFFFFFFFFFFFFFFFFFFFFFFFFFFFFFFFFFFFFFFF AND PUSH20 0xFFFFFFFFFFFFFFFFFFFFFFFFFFFFFFFFFFFFFFFF AND DUP2 MSTORE PUSH1 0x20 ADD SWAP1 DUP2 MSTORE PUSH1 0x20 ADD PUSH0 KECCAK256 SLOAD SWAP1 POP SWAP3 SWAP2 POP POP JUMP JUMPDEST PUSH0 CALLER SWAP1 POP SWAP1 JUMP JUMPDEST PUSH2 0x585 DUP4 DUP4 DUP4 PUSH1 0x1 PUSH2 0x778 JUMP JUMPDEST POP POP POP JUMP JUMPDEST PUSH0 PUSH20 0xFFFFFFFFFFFFFFFFFFFFFFFFFFFFFFFFFFFFFFFF AND DUP4 PUSH20 0xFFFFFFFFFFFFFFFFFFFFFFFFFFFFFFFFFFFFFFFF AND SUB PUSH2 0x5FA JUMPI PUSH0 PUSH1 0x40 MLOAD PUSH32 0x96C6FD1E00000000000000000000000000000000000000000000000000000000 DUP2 MSTORE PUSH1 0x4 ADD PUSH2 0x5F1 SWAP2 SWAP1 PUSH2 0xF61 JUMP JUMPDEST PUSH1 0x40 MLOAD DUP1 SWAP2 SUB SWAP1 REVERT JUMPDEST PUSH0 PUSH20 0xFFFFFFFFFFFFFFFFFFFFFFFFFFFFFFFFFFFFFFFF AND DUP3 PUSH20 0xFFFFFFFFFFFFFFFFFFFFFFFFFFFFFFFFFFFFFFFF AND SUB PUSH2 0x66A JUMPI PUSH0 PUSH1 0x40 MLOAD PUSH32 0xEC442F0500000000000000000000000000000000000000000000000000000000 DUP2 MSTORE PUSH1 0x4 ADD PUSH2 0x661 SWAP2 SWAP1 PUSH2 0xF61 JUMP JUMPDEST PUSH1 0x40 MLOAD DUP1 SWAP2 SUB SWAP1 REVERT JUMPDEST PUSH2 0x675 DUP4 DUP4 DUP4 PUSH2 0x947 JUMP JUMPDEST POP POP POP JUMP JUMPDEST PUSH0 PUSH20 0xFFFFFFFFFFFFFFFFFFFFFFFFFFFFFFFFFFFFFFFF AND DUP3 PUSH20 0xFFFFFFFFFFFFFFFFFFFFFFFFFFFFFFFFFFFFFFFF AND SUB PUSH2 0x6EA JUMPI PUSH0 PUSH1 0x40 MLOAD PUSH32 0xEC442F0500000000000000000000000000000000000000000000000000000000 DUP2 MSTORE PUSH1 0x4 ADD PUSH2 0x6E1 SWAP2 SWAP1 PUSH2 0xF61 JUMP JUMPDEST PUSH1 0x40 MLOAD DUP1 SWAP2 SUB SWAP1 REVERT JUMPDEST PUSH2 0x6F5 PUSH0 DUP4 DUP4 PUSH2 0x947 JUMP JUMPDEST POP POP JUMP JUMPDEST PUSH0 PUSH20 0xFFFFFFFFFFFFFFFFFFFFFFFFFFFFFFFFFFFFFFFF AND DUP3 PUSH20 0xFFFFFFFFFFFFFFFFFFFFFFFFFFFFFFFFFFFFFFFF AND SUB PUSH2 0x769 JUMPI PUSH0 PUSH1 0x40 MLOAD PUSH32 0x96C6FD1E00000000000000000000000000000000000000000000000000000000 DUP2 MSTORE PUSH1 0x4 ADD PUSH2 0x760 SWAP2 SWAP1 PUSH2 0xF61 JUMP JUMPDEST PUSH1 0x40 MLOAD DUP1 SWAP2 SUB SWAP1 REVERT JUMPDEST PUSH2 0x774 DUP3 PUSH0 DUP4 PUSH2 0x947 JUMP JUMPDEST POP POP JUMP JUMPDEST PUSH0 PUSH20 0xFFFFFFFFFFFFFFFFFFFFFFFFFFFFFFFFFFFFFFFF AND DUP5 PUSH20 0xFFFFFFFFFFFFFFFFFFFFFFFFFFFFFFFFFFFFFFFF AND SUB PUSH2 0x7E8 JUMPI PUSH0 PUSH1 0x40 MLOAD PUSH32 0xE602DF0500000000000000000000000000000000000000000000000000000000 DUP2 MSTORE PUSH1 0x4 ADD PUSH2 0x7DF SWAP2 SWAP1 PUSH2 0xF61 JUMP JUMPDEST PUSH1 0x40 MLOAD DUP1 SWAP2 SUB SWAP1 REVERT JUMPDEST PUSH0 PUSH20 0xFFFFFFFFFFFFFFFFFFFFFFFFFFFFFFFFFFFFFFFF AND DUP4 PUSH20 0xFFFFFFFFFFFFFFFFFFFFFFFFFFFFFFFFFFFFFFFF AND SUB PUSH2 0x858 JUMPI PUSH0 PUSH1 0x40 MLOAD PUSH32 0x94280D6200000000000000000000000000000000000000000000000000000000 DUP2 MSTORE PUSH1 0x4 ADD PUSH2 0x84F SWAP2 SWAP1 PUSH2 0xF61 JUMP JUMPDEST PUSH1 0x40 MLOAD DUP1 SWAP2 SUB SWAP1 REVERT JUMPDEST DUP2 PUSH1 0x1 PUSH0 DUP7 PUSH20 0xFFFFFFFFFFFFFFFFFFFFFFFFFFFFFFFFFFFFFFFF AND PUSH20 0xFFFFFFFFFFFFFFFFFFFFFFFFFFFFFFFFFFFFFFFF AND DUP2 MSTORE PUSH1 0x20 ADD SWAP1 DUP2 MSTORE PUSH1 0x20 ADD PUSH0 KECCAK256 PUSH0 DUP6 PUSH20 0xFFFFFFFFFFFFFFFFFFFFFFFFFFFFFFFFFFFFFFFF AND PUSH20 0xFFFFFFFFFFFFFFFFFFFFFFFFFFFFFFFFFFFFFFFF AND DUP2 MSTORE PUSH1 0x20 ADD SWAP1 DUP2 MSTORE PUSH1 0x20 ADD PUSH0 KECCAK256 DUP2 SWAP1 SSTORE POP DUP1 ISZERO PUSH2 0x941 JUMPI DUP3 PUSH20 0xFFFFFFFFFFFFFFFFFFFFFFFFFFFFFFFFFFFFFFFF AND DUP5 PUSH20 0xFFFFFFFFFFFFFFFFFFFFFFFFFFFFFFFFFFFFFFFF AND PUSH32 0x8C5BE1E5EBEC7D5BD14F71427D1E84F3DD0314C0F7B2291E5B200AC8C7C3B925 DUP5 PUSH1 0x40 MLOAD PUSH2 0x938 SWAP2 SWAP1 PUSH2 0xD01 JUMP JUMPDEST PUSH1 0x40 MLOAD DUP1 SWAP2 SUB SWAP1 LOG3 JUMPDEST POP POP POP POP JUMP JUMPDEST PUSH0 PUSH20 0xFFFFFFFFFFFFFFFFFFFFFFFFFFFFFFFFFFFFFFFF AND DUP4 PUSH20 0xFFFFFFFFFFFFFFFFFFFFFFFFFFFFFFFFFFFFFFFF AND SUB PUSH2 0x997 JUMPI DUP1 PUSH1 0x2 PUSH0 DUP3 DUP3 SLOAD PUSH2 0x98B SWAP2 SWAP1 PUSH2 0xF7A JUMP JUMPDEST SWAP3 POP POP DUP2 SWAP1 SSTORE POP PUSH2 0xA65 JUMP JUMPDEST PUSH0 DUP1 PUSH0 DUP6 PUSH20 0xFFFFFFFFFFFFFFFFFFFFFFFFFFFFFFFFFFFFFFFF AND PUSH20 0xFFFFFFFFFFFFFFFFFFFFFFFFFFFFFFFFFFFFFFFF AND DUP2 MSTORE PUSH1 0x20 ADD SWAP1 DUP2 MSTORE PUSH1 0x20 ADD PUSH0 KECCAK256 SLOAD SWAP1 POP DUP2 DUP2 LT ISZERO PUSH2 0xA20 JUMPI DUP4 DUP2 DUP4 PUSH1 0x40 MLOAD PUSH32 0xE450D38C00000000000000000000000000000000000000000000000000000000 DUP2 MSTORE PUSH1 0x4 ADD PUSH2 0xA17 SWAP4 SWAP3 SWAP2 SWAP1 PUSH2 0xFAD JUMP JUMPDEST PUSH1 0x40 MLOAD DUP1 SWAP2 SUB SWAP1 REVERT JUMPDEST DUP2 DUP2 SUB PUSH0 DUP1 DUP7 PUSH20 0xFFFFFFFFFFFFFFFFFFFFFFFFFFFFFFFFFFFFFFFF AND PUSH20 0xFFFFFFFFFFFFFFFFFFFFFFFFFFFFFFFFFFFFFFFF AND DUP2 MSTORE PUSH1 0x20 ADD SWAP1 DUP2 MSTORE PUSH1 0x20 ADD PUSH0 KECCAK256 DUP2 SWAP1 SSTORE POP POP JUMPDEST PUSH0 PUSH20 0xFFFFFFFFFFFFFFFFFFFFFFFFFFFFFFFFFFFFFFFF AND DUP3 PUSH20 0xFFFFFFFFFFFFFFFFFFFFFFFFFFFFFFFFFFFFFFFF AND SUB PUSH2 0xAAC JUMPI DUP1 PUSH1 0x2 PUSH0 DUP3 DUP3 SLOAD SUB SWAP3 POP POP DUP2 SWAP1 SSTORE POP PUSH2 0xAF6 JUMP JUMPDEST DUP1 PUSH0 DUP1 DUP5 PUSH20 0xFFFFFFFFFFFFFFFFFFFFFFFFFFFFFFFFFFFFFFFF AND PUSH20 0xFFFFFFFFFFFFFFFFFFFFFFFFFFFFFFFFFFFFFFFF AND DUP2 MSTORE PUSH1 0x20 ADD SWAP1 DUP2 MSTORE PUSH1 0x20 ADD PUSH0 KECCAK256 PUSH0 DUP3 DUP3 SLOAD ADD SWAP3 POP POP DUP2 SWAP1 SSTORE POP JUMPDEST DUP2 PUSH20 0xFFFFFFFFFFFFFFFFFFFFFFFFFFFFFFFFFFFFFFFF AND DUP4 PUSH20 0xFFFFFFFFFFFFFFFFFFFFFFFFFFFFFFFFFFFFFFFF AND PUSH32 0xDDF252AD1BE2C89B69C2B068FC378DAA952BA7F163C4A11628F55A4DF523B3EF DUP4 PUSH1 0x40 MLOAD PUSH2 0xB53 SWAP2 SWAP1 PUSH2 0xD01 JUMP JUMPDEST PUSH1 0x40 MLOAD DUP1 SWAP2 SUB SWAP1 LOG3 POP POP POP JUMP JUMPDEST PUSH0 DUP2 MLOAD SWAP1 POP SWAP2 SWAP1 POP JUMP JUMPDEST PUSH0 DUP3 DUP3 MSTORE PUSH1 0x20 DUP3 ADD SWAP1 POP SWAP3 SWAP2 POP POP JUMP JUMPDEST DUP3 DUP2 DUP4 MCOPY PUSH0 DUP4 DUP4 ADD MSTORE POP POP POP JUMP JUMPDEST PUSH0 PUSH1 0x1F NOT PUSH1 0x1F DUP4 ADD AND SWAP1 POP SWAP2 SWAP1 POP JUMP JUMPDEST PUSH0 PUSH2 0xBA2 DUP3 PUSH2 0xB60 JUMP JUMPDEST PUSH2 0xBAC DUP2 DUP6 PUSH2 0xB6A JUMP JUMPDEST SWAP4 POP PUSH2 0xBBC DUP2 DUP6 PUSH1 0x20 DUP7 ADD PUSH2 0xB7A JUMP JUMPDEST PUSH2 0xBC5 DUP2 PUSH2 0xB88 JUMP JUMPDEST DUP5 ADD SWAP2 POP POP SWAP3 SWAP2 POP POP JUMP JUMPDEST PUSH0 PUSH1 0x20 DUP3 ADD SWAP1 POP DUP2 DUP2 SUB PUSH0 DUP4 ADD MSTORE PUSH2 0xBE8 DUP2 DUP5 PUSH2 0xB98 JUMP JUMPDEST SWAP1 POP SWAP3 SWAP2 POP POP JUMP JUMPDEST PUSH0 DUP1 REVERT JUMPDEST PUSH0 PUSH20 0xFFFFFFFFFFFFFFFFFFFFFFFFFFFFFFFFFFFFFFFF DUP3 AND SWAP1 POP SWAP2 SWAP1 POP JUMP JUMPDEST PUSH0 PUSH2 0xC1D DUP3 PUSH2 0xBF4 JUMP JUMPDEST SWAP1 POP SWAP2 SWAP1 POP JUMP JUMPDEST PUSH2 0xC2D DUP2 PUSH2 0xC13 JUMP JUMPDEST DUP2 EQ PUSH2 0xC37 JUMPI PUSH0 DUP1 REVERT JUMPDEST POP JUMP JUMPDEST PUSH0 DUP2 CALLDATALOAD SWAP1 POP PUSH2 0xC48 DUP2 PUSH2 0xC24 JUMP JUMPDEST SWAP3 SWAP2 POP POP JUMP JUMPDEST PUSH0 DUP2 SWAP1 POP SWAP2 SWAP1 POP JUMP JUMPDEST PUSH2 0xC60 DUP2 PUSH2 0xC4E JUMP JUMPDEST DUP2 EQ PUSH2 0xC6A JUMPI PUSH0 DUP1 REVERT JUMPDEST POP JUMP JUMPDEST PUSH0 DUP2 CALLDATALOAD SWAP1 POP PUSH2 0xC7B DUP2 PUSH2 0xC57 JUMP JUMPDEST SWAP3 SWAP2 POP POP JUMP JUMPDEST PUSH0 DUP1 PUSH1 0x40 DUP4 DUP6 SUB SLT ISZERO PUSH2 0xC97 JUMPI PUSH2 0xC96 PUSH2 0xBF0 JUMP JUMPDEST JUMPDEST PUSH0 PUSH2 0xCA4 DUP6 DUP3 DUP7 ADD PUSH2 0xC3A JUMP JUMPDEST SWAP3 POP POP PUSH1 0x20 PUSH2 0xCB5 DUP6 DUP3 DUP7 ADD PUSH2 0xC6D JUMP JUMPDEST SWAP2 POP POP SWAP3 POP SWAP3 SWAP1 POP JUMP JUMPDEST PUSH0 DUP2 ISZERO ISZERO SWAP1 POP SWAP2 SWAP1 POP JUMP JUMPDEST PUSH2 0xCD3 DUP2 PUSH2 0xCBF JUMP JUMPDEST DUP3 MSTORE POP POP JUMP JUMPDEST PUSH0 PUSH1 0x20 DUP3 ADD SWAP1 POP PUSH2 0xCEC PUSH0 DUP4 ADD DUP5 PUSH2 0xCCA JUMP JUMPDEST SWAP3 SWAP2 POP POP JUMP JUMPDEST PUSH2 0xCFB DUP2 PUSH2 0xC4E JUMP JUMPDEST DUP3 MSTORE POP POP JUMP JUMPDEST PUSH0 PUSH1 0x20 DUP3 ADD SWAP1 POP PUSH2 0xD14 PUSH0 DUP4 ADD DUP5 PUSH2 0xCF2 JUMP JUMPDEST SWAP3 SWAP2 POP POP JUMP JUMPDEST PUSH0 DUP1 PUSH0 PUSH1 0x60 DUP5 DUP7 SUB SLT ISZERO PUSH2 0xD31 JUMPI PUSH2 0xD30 PUSH2 0xBF0 JUMP JUMPDEST JUMPDEST PUSH0 PUSH2 0xD3E DUP7 DUP3 DUP8 ADD PUSH2 0xC3A JUMP JUMPDEST SWAP4 POP POP PUSH1 0x20 PUSH2 0xD4F DUP7 DUP3 DUP8 ADD PUSH2 0xC3A JUMP JUMPDEST SWAP3 POP POP PUSH1 0x40 PUSH2 0xD60 DUP7 DUP3 DUP8 ADD PUSH2 0xC6D JUMP JUMPDEST SWAP2 POP POP SWAP3 POP SWAP3 POP SWAP3 JUMP JUMPDEST PUSH0 PUSH1 0xFF DUP3 AND SWAP1 POP SWAP2 SWAP1 POP JUMP JUMPDEST PUSH2 0xD7F DUP2 PUSH2 0xD6A JUMP JUMPDEST DUP3 MSTORE POP POP JUMP JUMPDEST PUSH0 PUSH1 0x20 DUP3 ADD SWAP1 POP PUSH2 0xD98 PUSH0 DUP4 ADD DUP5 PUSH2 0xD76 JUMP JUMPDEST SWAP3 SWAP2 POP POP JUMP JUMPDEST PUSH0 PUSH1 0x20 DUP3 DUP5 SUB SLT ISZERO PUSH2 0xDB3 JUMPI PUSH2 0xDB2 PUSH2 0xBF0 JUMP JUMPDEST JUMPDEST PUSH0 PUSH2 0xDC0 DUP5 DUP3 DUP6 ADD PUSH2 0xC3A JUMP JUMPDEST SWAP2 POP POP SWAP3 SWAP2 POP POP JUMP JUMPDEST PUSH0 DUP1 PUSH1 0x40 DUP4 DUP6 SUB SLT ISZERO PUSH2 0xDDF JUMPI PUSH2 0xDDE PUSH2 0xBF0 JUMP JUMPDEST JUMPDEST PUSH0 PUSH2 0xDEC DUP6 DUP3 DUP7 ADD PUSH2 0xC3A JUMP JUMPDEST SWAP3 POP POP PUSH1 0x20 PUSH2 0xDFD DUP6 DUP3 DUP7 ADD PUSH2 0xC3A JUMP JUMPDEST SWAP2 POP POP SWAP3 POP SWAP3 SWAP1 POP JUMP JUMPDEST PUSH32 0x4E487B7100000000000000000000000000000000000000000000000000000000 PUSH0 MSTORE PUSH1 0x22 PUSH1 0x4 MSTORE PUSH1 0x24 PUSH0 REVERT JUMPDEST PUSH0 PUSH1 0x2 DUP3 DIV SWAP1 POP PUSH1 0x1 DUP3 AND DUP1 PUSH2 0xE4B JUMPI PUSH1 0x7F DUP3 AND SWAP2 POP JUMPDEST PUSH1 0x20 DUP3 LT DUP2 SUB PUSH2 0xE5E JUMPI PUSH2 0xE5D PUSH2 0xE07 JUMP JUMPDEST JUMPDEST POP SWAP2 SWAP1 POP JUMP JUMPDEST PUSH32 0x45524332303A207472616E7366657220616D6F756E7420657863656564732061 PUSH0 DUP3 ADD MSTORE PUSH32 0x6C6C6F77616E6365000000000000000000000000000000000000000000000000 PUSH1 0x20 DUP3 ADD MSTORE POP JUMP JUMPDEST PUSH0 PUSH2 0xEBE PUSH1 0x28 DUP4 PUSH2 0xB6A JUMP JUMPDEST SWAP2 POP PUSH2 0xEC9 DUP3 PUSH2 0xE64 JUMP JUMPDEST PUSH1 0x40 DUP3 ADD SWAP1 POP SWAP2 SWAP1 POP JUMP JUMPDEST PUSH0 PUSH1 0x20 DUP3 ADD SWAP1 POP DUP2 DUP2 SUB PUSH0 DUP4 ADD MSTORE PUSH2 0xEEB DUP2 PUSH2 0xEB2 JUMP JUMPDEST SWAP1 POP SWAP2 SWAP1 POP JUMP JUMPDEST PUSH32 0x4E487B7100000000000000000000000000000000000000000000000000000000 PUSH0 MSTORE PUSH1 0x11 PUSH1 0x4 MSTORE PUSH1 0x24 PUSH0 REVERT JUMPDEST PUSH0 PUSH2 0xF29 DUP3 PUSH2 0xC4E JUMP JUMPDEST SWAP2 POP PUSH2 0xF34 DUP4 PUSH2 0xC4E JUMP JUMPDEST SWAP3 POP DUP3 DUP3 SUB SWAP1 POP DUP2 DUP2 GT ISZERO PUSH2 0xF4C JUMPI PUSH2 0xF4B PUSH2 0xEF2 JUMP JUMPDEST JUMPDEST SWAP3 SWAP2 POP POP JUMP JUMPDEST PUSH2 0xF5B DUP2 PUSH2 0xC13 JUMP JUMPDEST DUP3 MSTORE POP POP JUMP JUMPDEST PUSH0 PUSH1 0x20 DUP3 ADD SWAP1 POP PUSH2 0xF74 PUSH0 DUP4 ADD DUP5 PUSH2 0xF52 JUMP JUMPDEST SWAP3 SWAP2 POP POP JUMP JUMPDEST PUSH0 PUSH2 0xF84 DUP3 PUSH2 0xC4E JUMP JUMPDEST SWAP2 POP PUSH2 0xF8F DUP4 PUSH2 0xC4E JUMP JUMPDEST SWAP3 POP DUP3 DUP3 ADD SWAP1 POP DUP1 DUP3 GT ISZERO PUSH2 0xFA7 JUMPI PUSH2 0xFA6 PUSH2 0xEF2 JUMP JUMPDEST JUMPDEST SWAP3 SWAP2 POP POP JUMP JUMPDEST PUSH0 PUSH1 0x60 DUP3 ADD SWAP1 POP PUSH2 0xFC0 PUSH0 DUP4 ADD DUP7 PUSH2 0xF52 JUMP JUMPDEST PUSH2 0xFCD PUSH1 0x20 DUP4 ADD DUP6 PUSH2 0xCF2 JUMP JUMPDEST PUSH2 0xFDA PUSH1 0x40 DUP4 ADD DUP5 PUSH2 0xCF2 JUMP JUMPDEST SWAP5 SWAP4 POP POP POP POP JUMP INVALID LOG2 PUSH5 0x6970667358 0x22 SLT KECCAK256 0xB2 CREATE2 BLOBBASEFEE 0xE9 0xE1 PUSH30 0xFF8E733AFD1DC21C0022DDBBE8D4F66ECBA263B383927033857864736F6C PUSH4 0x4300081A STOP CALLER "
				},
				"gasEstimates": {
					"creation": {
						"codeDepositCost": "824000",
						"executionCost": "infinite",
						"totalCost": "infinite"
					},
					"external": {
						"allowance(address,address)": "infinite",
						"approve(address,uint256)": "infinite",
						"balanceOf(address)": "2829",
						"burn(address,uint256)": "infinite",
						"decimals()": "427",
						"getBalanceOf(address)": "2915",
						"mint(address,uint256)": "infinite",
						"name()": "infinite",
						"symbol()": "infinite",
						"totalSupply()": "2477",
						"transfer(address,uint256)": "infinite",
						"transferFrom(address,address,uint256)": "infinite"
					}
				},
				"methodIdentifiers": {
					"allowance(address,address)": "dd62ed3e",
					"approve(address,uint256)": "095ea7b3",
					"balanceOf(address)": "70a08231",
					"burn(address,uint256)": "9dc29fac",
					"decimals()": "313ce567",
					"getBalanceOf(address)": "9b96eece",
					"mint(address,uint256)": "40c10f19",
					"name()": "06fdde03",
					"symbol()": "95d89b41",
					"totalSupply()": "18160ddd",
					"transfer(address,uint256)": "a9059cbb",
					"transferFrom(address,address,uint256)": "23b872dd"
				}
			},
			"storageLayout": {
				"storage": [
					{
						"astId": 279,
						"contract": "ERC20_flattened.sol:CAMESENNIN",
						"label": "_balances",
						"offset": 0,
						"slot": "0",
						"type": "t_mapping(t_address,t_uint256)"
					},
					{
						"astId": 285,
						"contract": "ERC20_flattened.sol:CAMESENNIN",
						"label": "_allowances",
						"offset": 0,
						"slot": "1",
						"type": "t_mapping(t_address,t_mapping(t_address,t_uint256))"
					},
					{
						"astId": 287,
						"contract": "ERC20_flattened.sol:CAMESENNIN",
						"label": "_totalSupply",
						"offset": 0,
						"slot": "2",
						"type": "t_uint256"
					},
					{
						"astId": 289,
						"contract": "ERC20_flattened.sol:CAMESENNIN",
						"label": "_name",
						"offset": 0,
						"slot": "3",
						"type": "t_string_storage"
					},
					{
						"astId": 291,
						"contract": "ERC20_flattened.sol:CAMESENNIN",
						"label": "_symbol",
						"offset": 0,
						"slot": "4",
						"type": "t_string_storage"
					}
				],
				"types": {
					"t_address": {
						"encoding": "inplace",
						"label": "address",
						"numberOfBytes": "20"
					},
					"t_mapping(t_address,t_mapping(t_address,t_uint256))": {
						"encoding": "mapping",
						"key": "t_address",
						"label": "mapping(address => mapping(address => uint256))",
						"numberOfBytes": "32",
						"value": "t_mapping(t_address,t_uint256)"
					},
					"t_mapping(t_address,t_uint256)": {
						"encoding": "mapping",
						"key": "t_address",
						"label": "mapping(address => uint256)",
						"numberOfBytes": "32",
						"value": "t_uint256"
					},
					"t_string_storage": {
						"encoding": "bytes",
						"label": "string",
						"numberOfBytes": "32"
					},
					"t_uint256": {
						"encoding": "inplace",
						"label": "uint256",
						"numberOfBytes": "32"
					}
				}
			},
			"userdoc": {
				"kind": "user",
				"methods": {},
				"version": 1
			}
		}
	}
}